:100000000C9463000C948B000C948B000C942D02C8
:100010000C9402050C942D020C948B000C948B0014
:100020000C948B000C948B000C948B000C94F304B8
:100030000C948B000C948B000C948B000C948B0014
:100040000C94BD0A0C948B000C9440080C941A0874
:100050000C948B000C948B000C948B000C948B00F4
:100060000C948B000C948B000000000025002800ED
:100070002B000000000023002600290004040404D3
:100080000404040402020202020203030303030342
:10009000010204081020408001020408102001021F
:1000A0000408102000000000240027002A0000009F
:1000B0000008000201000003040700000000000027
:1000C0000000AA11880C11241FBECFEFD8E0DEBFBC
:1000D000CDBF26E0ACE0B3E001C01D92A63DB20763
:1000E000E1F713E0A0E0B1E0E4EDF5E302C0059034
:1000F0000D92AC30B107D9F710E0C2E6D0E004C0F1
:100100002197FE010E94D416C136D107C9F70E947B
:10011000920C0C94DD1A0C940000FC01918D228D40
:10012000892F90E0805C9F4F821B91098F739927E4
:10013000089580E090E0892B29F00E94A7078111A3
:100140000C940000089520918A0330918B032817A6
:10015000390771F49091880380918903981741F0D1
:10016000E0918803F0E0E85BFC4F808190E0089527
:100170008FEF9FEF089508951F93CF93DF93DC01D6
:100180005C962D913C915D972115310539F481E004
:1001900090E013969C938E9312973DC05196ED91EB
:1001A000FC91529750969C915097892F80951FB73C
:1001B0005E964C915E9741FB772770F941FD609503
:1001C000F8944081772311F0492B01C048234083E4
:1001D000E9012197F1F748E0508160FF02C0592BF7
:1001E00001C058235083E9012197F1F766954150EA
:1001F00099F7772321F090818923808303C0808140
:10020000982B90831FBF5C968D919C915D97019771
:10021000F1F721E030E0C901DF91CF911F910895FE
:1002200020918A0330918B032817390771F480914C
:1002300089032091880390E0805C9F4F821B910985
:1002400060E470E00E946B16089580E090E00895ED
:1002500020918A0330918B0328173907B9F49091C4
:10026000880380918903981789F0E0918803F0E072
:10027000E85BFC4F80812091880330E02F5F3F4F87
:100280002F7333272093880390E008958FEF9FEF1B
:10029000089580E090E0089508959B01DC01129696
:1002A000ED91FC911397309719F0BA01C9010994A7
:1002B0000895019731F410928C0310928D031092DF
:1002C0008F030895019731F410928C0310928D03DF
:1002D00010928F030895019731F483E080938D038A
:1002E00086E080938C030895019731F482E0809337
:1002F0008D0386E080938C030895019731F481E0AB
:1003000080938D0386E080938C030895019731F4E8
:1003100083E080938D0385E080938C03089501979B
:1003200031F482E080938D0385E080938C030895FF
:10033000019731F481E080938D0385E080938C03F5
:100340000895019731F483E080938D0384E08093D6
:100350008C030895019731F482E080938D0384E04B
:1003600080938C030895019731F481E080938D038D
:1003700084E080938C030895019729F483E08093AF
:100380008D0380938C030895019731F482E080936C
:100390008D0383E080938C030895019731F481E00D
:1003A00080938D0383E080938C030895019731F44B
:1003B00083E080938D0382E080938C0308950197FE
:1003C00029F482E080938D0380938C030895019734
:1003D00031F481E080938D0382E080938C03089553
:1003E000019731F483E080938D0381E080938C0347
:1003F0000895019731F482E080938D0381E080932A
:100400008C030895019729F481E080938D038093F4
:100410008C0308950E940718FC01848DDF01A80F4A
:10042000B11DA35ABF4F2C91848D90E001968F731C
:100430009927848FA689B7892C93A089B1898C913B
:1004400080648C93938D848D981306C00288F38901
:10045000E02D80818F7D808308951F920F920FB6CB
:100460000F9211242F933F934F935F936F937F933A
:100470008F939F93AF93BF93EF93FF93E0918A0382
:10048000F0918B03309709F451C0968DA685B785FE
:10049000858591FF04C09C91892329F447C09C91D4
:1004A000892309F043C0A389B4899C9185898095EB
:1004B00089238C93868997890197F1F7608D718DD7
:1004C000A685B785558538E020E0CB010197F1F787
:1004D000822F90E095958795282F4C91452309F020
:1004E0002068315091F7868D81FD20958091890398
:1004F00090E001968F73992730918803381749F05F
:10050000A0918903B0E0A85BBC4F2C938093890332
:1005100003C0868D8160868F828D938D0197F1F760
:10052000A389B4899C918589892B8C93FF91EF9144
:10053000BF91AF919F918F917F916F915F914F91FB
:100540003F912F910F900FBE0F901F901895E09143
:100550008A03F0918B03E817F90769F4A389B4893A
:100560009C918589809589238C9310928B0310929E
:100570008A0381E0089580E0089508958CBD9DBDB3
:100580000895CF92DF92EF92FF920F931F93CF9334
:10059000DF9300D000D0CDB7DEB719821A821B825C
:1005A0001C82FC01C080D1808E010F5F1F4F7E0135
:1005B000F5E0EF0EF11CC6010E94070B97FF04C087
:1005C0008981813091F407C0F80181938F01EE1584
:1005D000FF0589F7F5CF8A818F3F39F48B818F3FF3
:1005E00021F481E09C819F3F09F080E00F900F9003
:1005F0000F900F90DF91CF911F910F91FF90EF908F
:10060000DF90CF9008950F931F93CF93DF9300D087
:10061000CDB7DEB78C01DC0116968C911697882336
:1006200069F08D919C91DC01ED91FC910680F78140
:10063000E02D69837A8309957A816981F801808147
:1006400091810E94370BD8018D919C91DC01ED9135
:10065000FC910190F081E02D6FEF0995F801808108
:100660009181DC01ED91FC910190F081E02D6FEF23
:100670000995F80180819181DC01ED91FC91019057
:10068000F081E02D6FEF0F900F90DF91CF911F91D0
:100690000F9109945F926F927F928F929F92AF9287
:1006A000BF92CF92DF92EF92FF920F931F93CF935F
:1006B000DF9300D000D01F92CDB7DEB7EDB6FEB607
:1006C000DC01ED91FC91369700811181080F191F13
:1006D000F80184819581DC01FD0101900020E9F79A
:1006E00031979F012A1B3B0BFB0101900020E9F78A
:1006F0003197E61BF70B2E0F3F1F265F3F4F4DB77D
:100700005EB7421B530B0FB6F8945EBF0FBE4DBFD2
:10071000ADB7BEB711965D017F936F934DEA51E07F
:100720005F934F939F938F9381EB91E09F938F9370
:100730003F932F93BF92AF930E940C18F801528001
:10074000C080D1806CEB71E0C6010E940303FE0102
:10075000319685E0DF011D928A95E9F7D6016D900B
:100760007C906F01EDB7FEB73C960FB6F894FEBFD4
:100770000FBEEDBF812C912CC3010E94070B97FD8A
:1007800018C0D6018D936D01BFEF8B1A9B0AE5E06F
:100790008E16910489F78981863659F48B818F3FB3
:1007A00041F48C818F3F29F48D818F3F11F48A8130
:1007B00001C080E058120CC0B501D8018D919C9108
:1007C0000E940303F801808191810E94C10201C04F
:1007D00080E00FB6F894FEBE0FBEEDBE0F900F90F6
:1007E0000F900F900F90DF91CF911F910F91FF907D
:1007F000EF90DF90CF90BF90AF909F908F907F90C1
:100800006F905F9008958F929F92AF92BF92CF9218
:10081000DF92EF92FF921F93CF93DF93CDB7DEB7B6
:100820002A970FB6F894DEBF0FBECDBF019709F02F
:10083000A9C010928C03E0908D031EE01E9DC001A4
:1008400011249C0120503F4F7901F901828193814D
:100850002CE3822E912CB4010E946B169F938F93F0
:100860007F936F9333ECC32E31E0D32EDF92CF9280
:100870009E012F5F3F4F59013F932F930E943C18D9
:10088000B50187EB94E00E944A03F70184819581CA
:10089000B4010E946B169F938F937F936F93DF92A7
:1008A000CF92BF92AF920E943C18B50187EA94E0C4
:1008B0000E944A03F70183858F9382858F934BECC7
:1008C000C42E41E0D42EDF92CF92BF92AF920E940D
:1008D0003C18B50187E994E00E944A03F701858539
:1008E0008F9384858F93DF92CF92BF92AF920E94B5
:1008F0003C18B50187E894E00E944A03E0918D031B
:100900001E9FF0011124E050FF4F8281938190934C
:100910001D0380931C038481958190931B03809316
:100920001A03868197819093190380931803808519
:1009300091859093170380931603828593859093F6
:1009400015038093140384859585909313038093F6
:1009500012030E94B10A60930E0370930F038093F9
:1009600010039093110310920D0310920C0384E076
:1009700080938D0381E080938F030FB6F894DEBFE0
:100980000FBECDBF2A960FB6F894DEBF0FBECDBF07
:10099000DF91CF911F91FF90EF90DF90CF90BF90AC
:1009A000AF909F908F9008950F931F93CF93DF93F5
:1009B0006115710591F0EB018C0184E090E00E94DB
:1009C000DA1625E431E0FC0131832083D383C2832E
:1009D000F8019383828381E001C080E0DF91CF91B1
:1009E0001F910F9108951F920F920FB60F9211242D
:1009F0008F9381E080938E038F910F900FBE0F90A5
:100A00001F9018951F920F920FB60F9211240F93FB
:100A10001F932F933F934F935F936F937F938F9386
:100A20009F93AF93BF93CF93EF93FF938091440431
:100A30000E945009C82F809146040E945009880FD7
:100A4000991F8C2BE0914804E817C9F194E0E90262
:100A5000F0011124282F082E000C330BE22BF32B6E
:100A6000EF5CFE4F4081042E000C550B660B770B9C
:100A70000091490410914A0420914B0430914C0498
:100A8000400F511F621F731F4093490450934A0443
:100A900060934B0470934C04833079F492E0759525
:100AA0006795579547959A95D1F740934D04509384
:100AB0004E0460934F047093500480934804FF9158
:100AC000EF91CF91BF91AF919F918F917F916F9156
:100AD0005F914F913F912F911F910F910F900FBEFA
:100AE0000F901F901895CF93DF93F89427E0269FDF
:100AF000E001279FD00D1124C80FD91FCC0FDD1F97
:100B0000C050DF4F688180E090E00E940E1569813F
:100B100081E090E00E940E157894DF91CF910895C6
:100B20002F923F924F925F926F927F928F929F92FD
:100B3000AF92BF92CF92DF92EF92FF920F931F93EB
:100B4000CF93DF93CDB7DEB7A0970FB6F894DEBF93
:100B50000FBECDBF9A8B898B1B0121E0221A310871
:100B60008EE0829DA001839D500D1124588B4F87EC
:100B7000812C912CE12CF12C610184E0CC0CDD1C4A
:100B80008A95E1F740505F4F5A01CA010A969C8B43
:100B90008B8B9CE3492E512C612C712C96E0C90E55
:100BA000D11CD601AF5DBA4FBE8BAD8BF601EF51B4
:100BB000FA4FF88FEF8B96012F573A4F3A8F298FC4
:100BC000A6014F545A4F5C8F4B8FC6018F5A9A4FD4
:100BD0009E8F8D8FD601AF5BB94FB8A3AF8F2F8596
:100BE0003889280D391DA90140505F4F5E874D8718
:100BF000DA018D919C91A901425E5C4F5C874B8725
:100C0000DA012D913C918217930729F4E989FA8939
:100C1000EF2B09F4E9C08E010F5F1F4FF3E0EF16D1
:100C2000F10409F453C0F4F431E0E316F10499F14E
:100C300042E0E416F10409F07AC06CE370E00E942F
:100C40006B169F938F937F936F9383EC91E09F93A9
:100C50008F931F930F930E943C18B801C6018F5EBB
:100C6000994F2CC055E0E516F10409F44BC0E4F1AE
:100C7000B6E0EB16F10409F05AC09F938F938BEC0A
:100C800091E09F938F931F930F930E943C18B8019C
:100C90008D8D9E8D44C06CE370E00E946B169F9317
:100CA0008F937F936F9383EC91E09F938F931F9328
:100CB0000F930E943C18B8018F8D98A10E944A039F
:100CC0000FB6F894DEBF0FBECDBF31C09F938F9398
:100CD00081ED91E09F938F931F930F930E943C1897
:100CE000B8018F89988D1BC09F938F9381ED91E000
:100CF0009F938F931F930F930E943C18B8018B8D85
:100D00009C8D0DC09F938F938BEC91E09F938F935D
:100D10001F930F930E943C18B801898D9A8D0E94F1
:100D20004A030F900F900F900F900F900F90AD858A
:100D3000BE858D919C91EB85FC8591838083AB89E9
:100D4000BC89ED91FC91D50112962D913C911397A0
:100D500014968D919C911597280F391F16966D91B9
:100D60007C911797CF010E946B164CE3469FC00100
:100D7000479F900D1124280F391FD5011C968D9186
:100D80009C911D978E1B9F0B18966D917C911997C6
:100D90000E946B16CB01489FB001499F700D112432
:100DA000620F731F072E000C880B990BA301920191
:100DB0000E94A1167F936F933F932F9383EC91E052
:100DC0009F938F931F930F930E943C18B8018D89B6
:100DD0009E890E944A03B101C7010E9473050FB6A4
:100DE000F894DEBF0FBECDBFFFEFEF1AFF0A22E07F
:100DF000820E911C3EE08316910409F0F0CEA0967D
:100E00000FB6F894DEBF0FBECDBFDF91CF911F911B
:100E10000F91FF90EF90DF90CF90BF90AF909F9099
:100E20008F907F906F905F904F903F902F9008959C
:100E3000019749F483E080938D0363E070E081E0E3
:100E400090E00C9490050895019749F482E0809316
:100E50008D0362E070E081E090E00C9490050895CD
:100E6000019749F481E080938D0361E070E081E0B7
:100E700090E00C949005089527E0269FF001279FAD
:100E8000F00D1124E80FF91FEE0FFF1FE050FF4F88
:100E90002081318137FF02C0118210822EE0269F0F
:100EA000F001279FF00D1124E050FF4F2485358578
:100EB00042855385241735072CF48530910511F4AC
:100EC000338722872EE0269FF001279FF00D112403
:100ED000E050FF4F228533854485558542175307DF
:100EE00024F4069711F4358724870895FC01538D67
:100EF000448D252F30E0842F90E0821B930B5417F4
:100F000010F0CF96089501970895FC01918D828D80
:100F1000981761F0828DDF01A80FB11D5D968C914D
:100F2000928D9F5F9F73928F90E008958FEF9FEF58
:100F30000895FC01918D828D981731F0828DE80F14
:100F4000F11D858D90E008958FEF9FEF089581EA60
:100F500093E00E948D0021E0892B09F420E0822F8C
:100F60000895EF92FF920F931F93CF93DF93EC01BD
:100F700081E0888F9B8D8C8D981305C0E889F98955
:100F8000808185FD24C0F62E0B8D10E00F5F1F4F72
:100F90000F731127E02E8C8DE8120CC00FB607FCE2
:100FA000FACFE889F989808185FFF5CFCE010E94CB
:100FB0000C02F1CF8B8DFE01E80FF11DE35AFF4FBC
:100FC000F0820B8FEA89FB898081806207C0EE89FD
:100FD000FF896083E889F98980818064808381E06A
:100FE00090E0DF91CF911F910F91FF90EF900895C6
:100FF000CF93DF93EC01888D8823C9F0EA89FB89C0
:10100000808185FD05C0A889B9898C9186FD0FC0B6
:101010000FB607FCF5CF808185FFF2CFA889B9898B
:101020008C9185FFEDCFCE010E940C02E7CFDF91BE
:10103000CF9108951F920F920FB60F9211242F9304
:101040003F934F935F936F937F938F939F93AF9350
:10105000BF93EF93FF9381EA93E00E940C02FF910C
:10106000EF91BF91AF919F918F917F916F915F9120
:101070004F913F912F910F900FBE0F901F90189599
:101080001F920F920FB60F9211242F938F939F935D
:10109000EF93FF93E091B103F091B2038081E0916F
:1010A000B703F091B80382FD12C090818091BA031A
:1010B0008F5F8F732091BB03821751F0E091BA03C9
:1010C000F0E0EF55FC4F958F8093BA0301C080810B
:1010D000FF91EF919F918F912F910F900FBE0F90E5
:1010E0001F901895CF93DF93EC0184E090E00E946D
:1010F000DA16DC011196DC93CE9313961C921E92A5
:101100001297E091A806F091A906309729F49093E0
:10111000A9068093A80608C082819381009711F0E8
:10112000FC01FACFB383A283DF91CF910895EF92B0
:10113000FF920F931F93CF93DF93909140049F3FB3
:1011400039F48EBD00000DB407FEFDCF8EB528C06A
:10115000D82F07E010E0C0E0EE24E394F12CCC0F90
:1011600060E0809140040E947909B701002E01C01F
:10117000660F0A94EAF76D23809142040E94790970
:1011800061E0809140040E947909809141040E94AD
:101190005009892B09F0C1600150110900F78C2F0B
:1011A000DF91CF911F910F91FF90EF9008958330C1
:1011B00081F028F4813099F08230A1F008958730D1
:1011C000A9F08830B9F08430D1F4809180008F7D0F
:1011D00003C0809180008F7780938000089584B54C
:1011E0008F7702C084B58F7D84BD08958091B00053
:1011F0008F7703C08091B0008F7D8093B0000895F9
:101200003FB7F8948091CE069091CF06A091D0067A
:10121000B091D10626B5A89B05C02F3F19F00196C5
:10122000A11DB11D3FBFBA2FA92F982F8827820F6C
:10123000911DA11DB11DBC01CD0142E0660F771FBC
:10124000881F991F4A95D1F70895CF92DF92EF92A8
:10125000FF920F931F93CF93DF936C017A018B0161
:10126000C0E0D0E0CE15DF0589F0D8016D918D0189
:10127000D601ED91FC910190F081E02DC601099518
:10128000892B11F47E0102C02196ECCFC701DF91BA
:10129000CF911F910F91FF90EF90DF90CF90089525
:1012A000CF93DF93282F30E0F901E255FF4F84916F
:1012B000F901E057FF4FD491F901E458FF4FC49171
:1012C000CC2391F081110E94D708EC2FF0E0EE0FB3
:1012D000FF1FEE58FF4FA591B491EC91ED2381E0F3
:1012E00090E021F480E002C080E090E0DF91CF91B7
:1012F00008951F93CF93DF93282F30E0F901E25533
:10130000FF4F8491F901E057FF4FD491F901E45860
:10131000FF4FC491CC23C9F0162F81110E94D7082A
:10132000EC2FF0E0EE0FFF1FE859FF4FA591B491AD
:101330008FB7F894111105C09C91ED2FE095E9232A
:1013400002C0EC91ED2BEC938FBFDF91CF911F91F9
:101350000895CF93DF93C62FD82FD0688091400493
:101360008F3F39F480913E0490913F040E94BE0269
:1013700003C061E00E94790960E0809143040E940B
:1013800079098D2F0E9497088C2F0E9497088091D1
:1013900040048F3F11F40E94BD0261E0809143043C
:1013A000DF91CF910C947909FF920F931F93CF9304
:1013B000DF93162FF72E042FC82FCF77809140048C
:1013C0008F3F39F480913E0490913F040E94BE0209
:1013D00003C061E00E94790960E0809143040E94AB
:1013E00079098C2F0E949708C12FDF2D100F1C1731
:1013F00029F08FEF0E9497088993F9CF80914004DC
:101400008F3F11F40E94BD0261E080914304DF919F
:10141000CF911F910F91FF900C947909CF93DF9397
:101420001F92CDB7DEB7198241E0BE016F5F7F4FDB
:101430000E94D40989810F90DF91CF91089581E0B6
:101440000E940E0A807F682F636081E00C94A909D6
:10145000CF93DF9390E0FC01E057FF4F2491FC0114
:10146000E458FF4F8491882361F190E0880F991F21
:10147000FC01EC55FF4FC591D491FC01E859FF4F99
:10148000A591B491611109C09FB7F8948881209506
:1014900082238883EC912E230BC0623061F49FB7C6
:1014A000F8943881822F809583238883EC912E2BAA
:1014B0002C939FBF06C08FB7F894E8812E2B28830A
:1014C0008FBFDF91CF9108958F929F92AF92BF927D
:1014D000CF92DF92EF92FF926B017C010E94000994
:1014E0004B015C01C114D104E104F104F1F00E944C
:1014F0000009DC01CB0188199909AA09BB09883EBA
:101500009340A105B10570F321E0C21AD108E108AA
:10151000F10888EE880E83E0981EA11CB11CC1144E
:10152000D104E104F10419F7DDCFFF90EF90DF90D3
:10153000CF90BF90AF909F908F90089560E089E02A
:101540000E94A90980E00E940E0A8F77682F6064CC
:1015500080E00E94A9096AEF70E080E090E00C94BE
:10156000640A2FB7F8946091CA067091CB068091F7
:10157000CC069091CD062FBF08951F920F920FB603
:101580000F9211242F933F938F939F93AF93BF9309
:101590008091CA069091CB06A091CC06B091CD0661
:1015A0003091C90623E0230F2D3720F40196A11DA9
:1015B000B11D05C026E8230F0296A11DB11D209381
:1015C000C9068093CA069093CB06A093CC06B0932D
:1015D000CD068091CE069091CF06A091D006B09115
:1015E000D1060196A11DB11D8093CE069093CF0622
:1015F000A093D006B093D106BF91AF919F918F91E8
:101600003F912F910F900FBE0F901F9018950F9341
:101610001F93CF93DF93EC010E94B10A688779870B
:101620008A879B87E881F9810284F385E02DCE01CA
:10163000099597FF17C00E94B10A088519852A8568
:101640003B85DC01CB01801B910BA20BB30B0C8102
:101650001D812E813F8180179107A207B30710F3E8
:101660008FEF9FEFDF91CF911F910F91089561153B
:10167000710579F0FB0101900020E9F73197AF0186
:10168000461B570BDC01ED91FC910280F381E02DAC
:10169000099480E090E00895CF93DF93BC0181EA44
:1016A00093E00E94370BEC0165EF71E081EA93E073
:1016B0000E94370B8C0F9D1FDF91CF9108958F9261
:1016C0009F92AF92BF920F931F93CF93DF93CDB7AB
:1016D000DEB7A1970FB6F894DEBF0FBECDBF19A23B
:1016E000423008F44AE08E010F5D1F4F842E912C8A
:1016F000A12CB12CA50194010E947F16E62FB901FF
:10170000CA0101501109EA3014F4E05D01C0E95C3E
:10171000D801EC93232B242B252B61F7B80181EA08
:1017200093E00E94370BA1960FB6F894DEBF0FBE70
:10173000CDBFDF91CF911F910F91BF90AF909F9040
:101740008F9008954F925F926F927F928F929F92A7
:10175000AF92BF92CF92DF92EF92FF926B017C012A
:10176000B42E9B01AC010E946616882319F06FEF1E
:1017700072E027C026013701E89477F82FEF3FEF9A
:101780004FE75FE7C301B2010E94661681110DC0E9
:101790002FEF3FEF4FE75FE7C301B2010E94E21373
:1017A00018161CF463E073E00CC02FEF3FEF4FE717
:1017B0005FE4C701B6010E946116181694F467E051
:1017C00073E081EA93E0FF90EF90DF90CF90BF90BD
:1017D000AF909F908F907F906F905F904F900C9400
:1017E000370B2FEF3FEF4FE75FECC701B6010E94C9
:1017F000E21387FDE4CF20E030E0A901C701B60184
:101800000E94E21387FF11C0E091A103F091A203AF
:101810000190F081E02D6DE281EA93E009954C01A1
:10182000F7FAF094F7F8F09402C0812C912CA12CD7
:1018300060E070E080E09FE3AB1441F020E030E036
:1018400040E251E40E94C015A394F6CF9B01AC0185
:10185000C701B6010E9454152B013C010E943216AB
:101860006B017C010E94E7139B01AC01C301B20133
:101870000E9453152B013C014AE0C701B6010E94AA
:101880005F0B7C01E80CF91CBB2069F0E091A1031F
:10189000F091A2030190F081E02D6EE281EA93E0E5
:1018A0000995E80EF91EDB2CDD2021F120E030E067
:1018B00040E251E4C301B2010E9448142B013C01F3
:1018C0000E9432164B01A12CB12C4AE0C501B40193
:1018D0000E945F0BE80EF91EC501B4010E94E713D8
:1018E0009B01AC01C301B2010E9453152B013C01C5
:1018F000DA94DACFC701FF90EF90DF90CF90BF90DE
:10190000AF909F908F907F906F905F904F900895D1
:101910008FE991E09093AB068093AA068AEA96E05D
:101920000C94A702CF93DF9300D01F92CDB7DEB700
:10193000789484B5826084BD84B5816084BD85B5AA
:10194000826085BD85B5816085BD80916E008160B6
:1019500080936E001092810080918100826080935C
:10196000810080918100816080938100809180005E
:101970008160809380008091B10084608093B10089
:101980008091B00081608093B00080917A00846083
:1019900080937A0080917A00826080937A008091AF
:1019A0007A00816080937A0080917A0080688093C9
:1019B0007A001092C100E091B103F091B20382E08D
:1019C0008083E091AD03F091AE031082E091AF030C
:1019D000F091B0038FEC80831092B903E091B503CE
:1019E000F091B60386E08083E091B303F091B403F5
:1019F000808180618083E091B303F091B4038081A2
:101A000088608083E091B303F091B40380818068A3
:101A10008083E091B303F091B40380818F7D808354
:101A200089ED91E00E944C0B80E090E00E94061549
:101A3000853A09F03DC050E0C52E51E0D52EA12CCD
:101A4000B12CE12CF12C00E010E0F89448018A0C54
:101A50009B1C880C991CC4010E940615782EC40199
:101A600001960E940615F801EE0FFF1FEC0DFD1DFB
:101A7000282F30E0322F2227270D311D318320837C
:101A80007894B701C8010E943C070F5F1F4F0730D1
:101A90001105D9F62FEFE21AF20A87E0A80EB11C61
:101AA000AEE0CA0ED11CB3E0EB16F10461F619C02A
:101AB000E12CF12C00E010E0B701C8010E94730591
:101AC0000F5F1F4F07301105B9F7EFEFEE1AFE0A4F
:101AD000F3E0EF16F10471F765EA80E090E00E9410
:101AE0000E151092C5061092C4061092C3061092ED
:101AF000C2061092C1061092C0068DE991E0909343
:101B0000C7068093C6069091B606963108F057C076
:101B10002DEB30E03093C1062093C0062BE931E075
:101B20003093C3062093C2062CE231E03093C50601
:101B30002093C40620916800983050F031E09E3028
:101B400008F430E081E001C0880F3A95EAF701C05F
:101B500084E0822B80936800983038F09E3040F00B
:101B6000963148F020E030E008C02DE630E005C0B6
:101B70002BE630E002C02CE630E03093BE06209326
:101B8000BD06983030F481E001C0880F9A95EAF7DD
:101B90000EC0292F30E09E3018F42850310902C0C1
:101BA0002E50310981E001C0880F2A95EAF7809311
:101BB000BF068091C6069091C7060197F1F7809104
:101BC000C4069091C506892B21F180918A039091DA
:101BD0008B0326E08A3A9207E1F0009711F00E9409
:101BE000A7028091C8068E7F8093C8061092890351
:101BF000109288038AEA96E090938B0380938A037D
:101C0000E091BD06F091BE0690818091BF06892BC0
:101C1000808367EF71E081EA96E00E94030366EE3D
:101C200071E081EA96E00E94030381EA96E00E9457
:101C3000C1026EEE71E081EA96E00E94030381EA40
:101C400096E00E94C10260E377E081E996E00E949D
:101C5000D40464E277E081E896E00E94D40468E16D
:101C600077E081E796E00E94D40462E072E081E4CC
:101C700096E00E94D40469EF71E081E596E00E944D
:101C8000D40460EF71E081E696E00E94D40467EE30
:101C900071E081E196E00E94D4046FED71E081E291
:101CA00096E00E94D40466ED71E081E396E00E9424
:101CB000D4046DEC71E081EE95E00E94D40464ECF4
:101CC00071E081EF95E00E94D4046CEB71E081E05B
:101CD00096E00E94D40463EB71E081EB95E00E94F2
:101CE000D4046AEA71E081EC95E00E94D40461EAD0
:101CF00071E081ED95E00E94D40468E971E081E82B
:101D000095E00E94D4046FE871E081E995E00E94BB
:101D1000D40466E871E081EA95E00E94D4046DE79E
:101D200071E081E595E00E94D40464E771E081E60A
:101D300095E00E94D4046BE671E081E795E00E9493
:101D4000D40463E074E081EF94E00E94D40463E083
:101D500074E081E095E00E94D40463E074E081E1E6
:101D600095E00E94D40462E671E081EC94E00E9468
:101D7000D40462E671E081ED94E00E94D40462E64E
:101D800071E081EE94E00E94D40469E571E081E5A0
:101D900094E00E94D404809168008260809368007F
:101DA00080916C008C6080936C0061E080914304B2
:101DB0000E94280A61E0809143040E947909809181
:101DC00040048F3F71F061E00E94280A61E0809139
:101DD00042040E94280A60E0809141040E94280A7F
:101DE00033C01FB7F89480919003811127C0E6E8B3
:101DF000F0E08491EAE9F0E09491E82FF0E0EE0F52
:101E0000FF1FEC55FF4FA591B491EC91E92321F40C
:101E100061E08AE00E94790961E08AE00E94280A74
:101E20008CB580618CBD8CB580648CBD61E08DE02B
:101E30000E94280A61E08BE00E94280A80919003AA
:101E40008F5F809390031FBF60E082E00E94A9092A
:101E500060E180E00E94A9090E941F0A0E941F0AF7
:101E600080E00E940E0A682F616080E00E94A9094C
:101E7000F8941092800010928100109285001092C8
:101E8000840088E09DE3909389008093880080918E
:101E900081008860809381008091810085608093BB
:101EA000810080916F00826080936F00789461E080
:101EB00087E00E94280A61E085E00E94280A01E08C
:101EC00082E993E016E0180F6091A0036027609309
:101ED000A00387E00E9479098091A1069091A20653
:101EE000DC01ED91FC910084F185E02D0995181637
:101EF00019060CF08FC08091A1069091A206DC011A
:101F0000ED91FC910284F385E02D0995F82EB5E65C
:101F10008B13E2CF6AE070E080E090E00E94640AF8
:101F20008091A1069091A206DC01ED91FC910084C4
:101F3000F185E02D099506977CF2F0929103B2E9C4
:101F4000EB2EB3E0FB2E8091A1069091A206DC015E
:101F5000ED91FC910284F385E02D0995F7018193C1
:101F60007F011E13F0CF10929803809195038F3F4D
:101F700009F0B2CF809196038F3F09F0ADCF8091E9
:101F800097038F3F09F0A8CFE090A806F090A9062C
:101F9000E114F10409F4A0CF8091940320919303FC
:101FA000D7014D915C91DA01ED91FC911197369733
:101FB0000190F081E02DE40FF51F309192039281A2
:101FC000391324C09381291321C0882389F08130DB
:101FD000E9F412968D919C9113970097B9F0DC016A
:101FE000ED91FC910190F081E02D61E070E00DC079
:101FF000FA0182819381009749F0DC01ED91FC9117
:102000000190F081E02D60E070E00995F701E28039
:10201000F380BECFE0908D03F12C80918C03E1140E
:10202000F10409F44DC0B7016150710990912A0182
:1020300040914D0450914E04992331F050939A03EE
:102040004093990310922A0190E09C01215031099C
:102050002630310540F4F901E95BFE4F2081022E64
:10206000000C330B02C020E030E0A7E0A69FF00197
:10207000A79FF00D1124E80FF91FEE0FFF1FE0508E
:10208000FF4FA0919903B0919A036A01CA1ADB0A23
:10209000C29ED001C39EB00DD29EB00D11242081EE
:1020A00031812A0F3B1F3183208350939A03409341
:1020B00099030E943C07B70180E090E00E949005E0
:1020C00080918D0380939B0380918F03882309F473
:1020D000F0C080918E03882309F4EBC08FE00E944A
:1020E0000E0AF82E882309F43FC090E0A0E0B0E08B
:1020F0004AE0BC01CD010E945F0B65EF71E081EA0F
:1021000093E00E94370BF7FE04C088EF91E00E9435
:102110004C0BF6FE04C082E192E00E944C0BF5FEEF
:1021200004C08BE292E00E944C0BF4FE04C084E4F5
:1021300092E00E944C0BF3FE04C08CE592E00E94FA
:102140004C0BF2FE04C084E792E00E944C0BF1FEBF
:1021500004C08BE892E00E944C0BF0FEA6C084EA1B
:1021600092E00E944C0BA1C00E949E0A19821A8222
:102170001B8243E0BE016F5F7F4F8CE00E94D40959
:102180006981862F90E0A0E0B0E0BA2FA92F982FA8
:1021900088272A81822BBA2FA92F982F88272B8155
:1021A000822BA7FDBF6FBC01CD0125E095958795DA
:1021B000779567952A95D1F70E94E91320E030E0E2
:1021C00040E05CE30E9448146B017C0180909C031A
:1021D00090909D03A0909E03B0909F039B01AC0143
:1021E000C501B4010E94531520E030E040E85EE3F1
:1021F0000E9448149B01AC01C501B4010E94531513
:1022000060939C0370939D0380939E0390939F0320
:102210000E94B10A4AE00E945F0B6CEB72E081EA17
:1022200093E00E94370B0E949E0A19821A8242E0B4
:10223000BE016F5F7F4F8AE00E94D409898190E0E0
:10224000982F88272A81822BBC01990F880B990B24
:102250000E94E91320E030E040E85BE30E9448146C
:1022600042E00E94A20B6CEB72E081EA93E00E94D4
:10227000370B60919C0370919D0380919E03909118
:102280009F0342E00E94A20B6CEB72E081EA93E0B4
:102290000E94370B42E0C701B6010E94A20B65EF16
:1022A00071E081EA93E00E94370BF89410928E035C
:1022B00078940E94990008CECF93DF93EC0181EAD5
:1022C00096E09B878A876C874D873F872E8783E5BB
:1022D00091E0998388831B821A82CE010E94720842
:1022E0008FE591E09983888385E691E09D838C83D7
:1022F0008BE691E09F838E8381E791E099878887C1
:10230000DF91CF910895CF93DF93EC0181EA96E0BE
:102310009B878A876C874D873F872E8789E591E069
:10232000998388831B821A82CE010E94720887E7F4
:1023300091E0998388838DE791E09D838C8383E886
:1023400091E09F838E8389E891E099878887DF9168
:10235000CF910895CF92DF92EF92FF92CF93109298
:10236000A4031092A30398EEC92E93E0D92EE12C7A
:10237000F12CC092A503D092A603E092A703F0929D
:10238000A8038DE891E09093A2038093A10385ECCC
:1023900090E09093AE038093AD0384EC90E0909333
:1023A000B0038093AF0380EC90E09093B2038093EE
:1023B000B10381EC90E09093B4038093B30382EC7B
:1023C00090E09093B6038093B50386EC90E09093F1
:1023D000B8038093B7031092BA031092BB03109214
:1023E000BC031092BD0386E580933E04C1E0C09318
:1023F0003F048DE08093400488E0809343048CE0A8
:102400008093410489E08093420480E190E09093BE
:1024100045048093440481E190E0909347048093C5
:10242000460460E080E10E94280A61E080E10E94A9
:10243000790960E081E10E94280A61E081E10E945F
:10244000790983E0809348041092490410924A0469
:1024500010924B0410924C0410924D0410924E04B2
:1024600010924F04109250041092AD061092AC06D8
:10247000C092AE06D092AF06E092B006F092B106DE
:102480008FE991E09093AB068093AA061092C10663
:102490001092C0061092C3061092C2061092C50692
:1024A0001092C4061092C7061092C6068091C80604
:1024B0008E7F8D7F8093C80686958170682F6C27EC
:1024C0008BE00E94790961E08BE00E94280AEBE929
:1024D000F0E0E491E093BA06E7E8F0E0E491F0E0A0
:1024E000EE0FFF1FE859FF4F859194919093BC0622
:1024F0008093BB0660E08AE00E94280A8091C806AB
:1025000081FD04C061E08AE00E9479098AE080933D
:10251000B606EAE9F0E0E491E093B706E6E8F0E019
:10252000E491F0E0EE0FFF1FEE58FF4F859194917C
:102530009093B9068093B8068AEA96E09093A20633
:102540008093A10684EF91E0A0E0B0E08093A30621
:102550009093A406A093A506B093A60681E080936D
:10256000A7061092A9061092A80625ED32E042E0D7
:1025700060E081E996E00E945C1121ED32E043E0E9
:1025800060E081E896E00E945C1125EC32E044E0D6
:1025900060E081E796E00E945C1120EC32E04AE0C6
:1025A00061E081E496E00E945C1120EC32E04AE0B8
:1025B00062E081E596E00E945C1120EC32E04AE0A6
:1025C00063E081E696E00E945C1124EC32E047E093
:1025D00061E081E196E00E945C1124EC32E047E08A
:1025E00062E081E296E00E945C1124EC32E047E078
:1025F00063E081E396E00E945C1128EC32E049E060
:1026000061E081EE95E00E945C1128EC32E049E047
:1026100062E081EF95E00E945C1128EC32E049E035
:1026200063E081E096E00E945C112CEC32E048E02F
:1026300061E081EB95E00E945C112CEC32E048E017
:1026400062E081EC95E00E945C112CEC32E048E005
:1026500063E081ED95E00E945C1120ED32E046E000
:1026600061E081E895E00E945C1120ED32E046E0F7
:1026700062E081E995E00E945C1120ED32E046E0E5
:1026800063E081EA95E00E945C1124ED32E045E0D0
:1026900061E081E595E00E945C1124ED32E045E0C7
:1026A00062E081E695E00E945C1124ED32E045E0B5
:1026B00063E081E795E00E945C1129EC32E042E0A2
:1026C00061E081E295E00E94831129EC32E042E072
:1026D00062E081E395E00E94831129EC32E042E060
:1026E00063E081E495E00E94831128ED32E043E04D
:1026F00061E081EF94E00E945C1128ED32E043E05C
:1027000062E081E095E00E945C1128ED32E043E058
:1027100063E081E195E00E945C1125EE32E04BE040
:1027200061E081EC94E00E945C1125EE32E04BE028
:1027300062E081ED94E00E945C1125EE32E04BE016
:1027400063E081EE94E00E945C1125EC32E046E00B
:1027500064E081EB94E00E9483112DEC32E047E0CD
:1027600064E081EA94E00E94831121ED32E045E0CB
:1027700064E081E994E00E94831125ED32E044E0B9
:1027800064E081E894E00E94831129EC32E048E0A3
:1027900064E081E794E00E94831121EC32E049E09B
:1027A00064E081E694E00E94831123EF32E04AE086
:1027B00064E081E594E0CF91FF90EF90DF90CF90BF
:1027C0000C945C110E94241408F481E00895E894AC
:1027D00009C097FB3EF490958095709561957F4F69
:1027E0008F4F9F4F9923A9F0F92F96E9BB27939517
:1027F000F695879577956795B795F111F8CFFAF427
:10280000BB0F11F460FF1BC06F5F7F4F8F4F9F4F57
:1028100016C0882311F096E911C0772321F09EE8B5
:10282000872F762F05C0662371F096E8862F70E01B
:1028300060E02AF09A95660F771F881FDAF7880FF5
:102840009695879597F90895990F0008550FAA0B4B
:10285000E0E8FEEF16161706E807F907C0F01216B3
:102860001306E407F50798F0621B730B840B950BB6
:1028700039F40A2661F0232B242B252B21F408950B
:102880000A2609F4A140A6958FEF811D811D0895A8
:102890000E945B140C94CC140E94BE1438F00E9469
:1028A000C51420F0952311F00C94B5140C94BB14AE
:1028B00011240C9400150E94DD1470F3959FC1F350
:1028C000950F50E0551F629FF001729FBB27F00DDE
:1028D000B11D639FAA27F00DB11DAA1F649F662733
:1028E000B00DA11D661F829F2227B00DA11D621F82
:1028F000739FB00DA11D621F839FA00D611D221F3C
:10290000749F3327A00D611D231F849F600D211D1F
:10291000822F762F6A2F11249F5750409AF0F1F0A2
:1029200088234AF0EE0FFF1FBB1F661F771F881F0B
:1029300091505040A9F79E3F510580F00C94B5147A
:102940000C9400155F3FE4F3983ED4F38695779599
:102950006795B795F795E7959F5FC1F7FE2B880FB1
:10296000911D9695879597F9089597F99F6780E847
:1029700070E060E008959FEF80EC089500240A94D1
:102980001616170618060906089500240A9412164A
:102990001306140605060895092E0394000C11F47D
:1029A000882352F0BB0F40F4BF2B11F460FF04C02A
:1029B0006F5F7F4F8F4F9F4F089557FD9058440F83
:1029C000551F59F05F3F71F04795880F97FB991F8E
:1029D00061F09F3F79F0879508951216130614064B
:1029E000551FF2CF4695F1DF08C0161617061806D8
:1029F000991FF1CF86957105610508940895E894B3
:102A0000BB2766277727CB0197F90895F999FECF61
:102A100092BD81BDF89A992780B50895262FF9991E
:102A2000FECF1FBA92BD81BD20BD0FB6F894FA9AB1
:102A3000F99A0FBE019608952F923F924F925F929E
:102A40006F927F928F929F92AF92BF92CF92DF92BE
:102A5000EF92FF920F931F93CF93DF93CDB7DEB723
:102A6000CA1BDB0B0FB6F894DEBF0FBECDBF0994B7
:102A70002A88398848885F846E847D848C849B840E
:102A8000AA84B984C884DF80EE80FD800C811B811C
:102A9000AA81B981CE0FD11D0FB6F894DEBF0FBE4B
:102AA000CDBFED0108955058BB27AA270E946B1592
:102AB0000C94CC140E94BE1438F00E94C51420F06F
:102AC00039F49F3F19F426F40C94BB140EF4E095EE
:102AD000E7FB0C94B514E92F0E94DD1458F3BA17E4
:102AE000620773078407950720F079F4A6F50C9424
:102AF000FF140EF4E0950B2EBA2FA02D0B01B90197
:102B000090010C01CA01A0011124FF27591B99F063
:102B1000593F50F4503E68F11A16F040A22F232F6F
:102B2000342F4427585FF3CF469537952795A795BF
:102B3000F0405395C9F77EF41F16BA0B620B730B66
:102B4000840BBAF09150A1F0FF0FBB1F661F771FD7
:102B5000881FC2F70EC0BA0F621F731F841F48F48C
:102B6000879577956795B795F7959E3F08F0B0CF15
:102B70009395880F08F09927EE0F979587950895FC
:102B80000E94D4150C94CC140E94C51458F00E94D5
:102B9000BE1440F029F45F3F29F00C94B514511194
:102BA0000C9400150C94BB140E94DD1468F3992357
:102BB000B1F3552391F3951B550BBB27AA27621739
:102BC0007307840738F09F5F5F4F220F331F441F46
:102BD000AA1FA9F335D00E2E3AF0E0E832D091507A
:102BE0005040E695001CCAF72BD0FE2F29D0660F67
:102BF000771F881FBB1F261737074807AB07B0E8AA
:102C000009F0BB0B802DBF01FF2793585F4F3AF0AF
:102C10009E3F510578F00C94B5140C9400155F3F5D
:102C2000E4F3983ED4F3869577956795B795F79535
:102C30009F5FC9F7880F911D9695879597F908951D
:102C4000E1E0660F771F881FBB1F621773078407B9
:102C5000BA0720F0621B730B840BBA0BEE1F88F7C8
:102C6000E09508950E94E51488F09F5798F0B92FD9
:102C70009927B751B0F0E1F0660F771F881F991FB1
:102C80001AF0BA95C9F714C0B13091F00E94FF1440
:102C9000B1E008950C94FF14672F782F8827B85F50
:102CA00039F0B93FCCF3869577956795B395D9F709
:102CB0003EF490958095709561957F4F8F4F9F4F13
:102CC00008950E94241408F48FEF08950E9424149C
:102CD000880B990B089597FB072E16F4009407D0E4
:102CE00077FD09D00E94C01607FC05D03EF49095F0
:102CF00081959F4F0895709561957F4F0895A1E24A
:102D00001A2EAA1BBB1BFD010DC0AA1FBB1FEE1F65
:102D1000FF1FA217B307E407F50720F0A21BB30BB0
:102D2000E40BF50B661F771F881F991F1A9469F72C
:102D300060957095809590959B01AC01BD01CF0188
:102D40000895052E97FB1EF400940E94B81657FDB7
:102D500007D00E947F1607FC03D04EF40C94B816DF
:102D600050954095309521953F4F4F4F5F4F0895B7
:102D700090958095709561957F4F8F4F9F4F0895E7
:102D8000AA1BBB1B51E107C0AA1FBB1FA617B70791
:102D900010F0A61BB70B881F991F5A95A9F78095AD
:102DA0009095BC01CD010895EE0FFF1F0590F491A1
:102DB000E02D0994CF93DF938230910510F482E0E7
:102DC00090E0E091D406F091D50620E030E0C0E03C
:102DD000D0E0309711F14081518148175907C0F078
:102DE0004817590761F482819381209719F09B83DA
:102DF0008A832BC09093D5068093D40626C02115D4
:102E0000310519F04217530718F49A01BE01DF018A
:102E1000EF010280F381E02DDCCF2115310509F1AE
:102E2000281B390B2430310590F412968D919C911A
:102E300013976115710521F0FB019383828304C010
:102E40009093D5068093D406FD01329644C0FD01CF
:102E5000E20FF31F81939193225031092D933C93FC
:102E60003AC02091D2063091D306232B41F4209111
:102E70002D0130912E013093D3062093D20620915C
:102E80002B0130912C012115310541F42DB73EB7AE
:102E900040912F0150913001241B350BE091D20657
:102EA000F091D306E217F307A0F42E1B3F0B28176F
:102EB000390778F0AC014E5F5F4F2417350748F0B3
:102EC0004E0F5F1F5093D3064093D2068193919388
:102ED00002C0E0E0F0E0CF01DF91CF9108950F93C1
:102EE0001F93CF93DF93009709F48CC0FC013297B6
:102EF000138212820091D4061091D5060115110596
:102F000081F420813181820F931F2091D20630916C
:102F1000D3062817390779F5F093D306E093D20644
:102F200071C0D80140E050E0AE17BF0750F41296D0
:102F30002D913C911397AD012115310509F1D9016E
:102F4000F3CF9D01DA013383228360817181860F83
:102F5000971F8217930769F4EC0128813981260FA6
:102F6000371F2E5F3F4F318320838A819B8193835C
:102F70008283452B29F4F093D506E093D40642C012
:102F80001396FC93EE931297ED01499159919E018E
:102F9000240F351FE217F30771F480819181840FAC
:102FA000951F029611969C938E938281938113961E
:102FB0009C938E931297E0E0F0E0D80112968D91E9
:102FC0009C911397009719F0F8018C01F6CF8D9121
:102FD0009C9198012E5F3F4F820F931F2091D20644
:102FE0003091D3062817390769F4309729F41092E5
:102FF000D5061092D40602C0138212821093D30613
:103000000093D206DF91CF911F910F91089581E037
:1030100090E0F8940C94DD1AAEE0B0E0E2E1F8E163
:103020000C942A150D891E898F89988D26E02C8392
:103030001A83098397FF02C080E090E801979E837E
:103040008D83AE01455E5F4F698D7A8DCE0101960D
:103050000E945F184D815E8157FD0AC02F8138851F
:10306000421753070CF49A01F801E20FF31F108284
:103070002E96E4E00C944615AEE0B0E0E2E4F8E110
:103080000C942A150D891E8986E08C831A83098386
:103090008FEF9FE79E838D83AE01475E5F4F6F8901
:1030A000788DCE0101960E945F182F813885F80136
:1030B000E20FF31F10822E96E4E00C944615ACE06C
:1030C000B0E0E5E6F8E10C941C157C016B018A0187
:1030D000FC0117821682838181FFBDC1CE0101965A
:1030E0004C01F7019381F60193FD859193FF819146
:1030F0006F01882309F4ABC1853239F493FD8591C2
:1031000093FF81916F01853229F4B70190E00E940D
:10311000471AE7CF512C312C20E02032A0F48B321B
:1031200069F030F4803259F0833269F420612CC0A8
:103130008D3239F0803339F4216026C0226024605A
:1031400023C0286021C027FD27C030ED380F3A305A
:1031500078F426FF06C0FAE05F9E300D1124532E4E
:1031600013C08AE0389E300D1124332E20620CC02B
:103170008E3221F426FD6BC1206406C08C3611F41A
:10318000206802C0883641F4F60193FD859193FFD3
:1031900081916F018111C1CF982F9F7D95549330FC
:1031A00028F40C5F1F4FFFE3F9830DC0833631F025
:1031B000833771F0833509F05BC022C0F80180814C
:1031C00089830E5F1F4F44244394512C540115C032
:1031D0003801F2E06F0E711CF801A080B18026FF6B
:1031E00003C0652D70E002C06FEF7FEFC5012C8733
:1031F0000E943C1A2C0183012C852F77222E17C0A8
:103200003801F2E06F0E711CF801A080B18026FF3A
:1032100003C0652D70E002C06FEF7FEFC5012C8702
:103220000E94311A2C012C852068222E830123FC58
:103230001BC0832D90E048165906B0F4B70180E218
:1032400090E00E94471A3A94F4CFF50127FC85914B
:1032500027FE81915F01B70190E00E94471A31106B
:103260003A94F1E04F1A51084114510471F7E5C046
:10327000843611F0893639F5F80127FF07C06081DF
:103280007181828193810C5F1F4F08C060817181C1
:10329000072E000C880B990B0E5F1F4F2F76722E96
:1032A00097FF09C090958095709561957F4F8F4FDE
:1032B0009F4F2068722E2AE030E0A4010E947F1AFE
:1032C000A82EA81844C0853729F42F7EB22E2AE0F4
:1032D00030E025C0F22FF97FBF2E8F36C1F018F4F1
:1032E000883579F0B4C0803719F0883721F0AFC045
:1032F0002F2F2061B22EB4FE0DC08B2D8460B82E0E
:1033000009C024FF0AC09F2F9660B92E06C028E08E
:1033100030E005C020E130E002C020E132E0F801F9
:10332000B7FE07C060817181828193810C5F1F4F5E
:1033300006C06081718180E090E00E5F1F4FA401A4
:103340000E947F1AA82EA818FB2DFF777F2E76FEED
:103350000BC0372D3E7FA51450F474FE0AC072FCDA
:1033600008C0372D3E7E05C0BA2C372D03C0BA2CBD
:1033700001C0B52C34FF0DC0FE01EA0DF11D8081A6
:10338000803311F4397E09C032FF06C0B394B39480
:1033900004C0832F867809F0B39433FD13C030FF47
:1033A00006C05A2CB31418F4530C5B18B32CB31486
:1033B00068F4B70180E290E03C870E94471AB3941A
:1033C0003C85F5CFB31410F43B1801C0312C34FF09
:1033D00012C0B70180E390E03C870E94471A3C8509
:1033E00032FF17C031FD03C088E790E002C088E5D6
:1033F00090E0B7010CC0832F867859F031FF02C0EE
:103400008BE201C080E237FD8DE2B70190E00E94BF
:10341000471AA51438F4B70180E390E00E94471AD8
:103420005A94F7CFAA94F401EA0DF11D8081B701F7
:1034300090E00E94471AA110F5CF332009F451CE35
:10344000B70180E290E00E94471A3A94F6CFF70164
:103450008681978102C08FEF9FEF2C96E2E10C945A
:103460003815FC010590615070400110D8F7809527
:1034700090958E0F9F1F0895FC0161507040019040
:103480000110D8F7809590958E0F9F1F08950F9388
:103490001F93CF93DF93FB01238121FD03C08FEFA7
:1034A0009FEF28C022FF16C04681578124813581B5
:1034B0004217530744F4A081B1819D012F5F3F4F14
:1034C000318320838C93268137812F5F3F4F378351
:1034D000268310C0EB01092F182F0084F185E02D01
:1034E0000995892BE1F68E819F8101969F838E83BA
:1034F000812F902FDF91CF911F910F910895FA01A5
:10350000AA27283051F1203181F1E8946F936E7F22
:103510006E5F7F4F8F4F9F4FAF4FB1E03ED0B4E013
:103520003CD0670F781F891F9A1FA11D680F791F54
:103530008A1F911DA11D6A0F711D811D911DA11D65
:1035400020D009F468943F912AE0269F1124301975
:10355000305D3193DEF6CF010895462F4770405D10
:103560004193B3E00FD0C9F7F6CF462F4F70405DBF
:103570004A3318F0495D31FD4052419302D0A9F71A
:10358000EACFB4E0A6959795879577956795BA9514
:10359000C9F700976105710508959B01AC010A2EDA
:1035A00006945795479537952795BA95C9F7620FB1
:1035B000731F841F951FA01D089510E0C2E6D0E080
:1035C00004C0FE010E94D4162196C336D107C9F764
:0435D000F894FFCF9D
:1035D400000014005A006400F401C8002003000035
:1035E40005005A00C800F4019001B00400003C003A
:1035F40078000A003200C800F401010000D60680F9
:103604000000FF0100010000FFFF0000010001FFB6
:1036140000000000004D0101010A0A05050A00002E
:103624000000000A00000000000A0000000000067C
:1036340000FCFF00000400FAFF00000200F8FF0095
:10364400000A00000000000600FCFF00000400FA6D
:10365400FF00000200F8FF000000000000B1072591
:10366400097607F8078D008507990700000000BC5C
:103674000025094901BB0010012801A300747874D6
:103684000025732E25733D222573220073656E6415
:103694006D65002564682530326400256420B043DC
:1036A40000256420B0432F68004C75636966657219
:1036B40020696E697400626B636D643D31007061F2
:1036C40067652030000D0A00436F6C64204A756EF4
:1036D4006374696F6E2052616E6765204661756C14
:1036E4007400546865726D6F636F75706C652052F9
:1036F400616E6765204661756C7400436F6C64206D
:103704004A756E6374696F6E204869676820466104
:10371400756C7400436F6C64204A756E6374696FD2
:103724006E204C6F77204661756C74005468657226
:103734006D6F636F75706C652048696768204661BA
:10374400756C7400546865726D6F636F75706C6529
:10375400204C6F77204661756C74004F7665722F2C
:10376400556E64657220566F6C746167652046619E
:10377400756C7400546865726D6F636F75706C65F9
:10378400204F70656E204661756C7400203A2000ED
:1037940062743500627432006274340062743300FF
:1037A4006274310062743000627574746F6E5F739A
:1037B4007461727400627574746F6E5F726574758F
:1037C400726E00627574746F6E5F73746F70006EE6
:0C37D400616E00696E66006F7666000092
:00000001FF
