:100000000C9401010C9429010C9429010C94C00C4E
:100010000C94380D0C94C00C0C9429010C942901FB
:100020000C9429010C9429010C9429010C94B10C15
:100030000C9429010C9429010C9429010C94290198
:100040000C940F0C0C9429010C947F0C0C94590CFB
:100050000C9429010C9429010C9429010C94290178
:100060000C9429010C9429017374617274007265F7
:100070007475726E00696E6974206E657874696F4C
:100080006E20656E64004C75636966657220696EEA
:100090006974003B5463203A003B54203A003B48CB
:1000A000656174203A0074696D6520007374657031
:1000B0002046697665202121007374657020666F83
:1000C0007572202121007374657020546872656513
:1000D00020212100737465702054776F2021210046
:1000E000546865726D6F636F75706C65204F7065D5
:1000F0006E204661756C74004F7665722F556E6484
:10010000657220566F6C74616765204661756C740A
:1001100000546865726D6F636F75706C65204C6F0D
:1001200077204661756C7400546865726D6F636FFB
:1001300075706C652048696768204661756C74004D
:10014000436F6C64204A756E6374696F6E204C6FE8
:1001500077204661756C7400436F6C64204A756E3D
:100160006374696F6E2048696768204661756C74B6
:1001700000546865726D6F636F75706C65205261B5
:100180006E6765204661756C7400436F6C64204A2D
:10019000756E6374696F6E2052616E67652046618B
:1001A000756C740000000000240027002A00000085
:1001B0000008000201000003040700000000000026
:1001C00000000000000023002600290000000000BD
:1001D000250028002B000404040404040404020283
:1001E00002020202030303030303010204081020B6
:1001F0004080010204081020010204081020250E8E
:10020000C71711241FBECFEFD8E0DEBFCDBF26E059
:10021000AEEEB2E001C01D92A637B207E1F712E0E0
:10022000A0E0B1E0E0E9FDE302C005900D92AE3E32
:10023000B107D9F710E0C0E0D1E004C02197FE017A
:100240000E94BF1ACF3FD107C9F70E94CA100C9471
:10025000BB1E0C940000833081F028F4813099F0AB
:100260008230A9F008958730A9F08830C9F0843031
:10027000B1F4809180008F7D03C0809180008F77E2
:1002800080938000089584B58F7784BD089584B5E8
:100290008F7DFBCF8091B0008F778093B000089561
:1002A0008091B0008F7DF9CFCF93DF93282F30E07E
:1002B000F901E255FE4F8491F901E651FE4FD491C8
:1002C000F901EA52FE4FC491CC23A1F081110E94A2
:1002D0002B01EC2FF0E0EE0FFF1FEE53FE4FA59128
:1002E000B491EC91ED2381E090E009F480E0DF919E
:1002F000CF91089580E090E0FACF1F93CF93DF93E2
:10030000282F30E0F901E255FE4F8491F901E651C2
:10031000FE4FD491F901EA52FE4FC491CC23A9F0CB
:10032000162F81110E942B01EC2FF0E0EE0FFF1F22
:10033000E453FE4FA591B4918FB7F894EC9111114D
:1003400008C0D095DE23DC938FBFDF91CF911F9142
:100350000895DE2BF8CFEF92FF920F931F93CF9368
:10036000DF93909137049F3F71F48EBD00000DB470
:1003700007FEFDCFCEB58C2FDF91CF911F910F914E
:10038000FF90EF900895D82FC0E007E010E0EE2432
:10039000E394F12CCC0F60E0809137040E947D0142
:1003A000B701002E01C0660F0A94EAF76D23809111
:1003B00039040E947D0161E0809137040E947D0133
:1003C000809138040E945401892B09F0C1600150CA
:1003D000110900F7D0CFCF93DF9390E0FC01E651F5
:1003E000FE4F24918A529E4FFC0184918823D1F0C4
:1003F00090E0880F991FFC01EC55FE4FA591B49138
:10040000FC01E453FE4FC591D49161110EC09FB71A
:10041000F8948C91E22FE0958E238C932881E2232F
:10042000E8839FBFDF91CF9108958FB7F894EC9147
:10043000E22BEC938FBFF6CF3FB7F89480919603F1
:1004400090919703A0919803B091990326B5A89B2A
:1004500005C02F3F19F00196A11DB11D3FBFBA2F56
:10046000A92F982F8827BC01CD01620F711D811D16
:10047000911D42E0660F771F881F991F4A95D1F79B
:1004800008958F929F92AF92BF92CF92DF92EF9298
:10049000FF924B015C010E941C026B017C010E94D7
:1004A0001C026C197D098E099F09683E7340810505
:1004B0009105A8F321E0821A9108A108B10888EEFD
:1004C000C80E83E0D81EE11CF11C81149104A10424
:1004D000B10429F7FF90EF90DF90CF90BF90AF90DD
:1004E0009F908F900895CF92DF92EF92FF920F939B
:1004F0001F93CF93DF93EC016A017B0110E000E0D2
:100500002FB7F8948091920390919303A091940354
:10051000B09195032FBF88879987AA87BB87E88109
:10052000F9810284F385E02DCE01099597FF26C05D
:100530002FB7F8948091920390919303A091940324
:10054000B09195032FBF488559856A857B85841BAB
:10055000950BA60BB70B4C815D816E817F81841753
:100560009507A607B707D8F2C801DF91CF911F9171
:100570000F91FF90EF90DF90CF900895F701819356
:100580007F010F5F1F4FC016D10609F0B9CFECCF26
:10059000AF92BF92CF92DF92EF92FF920F931F9391
:1005A000CF93DF936C017B018B01040F151FEB01CF
:1005B0005E01AE18BF08C017D10759F06991D60186
:1005C000ED91FC910190F081E02DC6010995892BF8
:1005D00079F7C501DF91CF911F910F91FF90EF90B7
:1005E000DF90CF90BF90AF900895FC01538D448D64
:1005F000252F30E0842F90E0821B930B541710F0CE
:10060000CF96089501970895FC01918D828D9817DA
:1006100061F0A28DAE0FBF2FB11D5D968C91928DB2
:100620009F5F9F73928F90E008958FEF9FEF0895E3
:10063000FC01918D828D981731F0828DE80FF11DAC
:10064000858D90E008958FEF9FEF0895FC01918DC7
:10065000228D892F90E0805C9F4F821B91098F73C0
:10066000992708958AE993E00E94260321E0892BC7
:1006700009F420E0822F089580E090E0892B29F092
:100680000E94320381110C9400000895FC01A48D96
:10069000A80FB92FB11DA35ABF4F2C91848D90E0A4
:1006A00001968F739927848FA689B7892C93A08987
:1006B000B1898C91837080648C93938D848D981311
:1006C00006C00288F389E02D80818F7D80830895A4
:1006D000EF92FF920F931F93CF93DF93EC0181E092
:1006E000888F9B8D8C8D98131AC0E889F989808139
:1006F00085FF15C09FB7F894EE89FF896083E8896C
:10070000F98980818370806480839FBF81E090E05D
:10071000DF91CF911F910F91FF90EF900895F62EEA
:100720000B8D10E00F5F1F4F0F731127E02E8C8D84
:100730008E110CC00FB607FCFACFE889F9898081C9
:1007400085FFF5CFCE010E944603F1CFEB8DEC0F74
:10075000FD2FF11DE35AFF4FF0829FB7F8940B8FE6
:10076000EA89FB8980818062CFCF0F931F93CF935B
:10077000DF938C01D0E0C0E0F801EC0FFD1F649125
:10078000662341F08AE993E00E946803892B11F007
:100790002196F2CFCE01DF91CF911F910F91089555
:1007A000CF93DF93EC01888D8823B9F0AA89BB89A8
:1007B000E889F9898C9185FD03C0808186FD0DC093
:1007C0000FB607FCF7CF8C9185FFF2CF808185FFB4
:1007D000EDCFCE010E944603E9CFDF91CF9108957E
:1007E00020915C0330915D032817390771F49091D3
:1007F0005A0380915B03981741F0E0915A03F0E0AF
:10080000E65EFC4F808190E008958FEF9FEF0895A2
:100810000895EF92FF920F931F93CF93DF93DC0124
:100820005C96ED90FC905D97E114F10479F481E021
:1008300090E013969C938E93129790E080E0DF9166
:10084000CF911F910F91FF90EF9008955196ED91E8
:10085000FC91529750968C915097982F90950FB786
:100860005E962C915E97122F127021FD6095F89480
:100870002081112319F1282B2083E7012197F1F71B
:1008800028E0462F50E0308160FF1AC0382B3083BB
:10089000E7012197F1F7BA0175956795215089F71E
:1008A000112381F08081892380830FBF5C968D9115
:1008B0009C910197F1F781E090E0C1CF2923DCCF33
:1008C0003923E5CF9081892BEFCF20915C033091C4
:1008D0005D032817390771F480915B0320915A0357
:1008E00090E0805C9F4F821B910960E470E00E9461
:1008F0004F1A089590E080E0089520915C033091B4
:100900005D0328173907B9F490915A0380915B036E
:10091000981789F0E0915A03F0E0E65EFC4F808181
:1009200020915A0330E02F5F3F4F2F7333272093DE
:100930005A0390E008958FEF9FEF089590E080E0D4
:10094000089508958CBD9DBD08950F931F93CF9377
:10095000DF93D82F8B01C42F809137048F3FB9F4D8
:1009600080913B0490913C040E94A20460E080913D
:100970003A040E947D018D2F0E94AB01C15058F0B6
:100980008FEF0E94AB01F80181938F01F7CF61E0F7
:100990000E947D01EBCF61E080913A04DF91CF911D
:1009A0001F910F910C947D01CF93DF931F92CDB7D0
:1009B000DEB7198241E0BE016F5F7F4F0E94A50440
:1009C00089810F90DF91CF910895CF93DF93C62F48
:1009D000D82FD068809137048F3FC1F480913B04B9
:1009E00090913C040E94A20460E080913A040E942D
:1009F0007D018D2F0E94AB018C2F0E94AB0161E025
:100A000080913A04DF91CF910C947D0161E00E94C6
:100A10007D01EACF81E00E94D404807F682F63606B
:100A200081E00C94E504CF93DF9300D000D0CDB7E4
:100A3000DEB719821A821B821C8244E050E0BE019C
:100A40006F5F7F4FFC01808191810E9473028981D9
:100A5000813051F48A818F3F39F48B818F3F21F4AB
:100A600081E09C819F3F09F080E00F900F900F90F4
:100A70000F90DF91CF9108959B01DC011296ED91CB
:100A8000FC91309719F0BA01C9010994089527E043
:100A9000269FF001279FF00D1124E80FF91FEE0F9C
:100AA000FF1FE050FF4F2081318137FF02C01182CC
:100AB00010822EE0269FF001279FF00D1124E050B8
:100AC000FF4F2485358542855385241735072CF43F
:100AD0008530910511F4338722872EE0269FF0019F
:100AE000279FF00D1124E050FF4F22853385448568
:100AF00055854217530724F4069711F43587248748
:100B000008950F931F93CF93DF93EC018B0184E043
:100B100090E00E94C51A21E831E0FC013183208376
:100B2000138302839B838A8381E0DF91CF911F919E
:100B30000F910895CF93DF93EC0184E090E00E9441
:100B4000C51AFC01D183C08313821282E091510641
:100B5000F0915206309741F49093520680935106DB
:100B6000DF91CF910895F90122813381211531055B
:100B7000D1F793838283F4CFFB0101900020E9F742
:100B80003197AF01461B570BDC01ED91FC910280C0
:100B9000F381E02D09948F929F92AF92BF920F93B1
:100BA0001F93CF93DF93CDB7DEB7A1970FB6F8941D
:100BB000DEBF0FBECDBF19A2423008F44AE08E015D
:100BC0000F5D1F4F842E912CB12CA12CA5019401F7
:100BD0000E94631AE62FB901CA01EA3004F5E05D0C
:100BE000D801EE938D01232B242B252B79F790E050
:100BF00080E0109729F0BD018AE993E00E94BC05CE
:100C0000A1960FB6F894DEBF0FBECDBFDF91CF9196
:100C10001F910F91BF90AF909F908F900895E95CC6
:100C2000DFCFCF92DF92EF92FF92CF93DF936B01F2
:100C30007C016DE28AE993E00E946803EC0166277B
:100C40007727CB016C197D098E099F094AE00E9424
:100C5000CB058C0F9D1FDF91CF91FF90EF90DF9020
:100C6000CF900895BC01990F880B990B97FD0C94B8
:100C700011064AE00C94CB05CF93DF93BC01990F8A
:100C8000880B990B97FF0EC00E941106EC016DEACC
:100C900071E08AE993E00E94BC058C0F9D1FDF91F3
:100CA000CF9108954AE00E94CB05F0CFCF93DF9318
:100CB0004AE00E94CB05EC016DEA71E08AE993E01D
:100CC0000E94BC058C0F9D1FDF91CF910895CF939B
:100CD000DF93682F70E090E080E04AE00E94CB054F
:100CE000EC016DEA71E08AE993E00E94BC058C0F8B
:100CF0009D1FDF91CF910895019729F486E080939D
:100D00008D030C9467060895019729F485E080937C
:100D10008D030C9467060895019729F484E080936D
:100D20008D030C9467060895019729F483E080935E
:100D30008D030C9467060895019729F482E080934F
:100D40008D030C9467060895019729F481E0809340
:100D50008D030C9467060895CF93DF930E94B5032B
:100D6000EC016DEA71E08AE993E00E94BC058C0F0A
:100D70009D1FDF91CF910895CF93DF93BC018AE946
:100D800093E00E94BC05EC016DEA71E08AE993E012
:100D90000E94BC058C0F9D1FDF91CF9108950C948C
:100DA000BC050F931F93CF93DF93EC018B018E81D2
:100DB000882349F088819981DC01ED91FC910680BE
:100DC000F781E02D0995B801888199810E94CF06AD
:100DD00088819981DC01ED91FC910190F081E02DF9
:100DE0006FEF099588819981DC01ED91FC9101906B
:100DF000F081E02D6FEF099588819981DC01ED91FB
:100E0000FC910190F081E02D6FEFDF91CF911F9168
:100E10000F910994CF93DF9300D000D01F92CDB7EC
:100E2000DEB760EB71E08AE496E00E94D106BE0175
:100E30006F5F7F4F85E0FB0111928A95E9F745E0EE
:100E400050E080914A0690914B060E9473020597EC
:100E5000A9F48981863691F48B818F3F79F48C8156
:100E60008F3F61F48D818F3F49F48A810F900F90FD
:100E70000F900F900F90DF91CF91089580E0F6CF03
:100E8000CF92DF92EF92FF920F931F93CF93DF9356
:100E9000CDB7DEB78C01EDB6FEB6DC0114962C9111
:100EA000149715963C91F901DF010D900020E9F7A8
:100EB000CD018E1B9F0B0596EDB7FEB7E81BF90B16
:100EC0000FB6F894FEBF0FBEEDBF4DB75EB74F5FD4
:100ED0005F4F6A013F932F9327EB31E03F932F93AE
:100EE0009F938F93DF924F930E94EA1BB601D80124
:100EF0008D919C910E94D106F801808191810E9480
:100F000013052DB73EB7285F3F4F0FB6F8943EBF8D
:100F10000FBE2DBF0FB6F894FEBE0FBEEDBEDF9123
:100F2000CF911F910F91FF90EF90DF90CF90089598
:100F3000019791F410928D0310928E0360E085E08A
:100F40000E947D0110928F0384E496E00E94400786
:100F50008FEB91E00C94BC060895019791F41092E8
:100F60008D0310928E0360E085E00E947D01109257
:100F70008F0384E496E00E9440078EE690E00C9494
:100F8000AC060895CF92DF92EF92FF920F931F93DA
:100F9000CF93DF93CDB7DEB7EDB6FEB6DC01ED91B2
:100FA000FC91369700811181080F191FF801848187
:100FB0009581DC01FD0101900020E9F731979F0147
:100FC0002A1B3B0BFB0101900020E9F73197E61B40
:100FD000F70B2E0F3F1F265F3F4F4DB75EB7421BEB
:100FE000530B0FB6F8945EBF0FBE4DBFADB7BEB783
:100FF00011966D017F936F9344EC51E05F934F9393
:101000009F938F9388EC91E09F938F933F932F93BF
:10101000DF92AF930E94EA1BB601F80180819181B3
:101020000E94D106D8018D919C910E941305EDB7C5
:10103000FEB73C960FB6F894FEBF0FBEEDBF0FB6DD
:10104000F894FEBE0FBEEDBEDF91CF911F910F91C0
:10105000FF90EF90DF90CF9008956F927F928F92E4
:101060009F92AF92BF92CF92DF92EF92FF920F9337
:101070001F93CF93DF93CDB7DEB72A970FB6F894BF
:10108000DEBF0FBECDBF4B0181502EE0829FC0015D
:101090001124FC01E050FF4F7F01828193812CE3FA
:1010A000A22EB12CB5010E944F1A9F938F937F936C
:1010B0006F9333EDC32E31E0D32EDF92CF928E01AA
:1010C0000F5F1F4F1F930F930E941A1CB8018CE1F2
:1010D00095E00E94C207F70184819581B5010E94C5
:1010E0004F1A9F938F937F936F93DF92CF921F93AB
:1010F0000F930E941A1CB8018CE095E00E94C20771
:10110000F70183858F9382858F934BED642E41E0A9
:10111000742E7F926F921F930F930E941A1CB80136
:101120008CE295E00E94C207F70185858F93848544
:101130008F937F926F921F930F930E941A1CB80196
:101140008CE395E00E94C2070FB6F894DEBF0FBE95
:10115000CDBF8114910479F5F70186819781B5019E
:101160000E944F1A9F938F937F936F93DF92CF923A
:101170001F930F930E941A1CB8018CEC94E00E94FC
:10118000C2070FB6F894DEBF0FBECDBF2A960FB6CA
:10119000F894DEBF0FBECDBFDF91CF911F910F91AD
:1011A000FF90EF90DF90CF90BF90AF909F908F9087
:1011B0007F906F90089532E08316910439F7F7011C
:1011C00080859185B5010E944F1A9F938F937F93DD
:1011D0006F93DF92CF921F930F930E941A1CB80156
:1011E0008CEB94E0CCCFCF93DF93EC0188E396E0D7
:1011F0000E94400780918E03882329F0BE01DF9171
:10120000CF910C942D08DF91CF910895019709F0AB
:10121000B5C088E690E00E94AC0610928D0390E085
:1012200080E00E94F30880918E0390E0009709F41B
:10123000A2C001972EE0289FF001299FF00D1124F4
:10124000E050FF4F828193819093750380937403E4
:101250008481958190936D0380936C03868197813F
:101260009093770380937603808591859093EF0226
:101270008093EE028285938590937903809378031F
:101280008485958590936F0380936E032FB7F894B0
:101290008091920390919303A0919403B091950350
:1012A0002FBF8093800390938103A0938203B09318
:1012B000830310927B0310927A036DEA71E08AE94E
:1012C00093E00E94BC0560EE71E08AE993E00E9421
:1012D000CF06609180037091810380918203909189
:1012E00083030E9456066EEE71E08AE993E00E9445
:1012F000CF0680917803909179030E943C0668EFB5
:1013000071E08AE993E00E94CF0680917603909184
:1013100077030E943C0663E072E08AE993E00E9452
:10132000CF0680917403909175030E943C066DE096
:1013300072E08AE993E00E94CF0680916E0390915B
:101340006F030E943C0667E172E08AE993E00E9425
:10135000CF068091EE029091EF020E943C0662E27D
:1013600072E08AE993E00E94CF0680916C0390912D
:101370006D030E943C0681E080938F0308958230C4
:101380009105D9F02CF4009749F0019759F0089590
:1013900083309105F1F0049739F1089590E080E0F1
:1013A0000C94F30882E396E00E94400780918E033C
:1013B00061E070E081110BC008958CE296E00E941C
:1013C000400780918E038823B9F362E070E00C94AB
:1013D0002D0886E296E00E94400780918E0363E02C
:1013E00070E0882349F3F3CF80E296E00C94400745
:1013F000CF92DF92EF92FF920F931F93CF93DF93E1
:10140000CDB7DEB764970FB6F894DEBF0FBECDBF81
:101410007B016A019F938F938BED91E09F938F9354
:101420008E010F5F1F4F1F930F930E941A1CC7015D
:101430006CE370E00E944F1A9F938F937F936F939A
:1014400083ED91E09F938F937E018BE0E80EF11C7A
:10145000FF92EF920E941A1C0FB6F894DEBF0FBEE7
:10146000CDBFB80194E0C916D104C4F48CEF94E068
:101470000E94C207B7018CEE94E00E94C2076496F6
:101480000FB6F894DEBF0FBECDBFDF91CF911F9195
:101490000F91FF90EF90DF90CF90089580E694E059
:1014A000ECCF0F931F93CF93DF93F89427E0269F01
:1014B000E001279FD00D1124C80FD91FCC0FDD1FCD
:1014C0008E0100501F4FF8016081CE010E94E61886
:1014D000F8016181CE0101960E94E6187894DF91AF
:1014E000CF911F910F9108952F923F924F925F924B
:1014F0006F927F928F929F92AF92BF92CF92DF9224
:10150000EF92FF920F931F93CF93DF93CDB7DEB788
:1015100066970FB6F894DEBF0FBECDBF9E878D874E
:101520001B0121E0221A31082EE0229DC001239DDB
:10153000900D1124FC01E050FF4F5F019C012051F0
:101540003D4F3C872B87F12CE12C8E010F5F1F4F05
:10155000CF010296988B8F873496FA8BE98B950191
:101560002A5F3F4F3C8B2B8B06969E8B8D8B8CE39B
:10157000482E512C612C712C93EDC92E91E0D92E5F
:101580002CE3822E912CF501819191915F01EB85E5
:10159000FC8521913191FC87EB878217930729F411
:1015A0002D853E85232B09F450C033E0E316F1046A
:1015B00009F4AFC00CF06AC0F1E0EF16F10409F4D1
:1015C0007FC022E0E216F10409F492C0F5013297DF
:1015D00080819181EB85FC85329791838083EF85B3
:1015E000F88960817181E989FA8980819181680F28
:1015F000791FEB89FC8980819181680F791FED89C2
:10160000FE8980819181680F791F072E000C880B5D
:10161000990BA30192010E94851A7F936F933F93C8
:101620002F93DF92CF921F930F930E941A1CB80141
:101630008CE495E00E94C207B101C7010E94510AE3
:101640000FB6F894DEBF0FBECDBF3FEFE31AF30A2B
:1016500087E0E816F10409F096CF66960FB6F89485
:10166000DEBF0FBECDBFDF91CF911F910F91FF90D5
:10167000EF90DF90CF90BF90AF909F908F907F9032
:101680006F905F904F903F902F90089535E0E31654
:10169000F10409F460C00CF44DC0F6E0EF16F1045B
:1016A00009F094CF9F938F932BED31E03F932F93CD
:1016B0001F930F930E941A1CB80186EC95E058C046
:1016C000B4010E944F1A9F938F937F936F93DF9281
:1016D000CF921F930F930E941A1CB80186E795E0E2
:1016E0000E94C2070FB6F894DEBF0FBECDBF6ECF0B
:1016F000B4010E944F1A9F938F937F936F93DF9251
:10170000CF921F930F930E941A1CB80186EA95E0AE
:10171000E7CFB4010E944F1A9F938F937F936F93EB
:10172000DF92CF921F930F930E941A1CB80186E894
:1017300095E0D6CFB4010E944F1A9F938F937F9369
:101740006F93DF92CF921F930F930E941A1CB801E0
:1017500086E995E0C5CF9F938F938BED91E09F93A2
:101760008F931F930F930E941A1CB80186EB95E08C
:101770000E94C2070F900F900F900F900F900F9044
:1017800025CF0197B9F48CE292E00E94BC068EE36B
:1017900096E00E9440070E940A070E94670683E0C5
:1017A00080938E0310928D0363E070E081E090E0FF
:1017B0000C94740A08950197B9F483E392E00E94AF
:1017C000BC068EE396E00E9440070E940A070E9432
:1017D000670682E080938E0310928D0362E070E0D2
:1017E00081E090E00C94740A08950197B9F48DE3B8
:1017F00092E00E94BC068EE396E00E9440070E94A1
:101800000A070E94670681E080938E0310928D0381
:1018100061E070E081E090E00C94740A08951F92FA
:101820000F920FB60F9211242F933F938F939F9394
:10183000AF93BF938091920390919303A0919403EF
:10184000B09195033091910323E0230F2D3758F584
:101850000196A11DB11D2093910380939203909353
:101860009303A0939403B093950380919603909172
:101870009703A0919803B09199030196A11DB11D02
:101880008093960390939703A0939803B093990342
:10189000BF91AF919F918F913F912F910F900FBE6C
:1018A0000F901F90189526E8230F0296A11DB11DD9
:1018B000D2CF1F920F920FB60F9211242F933F9306
:1018C0004F935F936F937F938F939F93AF93BF9348
:1018D000EF93FF938AE993E00E944603FF91EF9113
:1018E000BF91AF919F918F917F916F915F914F9138
:1018F0003F912F910F900FBE0F901F9018951F9240
:101900000F920FB60F9211242F938F939F93EF9303
:10191000FF93E091AA03F091AB038081E091B003C3
:10192000F091B10382FD1BC090818091B3038F5F62
:101930008F732091B403821741F0E091B303F0E07C
:10194000E656FC4F958F8093B303FF91EF919F91E3
:101950008F912F910F900FBE0F901F90189580813F
:10196000F4CF1F920F920FB60F9211248F9381E044
:1019700080938A038F910F900FBE0F901F90189540
:101980001F920F920FB60F9211242F933F934F93F4
:101990005F936F937F938F939F93AF93BF93EF93D7
:1019A000FF93E0915C03F0915D03309749F0A685C9
:1019B000B7858585968D91FF14C09C918923A1F4EC
:1019C000FF91EF91BF91AF919F918F917F916F9117
:1019D0005F914F913F912F910F900FBE0F901F90ED
:1019E00018959C91892361F7A389B4899C91858975
:1019F000809589238C93868997890197F1F7608D6B
:101A0000718DA685B785558538E020E0CB0101971B
:101A1000F1F7822F90E095958795282F4C914523DB
:101A200009F02068315091F7868D81FD20958091D5
:101A30005B0390E001968F73992730915A03381712
:101A400099F0A0915B03B0E0A65EBC4F2C9380930D
:101A50005B03828D938D0197F1F7A389B4898C91F3
:101A60009589892B8C93ACCF868D8160868FF1CF41
:101A70001F920F920FB60F9211240F931F932F9363
:101A80003F934F935F936F937F938F939F93AF9306
:101A9000BF93EF93FF9380913D040E945401182F50
:101AA00080913F040E945401880F991F812BE0917F
:101AB00041048E17C9F194E0E902F0011124282FA6
:101AC000082E000C330BE22BF32BE359FE4F408121
:101AD000042E000C550B660B770B009142041091FD
:101AE00043042091440430914504400F511F621F6C
:101AF000731F4093420450934304609344047093D3
:101B00004504833079F492E075956795579547952C
:101B10009A95D1F740934604509347046093480444
:101B20007093490480934104FF91EF91BF91AF916D
:101B30009F918F917F916F915F914F913F912F91E5
:101B40001F910F910F900FBE0F901F9018950F933C
:101B50001F93CF93DF93EC018AE496E099878887FF
:101B600082E08A872B871D870C878DE391E099831C
:101B700088831B821A82CE010E949A0581E691E039
:101B80009983888387E691E09D838C838DE691E03D
:101B90009F838E83DF91CF911F910F9108950F93B3
:101BA0001F93CF93DF93EC018AE496E09B878A87AB
:101BB0004C872D871F870E8787E391E09983888361
:101BC0001B821A82CE010E949A0589E491E09983D2
:101BD00088838FE491E09D838C8385E591E09F83EA
:101BE0008E838BE591E099878887DF91CF911F9154
:101BF0000F9108950F931F93CF93DF93EC018AE425
:101C000096E09B878A874C872D871F870E8787E3FF
:101C100091E0998388831B821A82CE010E949A05E3
:101C200089E491E0998388838FE491E09D838C839C
:101C300085E591E09F838E838BE591E09987888786
:101C4000DF91CF911F910F910895CF92DF92EF9284
:101C5000FF920F931F93CF93DF9310929D031092E7
:101C60009C0328EEC22E23E0D22EE12CF12CC09250
:101C70009E03D0929F03E092A003F092A1038DE80F
:101C800091E090939B0380939A0385EC90E090936E
:101C9000A7038093A60384EC90E09093A90380931C
:101CA000A80380EC90E09093AB038093AA0381ECAF
:101CB00090E09093AD038093AC0382EC90E090931E
:101CC000AF038093AE0386EC90E09093B1038093D2
:101CD000B0031092B3031092B4031092B5031092A4
:101CE000B6038DE08093370488E080933A048CE05B
:101CF0008093380489E08093390486E580933B041F
:101D0000C1E0C0933C0480E190E090933E04809356
:101D10003D0481E190E09093400480933F0460E0B3
:101D200080E10E94EB0161E080E10E947D0160E0C2
:101D300081E10E94EB0161E081E10E947D0183E08D
:101D40008093410410924204109243041092440480
:101D500010924504109246041092470410924804D1
:101D6000109249041092560610925506C0925706DA
:101D7000D0925806E0925906F0925A068FE991E007
:101D8000909354068093530610926A061092690647
:101D900010926C0610926B0610926E0610926D06F1
:101DA0001092700610926F06809171068E7F8D7F63
:101DB0008093710681FB662760F96C278BE00E9497
:101DC0007D0161E08BE00E94EB01E5EFF1E0E49141
:101DD000E0936306E1EEF1E0E491F0E0EE0FFF1F27
:101DE000E453FE4F85919491909365068093640629
:101DF00060E08AE00E94EB018091710681FD04C0E1
:101E000061E08AE00E947D018AE0E82EE0925F06B0
:101E1000E4EFF1E0E491E0936006E0EEF1E0E491BC
:101E2000F0E0EE0FFF1FEE53FE4F859194919093DB
:101E3000620680936106CAE4D6E083E596E090935B
:101E40004B0680934A0684EF91E0A0E0B0E08093D7
:101E50004C0690934D06A0934E06B0934F06FF2478
:101E6000F394F09250061092520610925106D093BD
:101E70004506C0934406109246061092470687E432
:101E800092E09093490680934806D0933F06C09312
:101E90003E06F0924006109241068FE492E0909345
:101EA000430680934206D0933906C093380682E0F9
:101EB00080933A0610923B068BE592E090933D06A4
:101EC00080933C06D0933306C093320683E0809320
:101ED00034061092350682E692E09093370680939E
:101EE0003606D0932D06C0932C0684E080932E06F0
:101EF00010922F068FE692E0909331068093300681
:101F0000D0932706C093260685E08093280610927A
:101F1000290686E792E090932B0680932A06D093B9
:101F20002106C093200686E08093220610922306A5
:101F300083E892E0909325068093240608E912E056
:101F400022E040E0BE0180E196E00E94CF0D0CE966
:101F500012E023E040E0BE0180E096E00E94CF0D59
:101F600000EA12E024E040E0BE0180EF95E00E942C
:101F7000CF0D08EA12E026E040E0BE0180EE95E0D9
:101F80000E94FA0D0AE812E022E041E0BE0180ED75
:101F900095E00E94CF0D07E912E024E041E0BE0188
:101FA00080EC95E00E94CF0D0BE912E025E041E0C6
:101FB000BE0180EB95E00E94CF0D0FE912E026E014
:101FC00041E0BE0180EA95E00E94CF0D03EA12E0F5
:101FD00027E041E0BE0180E995E00E94CF0D07EACD
:101FE00012E028E041E0BE0180E895E00E94CF0DBC
:101FF0000BEA12E029E041E0BE0180E795E00E9493
:10200000CF0DD0936B05C0936A05F0926C05E092FA
:102010006D058FEA92E090936F0580936E0583E4DF
:1020200091E0909367058093660510926905109280
:10203000680586E695E00E949A0583E491E0909316
:1020400067058093660508EA12E02BE041E0BE01D7
:1020500086E595E00E94FA0D0CE912E02DE041E0E2
:10206000BE0186E495E00E94FA0D08E912E021E045
:1020700042E0BE0186E395E00E94FA0D0CE912E011
:1020800022E042E0BE0186E295E00E94FA0D00EAFD
:1020900012E023E042E0BE0186E195E00E94FA0DE5
:1020A00004EA12E024E042E0BE0186E095E00E94EE
:1020B000FA0D08EA12E025E042E0BE0186EF94E066
:1020C0000E94FA0D0CEA12E026E042E0BE0186EE24
:1020D00094E00E94FA0D0DEB12E027E042E0BE0111
:1020E00086ED94E00E94CF0D00EC12E028E042E083
:1020F000BE0186EC94E00E94FA0D03EC12E029E0A8
:1021000042E0BE0186EB94E00E94FA0D06EC12E07C
:102110002BE042E0BE0188EA94E00E94A70D0BECA0
:1021200012E02AE042E0BE018AE994E00E94A70D95
:102130000DEB12E027E043E0BE018AE894E00E9444
:10214000CF0D27E044E0BE018AE794E00E94CF0D66
:1021500027E045E0BE018AE694E00E94CF0D08EA40
:1021600012E021E046E0BE018AE594E00E94FA0D0B
:102170000CE912E022E046E0BE018AE494E00E940D
:10218000CF0DDF91CF911F910F91FF90EF90DF90D6
:10219000CF900895CF93DF93CDB7DEB72A970FB6D0
:1021A000F894DEBF0FBECDBF789484B5826084BD45
:1021B00084B5816084BD85B5826085BD85B581604B
:1021C00085BD80916E00816080936E0010928100C9
:1021D0008091810082608093810080918100816084
:1021E0008093810080918000816080938000809145
:1021F000B10084608093B1008091B00081608093D1
:10220000B00080917A00846080937A0080917A0097
:10221000826080937A0080917A00816080937A0056
:1022200080917A00806880937A001092C100E091DA
:10223000AA03F091AB0382E08083E091A603F091C2
:10224000A7031082E091A803F091A90380E18083A5
:102250001092B203E091AE03F091AF0386E0808369
:10226000E091AC03F091AD03808180618083E091C7
:10227000AC03F091AD03808188608083E091AC0372
:10228000F091AD03808180688083E091AC03F09190
:10229000AD0380818F7D808386E890E00E94AC064C
:1022A00090E080E00E94DE18F12CE12C853A09F0E4
:1022B00036C2912C812CD12CC12C7401B12CA12CB3
:1022C000F894C7010E94DE18782EC70101960E947B
:1022D000DE18F701E050FF4F90E0982F8827870D18
:1022E000911D918380837894B601C5010E944705B2
:1022F0002FEFA21AB20A32E0E30EF11C47E0A41657
:10230000B104F1F65FEFC51AD50A6EE0860E911C96
:1023100083E0C816D10489F610926E0610926D06FD
:1023200010926C0610926B0610926A061092690663
:102330008DEC90E09093700680936F0690915F060D
:10234000963108F047C025E530E030936A062093C7
:1023500069062BEC30E030936C0620936B0620E985
:1023600030E030936E0620936D062091680084E083
:10237000983048F031E09E3008F430E081E001C050
:10238000880F3A95EAF7822B809368002DE630E0BB
:10239000983050F02BE630E09E3030F02CE630E004
:1023A000963110F030E020E0309367062093660607
:1023B000292F30E0983008F0CCC181E001C0880FAF
:1023C0009A95EAF78093680680916F06909170065F
:1023D0000197F1F780916D0690916E06892B49F176
:1023E000E0915C03F0915D0326E0E335F20709F12B
:1023F000309739F0A389B4899C9185898095892388
:102400008C93809171068E7F8093710610925B038E
:1024100010925A0383E596E090935D0380935C03EA
:10242000E0916606F0916706808190916806892B9D
:1024300080836FEA71E08AE496E00E94D10661ED44
:1024400072E08AE496E00E94D1068AE496E00E9457
:10245000130569ED72E08AE496E00E94D1068AE4F1
:1024600096E00E94130565EF7BE080E196E00E9414
:1024700081056BED7BE080E096E00E94810561ECD8
:102480007BE080EF95E00E94810564EA76E080E7DA
:1024900095E00E9481056CE976E080EA95E00E9473
:1024A000810564E976E080E895E00E9481056CE8AA
:1024B00076E080E995E00E94810564E876E080EBB3
:1024C00095E00E9481056CE776E080EC95E00E9443
:1024D000810566E079E080ED95E00E9481056DEA76
:1024E00077E086E695E00E94810568E977E086ED71
:1024F00094E00E94810568E977E08AE894E00E9410
:10250000810568E977E08AE794E00E94810568E93F
:1025100077E08AE694E00E94810568E977E08AE442
:1025200094E00E94810585E790E00E94AC068091CE
:10253000680082608093680080916C008C6080935A
:102540006C0061E080913A040E94EB0161E08091AF
:102550003A040E947D01809137048F3F09F406C13F
:1025600061E00E94EB0161E0809139040E94EB017F
:1025700060E0809138040E94EB0160E082E00E94FC
:10258000E50460E180E00E94E5040E940A050E94E3
:102590000A0580E00E94D404682F616080E00E94F8
:1025A000E504F8941092800010928100109285004A
:1025B0001092840088E09DE39093890080938800C6
:1025C0008091810088608093810080918100856086
:1025D0008093810080916F00826080936F00789477
:1025E00061E087E00E94EB0161E085E00E94EB0181
:1025F000AE014F5F5F4F1A0180914A0690914B06E2
:10260000DC01ED91FC910084F185E02D099518160F
:1026100019060CF0EEC080914A0690914B06DC0141
:10262000ED91FC910284F385E02D0995F82EB5E635
:102630008B13E2CF6AE070E080E090E00E944102FC
:1026400080914A0690914B06DC01ED91FC9100844B
:10265000F185E02D099506977CF2F0925F03B0E6D4
:10266000EB2EB3E0FB2E80914A0690914B06DC01E5
:10267000ED91FC910284F385E02D0995F70181939A
:102680007F0126E633E02E173F0769F710926603B5
:10269000809163038F3F09F0AFCF809164038F3F38
:1026A00009F0AACF809165038F3F09F0A5CFE09094
:1026B0005106F0905206E114F10409F49DCFD701C0
:1026C0004D915C91DA01ED91FC9111973697019053
:1026D000F081E02DE40FF51F909160038281981343
:1026E0001AC0909161038381981315C08091620391
:1026F000882309F46FC0813071F412968D919C91FA
:10270000009749F0DC01ED91FC910190F081E02D02
:1027100061E070E00995F701E280F380CCCFD12C25
:10272000C12CB701C6010E94510A9FEFC91AD90AEC
:10273000A7E0CA16D104A9F7BFEFEB1AFB0AE3E042
:10274000EE16F10461F765EA90E080E00E94E61879
:10275000E3CD9E3040F42850310981E001C0880F5C
:102760002A95EAF72FCE2E503109F7CFFFB6F8940D
:1027700080915E03811127C0E0EEF1E08491E4EFE7
:10278000F1E09491E82FF0E0EE0FFF1FEC55FE4FC3
:10279000A591B491EC91E92321F461E08AE00E94D3
:1027A0007D0161E08AE00E94EB018CB580618CBD07
:1027B0008CB580648CBD61E08DE00E94EB0161E02E
:1027C0008BE00E94EB0180915E038F5F80935E033C
:1027D000FFBED3CEFA0182819381009709F49BCF8B
:1027E000DC01ED91FC910190F081E02D70E060E062
:1027F00091CF60919003F1E06F276093900387E0A1
:102800000E947D0180918F03882309F4A2C28091E8
:102810008A03882309F4D2C08091840390918503B0
:102820000A9690938503809384032FB7F894609160
:1028300092037091930380919403909195032FBF1D
:10284000C0908003D0908103E0908203F0908303D6
:102850006C197D098E099F0960937C0370937D0339
:1028600080937E0390937F03E0907A03F0907B0344
:1028700020E63AEE40E050E00E94631AB901A70159
:1028800080918403909185030E94F80980917A03D6
:1028900090917B038230910509F479C10CF09BC0C3
:1028A000009709F4A2C0019709F42CC18091840318
:1028B00090918503081719070CF03FC21092670327
:1028C00086EA90E00E94B50360917C0370917D03DD
:1028D00080917E0390917F034AE00E94CB058EE9B0
:1028E00090E00E94B5038091670390E00E94320659
:1028F00089E990E00E94B50380918403909185035B
:102900000E94320683E990E00E94B503C8010E944C
:102910003C0690906703692D85E00E947D01E0915F
:10292000A004F091A104369780819181DC01A0562A
:10293000BB4F7D01ADB6BEB614962C91149715967B
:102940003C91F901DF010D900020E9F7CD018E1BCC
:102950009F0B0A96EDB7FEB7E81BF90B0FB6F8947C
:10296000FEBF0FBEEDBF4DB75EB74F5F5F4F6A0151
:102970001F921F921F929F92A0EEB2E0BF93AF935F
:102980003F932F9324EE32E03F932F939F938F93A7
:10299000DF92CF920E94EA1BB601D7018D919C91E4
:1029A0000E94D106F701808191810E9413050FB624
:1029B000F894BEBE0FBEADBE10928A0340E050E058
:1029C000452B09F419CE0E943203882309F414CE52
:1029D0000E94000011CE8330910509F46BC1049769
:1029E00009F064CF1092670361CFE0907803F09014
:1029F000790380907C0390907D03A0907E03B0903B
:102A00007F03B7010F2C000C880B990B0E94E51770
:102A10002B013C01C501B4010E94E3179B01AC01ED
:102A2000C301B2010E9420182B013C016091760382
:102A300070917703072E000C880B990B0E94E51705
:102A400020E030E64AE657E40E9420189B01AC01E2
:102A5000C301B2010E94A7190E94191A625E7F4F3A
:102A600087016E157F050CF48B0180918403909192
:102A70008503E816F9060CF019CFA0917403B09104
:102A8000750320E63AEE0E94A41A860E971EA81E31
:102A9000B91E8092700390927103A0927203B0925B
:102AA000730381E090E090937B0380937A030E940C
:102AB000BF09E0907A03F0907B0360917C037091F2
:102AC0007D0380917E0390917F0320E63AEE40E003
:102AD00050E00E94631AB901A7018091840390918C
:102AE00085030E94F80984ED90E00E94B50360918F
:102AF00070037091710380917203909173030E942F
:102B00005606D4CE009178031091790340917C034E
:102B100050917D0360917E0370917F0380917003DB
:102B200090917103A0917203B0917303841795077C
:102B3000A607B70708F0BACE22E030E030937B0357
:102B400020937A0386EC90E00E94AC0680917A0391
:102B500090917B030E94BF09E0907A03F0907B0381
:102B600060917C0370917D0380917E0390917F033F
:102B700020E63AEE40E050E00E94631AB901A70156
:102B800080918403909185030E94F8098FCEE09094
:102B90006E03F0906F030091780310917903809099
:102BA0007C0390907D03A0907E03B0907F03B701DB
:102BB000601B710B072E000C880B990B0E94E51708
:102BC0002B013C01C501B4010E94E3179B01AC013C
:102BD000C301B2010E9420182B013C0160917603D1
:102BE00070917703072E000C880B990B0E94E51754
:102BF00020E030E64AE657E40E9420189B01AC0131
:102C0000C301B2010E94A7190E94191A600F711F17
:102C100087016E157F050CF48B01809184039091E0
:102C20008503E816F9060CF041CEA0916C03B09133
:102C30006D0320E63AEE0E94A41A860E971EA81E87
:102C4000B91E8092680390926903A0926A03B092C1
:102C50006B0343E050E050937B0340937A0383E09F
:102C600090E00E94BF09E0907A03F0907B036091AE
:102C70007C0370917D0380917E0390917F0320E619
:102C80003AEE40E050E00E94631AB901A70180913A
:102C90008403909185030E94F80989EB90E00E94DB
:102CA000B503609168037091690380916A03909104
:102CB0006B0325CF00916E0310916F0340917C034D
:102CC00050917D0360917E0370917F038091680332
:102CD00090916903A0916A03B0916B0384179507E3
:102CE000A607B70708F0E2CD84E090E090937B035D
:102CF00080937A0380E296E00E944007E0907A0396
:102D0000F0907B0360917C0370917D0380917E0342
:102D100090917F0320E63AEE40E050E00E94631A73
:102D2000B901A70180918403909185030E94F8095D
:102D30008CEA90E00E94AC06B9CD801791070CF0A8
:102D4000BFCD181619060CF0BBCD91E09093670328
:102D5000B7CDE0908E03F12CE114F10409F44DC0DD
:102D600080918D03B70161507109409146045091E3
:102D7000470490912A01992331F050938C0340939A
:102D80008B0310922A0190E09C01215031092630DA
:102D9000310508F073C02D573E4FD9012C91022EFA
:102DA000000C330BA7E0A69FF001A79FF00D1124A4
:102DB000E80FF91FEE0FFF1FE050FF4FA0918B03AC
:102DC000B0918C036A01CA1ADB0AC29ED001C39E6D
:102DD000B00DD29EB00D112420813181A20FB31FFE
:102DE000B183A08350938C0340938B030E944705CB
:102DF000B70190E080E00E94740A80918A038823E2
:102E000009F4DCCD8FE00E94D404F82E8823C9F1A8
:102E10000E946706F7FE04C08AE891E00E94AC06B3
:102E2000F6FE04C081E791E00E94AC06F5FE04C006
:102E300088E591E00E94AC06F4FE04C080E491E0D5
:102E40000E94AC06F3FE04C088E291E00E94AC064A
:102E5000F2FE04C081E191E00E94AC06F1FE04C0E4
:102E600088EF90E00E94AC06F0FE04C080EE90E097
:102E70000E94AC06C12CD12C760163C030E020E06A
:102E800091CF60E089E00E94E50480E00E94D404D4
:102E90008F77682F606480E00E94E5046AEF70E03D
:102EA00080E090E00E94410219821A821B8243E076
:102EB000B1018CE00E94A50469817A817627672799
:102EC0007627CB01B0E0A0E0BA2FA92F982F882752
:102ED0002B81822BA7FDBF6FBC01CD0125E095950D
:102EE0008795779567952A95D1F70E94E517C09049
:102EF0008603D0908703E0908803F090890320E058
:102F000030E040E05CE30E9420189B01AC01C70167
:102F1000B6010E943A1920E030E040E85EE30E94EA
:102F200020189B01AC01C701B6010E943A196B0140
:102F30007C01C0928603D0928703E0928803F092CE
:102F400089030E940A07B82EC701B6010E94191A08
:102F50007F936F93EBEDF1E0FF93EF933F922F920E
:102F60000E941A1C0F900F900F900F900F900F90CF
:102F7000BB2039F031E0B3121FCDB1018CE595E0F3
:102F800003C0B10186EE95E00E94C20715CD8FE91E
:102F900091E0909354068093530680915C03909146
:102FA0005D038355964071F4E0916606F0916706E3
:102FB00090818091680680958923808310925D03BB
:102FC00010925C030895E89409C097FB3EF4909535
:102FD0008095709561957F4F8F4F9F4F9923A9F0F2
:102FE000F92F96E9BB279395F69587957795679581
:102FF000B795F111F8CFFAF4BB0F11F460FF1BC0C5
:103000006F5F7F4F8F4F9F4F16C0882311F096E957
:1030100011C0772321F09EE8872F762F05C0662305
:1030200071F096E8862F70E060E02AF09A95660FBE
:10303000771F881FDAF7880F9695879597F9089577
:103040000E9433180C94A4180E94961838F00E941D
:103050009D1820F0952311F00C948D180C94931862
:1030600011240C94D8180E94B51870F3959FC1F3E1
:10307000950F50E0551F629FF001729FBB27F00D26
:10308000B11D639FAA27F00DB11DAA1F649F66277B
:10309000B00DA11D661F829F2227B00DA11D621FCA
:1030A000739FB00DA11D621F839FA00D611D221F84
:1030B000749F3327A00D611D231F849F600D211D68
:1030C000822F762F6A2F11249F5750409AF0F1F0EB
:1030D00088234AF0EE0FFF1FBB1F661F771F881F54
:1030E00091505040A9F79E3F510580F00C948D18E7
:1030F0000C94D8185F3FE4F3983ED4F38695779507
:103100006795B795F795E7959F5FC1F7FE2B880FF9
:10311000911D9695879597F9089597F99F6780E88F
:1031200070E060E008959FEF80EC089500240A9419
:103130001616170618060906089500240A94121692
:103140001306140605060895092E0394000C11F4C5
:10315000882352F0BB0F40F4BF2B11F460FF04C072
:103160006F5F7F4F8F4F9F4F089557FD9058440FCB
:10317000551F59F05F3F71F04795880F97FB991FD6
:1031800061F09F3F79F08795089512161306140693
:10319000551FF2CF4695F1DF08C016161706180620
:1031A000991FF1CF86957105610508940895E894FB
:1031B000BB2766277727CB0197F90895F999FECFAA
:1031C00092BD81BDF89A992780B50895262FF99967
:1031D000FECF1FBA92BD81BD20BD0FB6F894FA9AFA
:1031E000F99A0FBE019608952F923F924F925F92E7
:1031F0006F927F928F929F92AF92BF92CF92DF9207
:10320000EF92FF920F931F93CF93DF93CDB7DEB76B
:10321000CA1BDB0B0FB6F894DEBF0FBECDBF0994FF
:103220002A88398848885F846E847D848C849B8456
:10323000AA84B984C884DF80EE80FD800C811B8164
:10324000AA81B981CE0FD11D0FB6F894DEBF0FBE93
:10325000CDBFED010895A29FB001B39FC001A39F10
:10326000700D811D1124911DB29F700D811D1124BF
:10327000911D08955058BB27AA270E9452190C94FB
:10328000A4180E94961838F00E949D1820F039F476
:103290009F3F19F426F40C9493180EF4E095E7FB85
:1032A0000C948D18E92F0E94B51858F3BA176207CD
:1032B00073078407950720F079F4A6F50C94D718C6
:1032C0000EF4E0950B2EBA2FA02D0B01B901900141
:1032D0000C01CA01A0011124FF27591B99F0593F85
:1032E00050F4503E68F11A16F040A22F232F342FCD
:1032F0004427585FF3CF469537952795A795F0401B
:103300005395C9F77EF41F16BA0B620B730B840B2F
:10331000BAF09150A1F0FF0FBB1F661F771F881FE7
:10332000C2F70EC0BA0F621F731F841F48F487953F
:1033300077956795B795F7959E3F08F0B0CF939531
:10334000880F08F09927EE0F9795879508950E94AA
:10335000BB190C94A4180E949D1858F00E9496184E
:1033600040F029F45F3F29F00C948D1851110C9412
:10337000D8180C9493180E94B51868F39923B1F3E8
:10338000552391F3951B550BBB27AA27621773078B
:10339000840738F09F5F5F4F220F331F441FAA1F1F
:1033A000A9F335D00E2E3AF0E0E832D091505040DB
:1033B000E695001CCAF72BD0FE2F29D0660F771F89
:1033C000881FBB1F261737074807AB07B0E809F06F
:1033D000BB0B802DBF01FF2793585F4F3AF09E3FF4
:1033E000510578F00C948D180C94D8185F3FE4F3D5
:1033F000983ED4F3869577956795B795F7959F5F37
:10340000C9F7880F911D9695879597F90895E1E082
:10341000660F771F881FBB1F621773078407BA07E1
:1034200020F0621B730B840BBA0BEE1F88F7E0953C
:1034300008950E94201A6894B1110C94D818089528
:103440000E94BD1888F09F5798F0B92F9927B7515F
:10345000B0F0E1F0660F771F881F991F1AF0BA9538
:10346000C9F714C0B13091F00E94D718B1E00895A7
:103470000C94D718672F782F8827B85F39F0B93F99
:10348000CCF3869577956795B395D9F73EF49095EB
:103490008095709561957F4F8F4F9F4F089597FB53
:1034A000072E16F4009407D077FD09D00E94AB1ABE
:1034B00007FC05D03EF4909581959F4F0895709537
:1034C00061957F4F0895A1E21A2EAA1BBB1BFD0137
:1034D0000DC0AA1FBB1FEE1FFF1FA217B307E407F3
:1034E000F50720F0A21BB30BE40BF50B661F771F4B
:1034F000881F991F1A9469F760957095809590952B
:103500009B01AC01BD01CF010895052E97FB1EF470
:1035100000940E949C1A57FD07D00E94631A07FC72
:1035200003D04EF40C949C1A5095409530952195FB
:103530003F4F4F4F5F4F08959095809570956195DF
:103540007F4F8F4F9F4F08950E942B19B7FF08950B
:10355000821B930B0895AA1BBB1B51E107C0AA1F36
:10356000BB1FA617B70710F0A61BB70B881F991F24
:103570005A95A9F780959095BC01CD010895EE0F5D
:10358000FF1F0590F491E02D09940F931F93CF93A3
:10359000DF938230910510F482E090E0E0917406B0
:1035A000F091750630E020E0B0E0A0E0309799F4AB
:1035B0002115310509F44AC0281B390B2430310587
:1035C000D8F58A819B816115710589F1FB0193838F
:1035D0008283FE0111C0408151810281138148170D
:1035E0005907E0F04817590799F4109761F01296BF
:1035F0000C93129713961C933296CF01DF91CF91C3
:103600001F910F9108950093740610937506F4CFDF
:103610002115310551F04217530738F0A901DB019C
:103620009A01BD01DF01F801C1CFEF01F9CF9093FD
:10363000750680937406CDCFFE01E20FF31F8193D0
:1036400091932250310939832883D7CF2091720674
:1036500030917306232B41F420912D0130912E01DE
:10366000309373062093720620912B0130912C0128
:103670002115310541F42DB73EB740912F015091EE
:103680003001241B350BE0917206F0917306E217AE
:10369000F307A0F42E1B3F0B2817390778F0AC0175
:1036A0004E5F5F4F2417350748F04E0F5F1F509352
:1036B000730640937206819391939FCFF0E0E0E010
:1036C0009CCFCF93DF930097E9F0FC0132971382F0
:1036D0001282A0917406B0917506ED0130E020E0F1
:1036E0001097A1F420813181820F931F20917206DF
:1036F000309173062817390709F061C0F0937306FB
:10370000E0937206DF91CF910895EA01CE17DF07AB
:10371000E8F54A815B819E0141155105B1F7E90148
:10372000FB83EA8349915991C40FD51FEC17FD071C
:1037300061F4808191810296840F951FE90199833C
:103740008883828193819B838A83F0E0E0E01296F4
:103750008D919C9113970097B9F52D913C911197FC
:10376000CD010296820F931F20917206309173064D
:103770002817390739F6309751F5109275061092CF
:103780007406B0937306A0937206BCCFD383C28332
:1037900040815181840F951FC817D90761F44E5F8E
:1037A0005F4F88819981480F591F518340838A81D7
:1037B0009B81938382832115310509F0B0CFF0936B
:1037C0007506E09374069ECFFD01DC01C0CF138225
:1037D0001282D7CFAEE0B0E0E0EFFBE10C9402192B
:1037E0000D891E898F89988D26E02C831A83098381
:1037F00097FF02C080E090E801979E838D83AE0121
:10380000455E5F4F698D7A8DCE0101960E943D1C09
:103810004D815E8157FD0AC02F81388542175307BD
:103820000CF49A01020F131FF80110822E96E4E0A7
:103830000C941E19AEE0B0E0E0E2FCE10C94021939
:103840000D891E8986E08C831A8309838FEF9FE799
:103850009E838D83AE01475E5F4F6F89788DCE0169
:1038600001960E943D1C2F813885020F131FF8011D
:1038700010822E96E4E00C941E19ABE0B0E0E3E475
:10388000FCE10C94F4187C013B018A01FC011782D5
:103890001682838181FFC8C1CE0101965C01F701C8
:1038A0009381F30193FD859193FF81913F018823DB
:1038B00009F453C1853239F493FD859193FF8191C9
:1038C0003F01853229F4B70190E00E942D1EE7CF19
:1038D000912C212C312CFFE1F31538F08B3211F1B2
:1038E00090F4803209F1833229F137FC3CC020ED9D
:1038F000280F2A3050F536FE20C08AE0989E200D11
:103900001124922E06C08D3291F0803371F76894A5
:1039100030F8F30193FD859193FF81913F0181116F
:10392000DACF21C0689431F8689432F8F2CF689405
:1039300033F8EFCF689434F8ECCFEAE02E9E200DF8
:103940001124222E689435F8E4CF8E3229F436FC07
:1039500004C1689436F8DDCF8C3619F4689437F8D2
:10396000D8CF8836B1F2982F9F7D95549330E0F0F0
:103970008336A1F18337C1F1833509F063C0280193
:10398000F2E04F0E511CF801C080D180692D70E02B
:1039900036FC02C06FEF7FEFC6010E94171E4C017C
:1039A000689437F882010AC00C5F1F4FFFE3F98368
:1039B00088248394912C6501E89437F833FE2DC058
:1039C000522C8114910471F5552009F468CFB70188
:1039D00080E290E00E942D1E5A94F6CFF80180817B
:1039E00089830E5F1F4FE4CF2801F2E04F0E511C78
:1039F000F801C080D180692D70E036FC02C06FEF05
:103A00007FEFC6010E94221E4C018201D5CFB70173
:103A100080E290E00E942D1E2A942814190409F0D7
:103A2000B0F7CECFF60137FC859137FE81916F015B
:103A3000B70190E00E942D1E51105A94F1E08F1AA8
:103A40009108BFCF843619F0893609F077C0F801A4
:103A500037FE6BC060817181828193810C5F1F4F43
:103A6000F32DFF763F2E97FF09C0909580957095B6
:103A700061957F4F8F4F9F4F689437F82AE030E071
:103A8000A5010E945D1EC82ECA188C2C432C36FE40
:103A90000CC0E89440F8C91440F434FE05C032FC70
:103AA00003C0F32DFE7E4F2E892C44FE95C0FE01EF
:103AB000EC0DF11D8081803309F087C0242D297E13
:103AC000422E842D8870582E43FC95C040FE8FC036
:103AD0009C2C821418F42C0C922C981844FE91C043
:103AE000B70180E390E00E942D1E42FE09C088E7E6
:103AF00090E041FE02C088E590E0B7010E942D1ED3
:103B0000C91408F48AC0CA94D12C9FEFC91AD90AE3
:103B1000CA0CDB1CF60182916F01B70190E00E9494
:103B20002D1EAC14BD04B1F74FCF60817181072EFB
:103B3000000C880B990B0E5F1F4F92CFD32CE8948B
:103B4000D4F82AE030E0853739F1232D297FD22EB1
:103B50008F3601F148F48835A9F0F7018681978105
:103B60002B96E2E10C941019803749F08837A9F7B9
:103B7000D4FE02C06894D2F820E130E00DC0689411
:103B8000D4F8F6CF34FE03C0822F8660D82E20E111
:103B900032E002C028E030E0F801D7FE0FC06081BB
:103BA0007181828193810C5F1F4FA5010E945D1E70
:103BB000C82ECA183D2CE89437F867CF6081718110
:103BC00090E080E00E5F1F4FF0CF42FC02C0839474
:103BD00078CF8394839475CF842D867809F471CF40
:103BE000F6CFB70180E290E00E942D1E83948214EC
:103BF000C0F3512C73CF522C5818821408F46ECF96
:103C0000F8CF842D867809F47BCF8BE241FE80E2E9
:103C100047FC8DE2B70190E071CFB70180E390E0FF
:103C20000E942D1E9A946CCF8FEF9FEF99CFFC01CD
:103C30000590615070400110D8F7809590958E0FD7
:103C40009F1F0895FC016150704001900110D8F74A
:103C5000809590958E0F9F1F08950F931F93CF937C
:103C6000DF93182F092FEB018B8181FD09C01FEF16
:103C70000FEF812F902FDF91CF911F910F9108951A
:103C800082FF14C02E813F818C819D8128173907C6
:103C90003CF4E881F981CF010196998388831083F0
:103CA0008E819F8101969F838E83E3CFE885F9857E
:103CB000812F0995892BA1F3DACFFA01AA272830A1
:103CC00051F1203181F1E8946F936E7F6E5F7F4FE9
:103CD0008F4F9F4FAF4FB1E03ED0B4E03CD0670F65
:103CE000781F891F9A1FA11D680F791F8A1F911DB8
:103CF000A11D6A0F711D811D911DA11D20D009F408
:103D000068943F912AE0269F11243019305D319349
:103D1000DEF6CF010895462F4770405D4193B3E032
:103D20000FD0C9F7F6CF462F4F70405D4A3318F0D9
:103D3000495D31FD4052419302D0A9F7EACFB4E08A
:103D4000A6959795879577956795BA95C9F7009742
:103D50006105710508959B01AC010A2E06945795E3
:103D6000479537952795BA95C9F7620F731F841F3A
:103D7000951FA01D089511E0C0E0D1E004C0FE0130
:103D80000E94BF1A2196C130D107C9F7F894FFCF1E
:103D9000000014005A001E003C00C8002003000070
:103DA00005005A003C0078009001B00400003C007F
:103DB00078000A003200C800F40101000076068095
:103DC000000A0000000000080000000000040000DD
:103DD0000000000A00000000000600FCFF000004D4
:103DE00000FAFF00000200F8FF00000800000000D9
:103DF000000400FCFF00000200FAFF000000FF01C9
:103E000000010000FFFF0000010001FF00000000B2
:103E1000003C05010101010505000000006803C820
:103E200002F502D003260304031803000000000972
:103E300004C8029E04080465047D04F0030D0A0012
:103E400073656E646D65007061676520257300732E
:103E5000746F70007478740025732E25733D2225CD
:103E600073220025646825303264002564B0430065
:103E700053746172742074696D65203A2000546532
:103E80006D702031203A200050656E74652031201D
:103E90003A200054696D652031203A200054656D48
:103EA000702032203A200050656E74652032203A2E
:103EB000200054696D652032203A200072656375D8
:103EC0006974006772616E64206665750070657460
:103ED000697420666575006163637565696C00705F
:103EE0007265706172655F666575007068617365A3
:103EF00031007068617365315F7061757365007062
:103F00006861736532007068617365325F706175F6
:103F1000736500636F6F6B656400627574746F6EB8
:103F20005F73746172740062743000627431006295
:103F3000743200627433006274340062743500625B
:103F40007574746F6E5F72657475726E007436008E
:103F5000743700743800627432300062743636365A
:103F600000626B636D643D310070616765203000F5
:0E3F700076616C0025732E25733D256C640070
:00000001FF
