:100000000C94A1000C94C9000C94C9000C94960B9C
:100010000C940E0C0C94960B0C94C9000C94C90013
:100020000C94C9000C94C9000C94C9000C94870B63
:100030000C94C9000C94C9000C94C9000C94C9001C
:100040000C94E50A0C94C9000C94550B0C942F0BDE
:100050000C94C9000C94C9000C94C9000C94C900FC
:100060000C94C9000C94C9007374617274007265B9
:100070007475726E00696E6974206E657874696F4C
:100080006E20656E64004C75636966657220696EEA
:10009000697400205463203A002054203A0020481C
:1000A000656174203A0072756E2074696D65200078
:1000B000737465702046697665202121007374652C
:1000C0007020666F75722021210073746570205452
:1000D0006872656520212100737465702054776F04
:1000E0002021210000000000240027002A00000039
:1000F00000080002010000030407000000000000E7
:10010000000000000000230026002900000000007D
:10011000250028002B000404040404040404020243
:100120000202020203030303030301020408102076
:100130004080010204081020010204081020FB0C7A
:10014000DF1511241FBECFEFD8E0DEBFCDBF26E004
:10015000A2E2B3E001C01D92A43AB207E1F713E0B6
:10016000A0E0B1E0E6EEF8E302C005900D92A23205
:10017000B107D9F710E0C0EAD0E004C02197FE0132
:100180000E946A18CF39D107C9F70E94A00F0C94BA
:10019000661C0C940000833081F028F4813099F0C3
:1001A0008230A9F008958730A9F08830C9F08430F2
:1001B000B1F4809180008F7D03C0809180008F77A3
:1001C00080938000089584B58F7784BD089584B5A9
:1001D0008F7DFBCF8091B0008F778093B000089522
:1001E0008091B0008F7DF9CFCF93DF93282F30E03F
:1001F000F901E251FF4F8491F901E65DFE4FD49180
:10020000F901EA5EFE4FC491CC23A1F081110E9456
:10021000CB00EC2FF0E0EE0FFF1FEE5FFE4FA5913D
:10022000B491EC91ED2381E090E009F480E0DF915E
:10023000CF91089580E090E0FACF1F93CF93DF93A2
:10024000282F30E0F901E251FF4F8491F901E65D7A
:10025000FE4FD491F901EA5EFE4FC491CC23A9F080
:10026000162F81110E94CB00EC2FF0E0EE0FFF1F44
:10027000E45FFE4FA591B4918FB7F894EC91111102
:1002800008C0D095DE23DC938FBFDF91CF911F9103
:100290000895DE2BF8CFEF92FF920F931F93CF9329
:1002A000DF93909165049F3F71F48EBD00000DB403
:1002B00007FEFDCFCEB58C2FDF91CF911F910F910F
:1002C000FF90EF900895D82FC0E007E010E0EE24F3
:1002D000E394F12CCC0F60E0809165040E941D0135
:1002E000B701002E01C0660F0A94EAF76D238091D2
:1002F00067040E941D0161E0809165040E941D0158
:10030000809166040E94F400892B09F0C1600150BD
:10031000110900F7D0CFCF93DF9390E0FC01E65DA9
:10032000FE4F24918A5E9E4FFC0184918823D1F078
:1003300090E0880F991FFC01EC51FF4FA591B491FB
:10034000FC01E45FFE4FC591D49161110EC09FB7CF
:10035000F8948C91E22FE0958E238C932881E223F0
:10036000E8839FBFDF91CF9108958FB7F894EC9108
:10037000E22BEC938FBFF6CF3FB7F8948091C40384
:100380009091C503A091C603B091C70326B5A89B61
:1003900005C02F3F19F00196A11DB11D3FBFBA2F17
:1003A000A92F982F8827BC01CD01620F711D811DD7
:1003B000911D42E0660F771F881F991F4A95D1F75C
:1003C00008952FB7F8946091C0037091C103809194
:1003D000C2039091C3032FBF08958F929F92AF9253
:1003E000BF92CF92DF92EF92FF920F931F93CF9322
:1003F000DF93EC016A017B0110E000E00E94E10163
:10040000688779878A879B87E881F9810284F385E9
:10041000E02DCE01099597FF21C00E94E10188845B
:100420009984AA84BB84681979098A099B098C80FC
:100430009D80AE80BF80681579058A059B0520F3F5
:10044000C801DF91CF911F910F91FF90EF90DF9046
:10045000CF90BF90AF909F908F900895F7018193B8
:100460007F010F5F1F4FC016D10641F6E9CFAF9253
:10047000BF92CF92DF92EF92FF920F931F93CF9391
:10048000DF936C017B018B01040F151FEB015E01F3
:10049000AE18BF08C017D10759F06991D601ED9188
:1004A000FC910190F081E02DC6010995892B79F727
:1004B000C501DF91CF911F910F91FF90EF90DF90D9
:1004C000CF90BF90AF900895FC01538D448D252FA0
:1004D00030E0842F90E0821B930B541710F0CF96DE
:1004E000089501970895FC01918D828D981761F010
:1004F000A28DAE0FBF2FB11D5D968C91928D9F5F27
:100500009F73928F90E008958FEF9FEF0895FC0105
:10051000918D828D981731F0828DE80FF11D858DB8
:1005200090E008958FEF9FEF0895FC01918D228D4B
:10053000892F90E0805C9F4F821B91098F739927D0
:10054000089588EC93E00E94950221E0892B09F43C
:1005500020E0822F089580E090E0892B29F00E940E
:10056000A10281110C9400000895FC01A48DA80F34
:10057000B92FB11DA35ABF4F2C91848D90E00196E5
:100580008F739927848FA689B7892C93A089B18905
:100590008C91837080648C93938D848D981306C0A6
:1005A0000288F389E02D80818F7D80830895EF920A
:1005B000FF920F931F93CF93DF93EC0181E0888F1D
:1005C0009B8D8C8D98131AC0E889F989808185FFED
:1005D00015C09FB7F894EE89FF896083E889F9898F
:1005E00080818370806480839FBF81E090E0DF9191
:1005F000CF911F910F91FF90EF900895F62E0B8DE4
:1006000010E00F5F1F4F0F731127E02E8C8D8E119E
:100610000CC00FB607FCFACFE889F989808185FF05
:10062000F5CFCE010E94B502F1CFEB8DEC0FFD2F7F
:10063000F11DE35AFF4FF0829FB7F8940B8FEA89C0
:10064000FB8980818062CFCF0F931F93CF93DF937D
:100650008C01D0E0C0E0F801EC0FFD1F649166232F
:1006600041F088EC93E00E94D702892B11F021968B
:10067000F2CFCE01DF91CF911F910F910895CF93CB
:10068000DF93EC01888D8823B9F0AA89BB89E889BA
:10069000F9898C9185FD03C0808186FD0DC00FB660
:1006A00007FCF7CF8C9185FFF2CF808185FFEDCFDE
:1006B000CE010E94B502E9CFDF91CF91089520913C
:1006C0009003309191032817390771F490918E03AC
:1006D00080918F03981741F0E0918E03F0E0E25B88
:1006E000FC4F808190E008958FEF9FEF089508956B
:1006F000EF92FF920F931F93CF93DF93DC015C96F1
:10070000ED90FC905D97E114F10479F481E090E0C4
:1007100013969C938E93129790E080E0DF91CF9197
:100720001F910F91FF90EF9008955196ED91FC91DC
:10073000529750968C915097982F90950FB75E9640
:100740002C915E97122F127021FD6095F8942081F4
:10075000112319F1282B2083E7012197F1F728E0D5
:10076000462F50E0308160FF1AC0382B3083E701FC
:100770002197F1F7BA0175956795215089F71123F3
:1007800081F08081892380830FBF5C968D919C913D
:100790000197F1F781E090E0C1CF2923DCCF392325
:1007A000E5CF9081892BEFCF209190033091910379
:1007B0002817390771F480918F0320918E0390E000
:1007C000805C9F4F821B910960E470E00E94FA17E1
:1007D000089590E080E00895209190033091910376
:1007E00028173907B9F490918E0380918F039817D9
:1007F00089F0E0918E03F0E0E25BFC4F8081209174
:100800008E0330E02F5F3F4F2F73332720938E03EB
:1008100090E008958FEF9FEF089590E080E00895B5
:1008200008958CBD9DBD0895CF93DF93C62FD82F1B
:10083000D068809165048F3FC1F4809169049091E4
:100840006A040E94110460E0809168040E941D0106
:100850008D2F0E944B018C2F0E944B0161E08091F3
:100860006804DF91CF910C941D0161E00E941D018D
:10087000EACF1F93CF93DF93182FEB01809165048C
:100880008F3FD1F48091690490916A040E94110411
:1008900060E0809168040E941D01812F0E944B013D
:1008A0008FEF0E944B01888361E080916804DF91A3
:1008B000CF911F910C941D0161E00E941D01E8CFB2
:1008C000CF93DF931F92CDB7DEB71982BE016F5F62
:1008D0007F4F81E00E9439046981607F636081E01D
:1008E0000E9414040F90DF91CF910895CF93DF936E
:1008F00000D000D0CDB7DEB719821A821B821C82CD
:1009000044E050E0BE016F5F7F4FFC018081918128
:100910000E94ED018981813051F48A818F3F39F441
:100920008B818F3F21F481E09C819F3F09F080E023
:100930000F900F900F900F90DF91CF9108959B0132
:10094000DC011296ED91FC91309719F0BA01C901C2
:100950000994089527E0269FF001279FF00D1124A8
:10096000E80FF91FEE0FFF1FEE5FFE4F2081318170
:1009700037FF02C0118210822EE0269FF001279FD0
:10098000F00D1124EE5FFE4F248535854285538599
:10099000241735072CF48530910511F4338722870D
:1009A0002EE0269FF001279FF00D1124EE5FFE4FF1
:1009B00022853385448555854217530724F40697CD
:1009C00011F43587248708950F931F93CF93DF93F6
:1009D000EC018B0184E090E00E94701823E831E084
:1009E000FC0131832083138302839B838A8381E00C
:1009F000DF91CF911F910F910895CF93DF93EC0179
:100A000084E090E00E947018FC01D183C0831382BF
:100A10001282E0917F06F0918006309741F4909326
:100A2000800680937F06DF91CF910895F90122819E
:100A3000338121153105D1F793838283F4CFFB01F4
:100A400001900020E9F73197AF01461B570BDC01FD
:100A5000ED91FC910280F381E02D09948F929F9299
:100A6000AF92BF920F931F93CF93DF93CDB7DEB7B3
:100A7000A1970FB6F894DEBF0FBECDBF19A24230CA
:100A800008F44AE08E010F5D1F4F842E912CB12C8B
:100A9000A12CA50194010E940E18E62FB901CA01EC
:100AA000EA3004F5E05DD801EE938D01232B242B71
:100AB000252B79F790E080E0109729F0BD0188ECB4
:100AC00093E00E941F05A1960FB6F894DEBF0FBEFB
:100AD000CDBFDF91CF911F910F91BF90AF909F90AD
:100AE0008F900895E95CDFCFCF92DF92EF92FF9273
:100AF000CF93DF936B017C016DE288EC93E00E9461
:100B0000D702EC0166277727CB016C197D098E0986
:100B10009F094AE00E942E058C0F9D1FDF91CF9107
:100B2000FF90EF90DF90CF900895BC01990F880B54
:100B3000990B97FD0C9474054AE00C942E05CF9305
:100B4000DF93BC01990F880B990B97FF0EC00E9491
:100B50007405EC016FEA71E088EC93E00E941F05D8
:100B60008C0F9D1FDF91CF9108954AE00E942E05C2
:100B7000F0CFCF93DF934AE00E942E05EC016FEA9D
:100B800071E088EC93E00E941F058C0F9D1FDF91A0
:100B9000CF910895CF93DF93682F70E090E080E0CD
:100BA0004AE00E942E05EC016FEA71E088EC93E0C8
:100BB0000E941F058C0F9D1FDF91CF910895019713
:100BC00029F486E08093BB030C94CA05089501972D
:100BD00029F485E08093BB030C94CA05089501971E
:100BE00029F484E08093BB030C94CA05089501970F
:100BF00029F483E08093BB030C94CA050895019700
:100C000029F482E08093BB030C94CA0508950197F0
:100C100029F481E08093BB030C94CA050895CF9317
:100C2000DF930E942403EC016FEA71E088EC93E00B
:100C30000E941F058C0F9D1FDF91CF910895CF93C8
:100C4000DF93BC0188EC93E00E941F05EC016FEA82
:100C500071E088EC93E00E941F058C0F9D1FDF91CF
:100C6000CF9108950C941F050F931F93CF93DF939B
:100C7000EC018B018E81882349F088819981DC0108
:100C8000ED91FC910680F781E02D0995B8018881EE
:100C900099810E94320688819981DC01ED91FC9155
:100CA0000190F081E02D6FEF099588819981DC0139
:100CB000ED91FC910190F081E02D6FEF0995888115
:100CC0009981DC01ED91FC910190F081E02D6FEFB5
:100CD000DF91CF911F910F910994CF93DF9300D0B3
:100CE00000D01F92CDB7DEB762EB71E088E796E0E7
:100CF0000E943406BE016F5F7F4F85E0FB011192B9
:100D00008A95E9F745E050E0809178069091790660
:100D10000E94ED010597A9F48981863691F48B81B3
:100D20008F3F79F48C818F3F61F48D818F3F49F43F
:100D30008A810F900F900F900F900F90DF91CF91BD
:100D4000089580E0F6CFCF92DF92EF92FF920F935B
:100D50001F93CF93DF93CDB7DEB78C01EDB6FEB610
:100D6000DC0114962C91149715963C91F901DF0142
:100D70000D900020E9F7CD018E1B9F0B0596EDB776
:100D8000FEB7E81BF90B0FB6F894FEBF0FBEEDBF20
:100D90004DB75EB74F5F5F4F6A013F932F9329EBCB
:100DA00031E03F932F939F938F93DF924F930E9455
:100DB0009519B601D8018D919C910E943406F801D5
:100DC000808191810E9476042DB73EB7285F3F4F06
:100DD0000FB6F8943EBF0FBE2DBF0FB6F894FEBEFF
:100DE0000FBEEDBEDF91CF911F910F91FF90EF905D
:100DF000DF90CF900895019791F41092BB03109269
:100E0000BC0360E085E00E941D011092BD0382E7F3
:100E100096E00E94A30681EC91E00C941F060895D1
:100E2000019791F41092BB031092BC0360E085E03F
:100E30000E941D011092BD0382E796E00E94A30666
:100E40008EE690E00C940F060895CF92DF92EF9219
:100E5000FF920F931F93CF93DF93CDB7DEB7EDB61D
:100E6000FEB6DC01ED91FC91369700811181080FEF
:100E7000191FF80184819581DC01FD01019000209A
:100E8000E9F731979F012A1B3B0BFB0101900020E2
:100E9000E9F73197E61BF70B2E0F3F1F265F3F4FF9
:100EA0004DB75EB7421B530B0FB6F8945EBF0FBE33
:100EB0004DBFADB7BEB711966D017F936F9346ECF2
:100EC00051E05F934F939F938F938AEC91E09F93B0
:100ED0008F933F932F93DF92AF930E949519B601A2
:100EE000F801808191810E943406D8018D919C91F6
:100EF0000E947604EDB7FEB73C960FB6F894FEBF9D
:100F00000FBEEDBF0FB6F894FEBE0FBEEDBEDF9173
:100F1000CF911F910F91FF90EF90DF90CF900895A8
:100F2000AF92BF92CF92DF92EF92FF920F931F93F7
:100F3000CF93DF93CDB7DEB72A970FB6F894DEBF15
:100F40000FBECDBF882309F464C081509EE0899F05
:100F5000800111240E5F1E4FF801828193812CE3E2
:100F6000A22EB12CB5010E94FA179F938F937F9305
:100F70006F9335EDC32E31E0D32EDF92CF92CE01A9
:100F800001967C019F938F930E94C519B7018AE453
:100F900095E00E942507F80184819581B5010E94A2
:100FA000FA179F938F937F936F93DF92CF92FF9265
:100FB000EF920E94C519B7018AE395E00E942507C8
:100FC000F80183858F9382858F934DEDC42E41E088
:100FD000D42EDF92CF92FF92EF920E94C519B701F3
:100FE0008AE595E00E942507F80185858F93848521
:100FF0008F93DF92CF92FF92EF920E94C519B701B3
:101000008AE695E00E9425070FB6F894DEBF0FBE72
:10101000CDBF2A960FB6F894DEBF0FBECDBFDF91CD
:10102000CF911F910F91FF90EF90DF90CF90BF90E5
:10103000AF9008958130910541F480E696E00E94DA
:10104000A3068091BC030C9490078230910519F49B
:101050008AE596E0F4CF8330910519F484E596E0B3
:10106000EECF049721F48EE496E00C94A306089545
:10107000019709F0B0C088E690E00E940F0686E66E
:1010800096E00E94A3061092BB038091BC030E94CD
:1010900090078091BC0390E0009709F499C00197F4
:1010A0002EE0289FF001299FF00D1124EE5FFE4FE6
:1010B000828193819093A9038093A8038481958171
:1010C0009093A1038093A003868197819093AB03B3
:1010D0008093AA03808591859093230380932203B4
:1010E000828593859093AD038093AC038485958529
:1010F0009093A3038093A2030E94E1016093B40341
:101100007093B5038093B6039093B7031092AF0327
:101110001092AE036FEA71E088EC93E00E941F0525
:1011200063EE71E088EC93E00E9432066091B403B4
:101130007091B5038091B6039091B7030E94B905F1
:1011400061EF71E088EC93E00E9432068091AC037D
:101150009091AD030E949F056BEF71E088EC93E0E6
:101160000E9432068091AA039091AB030E949F05D2
:1011700066E072E088EC93E00E9432068091A8035A
:101180009091A9030E949F0560E172E088EC93E0D2
:101190000E9432068091A2039091A3030E949F05B2
:1011A0006AE172E088EC93E00E94320680912203AB
:1011B000909123030E949F0565E272E088EC93E022
:1011C0000E9432068091A0039091A1030E949F0586
:1011D00081E08093BD030895AF92BF92CF92DF92DA
:1011E000EF92FF920F931F93CF93DF93CDB7DEB7AC
:1011F00064970FB6F894DEBF0FBECDBF5C016B01E4
:10120000F89487E0869F8001879F100D11240A0DB6
:101210001B1D000F111FC8018E5F9E4F7C01FC013A
:101220006081C8010E94FE16F7016181C801019624
:101230000E94FE167894F70181818F9380818F93AD
:101240001F930F93BF92AF92DF92CF928FE292E003
:101250009F938F938E010F5F1F4F1F930F930E94D9
:10126000C519C8010E941F060FB6F894DEBF0FBE55
:10127000CDBF64960FB6F894DEBF0FBECDBFDF9131
:10128000CF911F910F91FF90EF90DF90CF90BF9083
:10129000AF9008952F923F924F925F926F927F92FC
:1012A0008F929F92AF92BF92CF92DF92EF92FF9276
:1012B0000F931F93CF93DF93CDB7DEB766970FB62B
:1012C000F894DEBF0FBECDBF9E878D871B0121E046
:1012D000221A31082EE0229DC001239D900D112479
:1012E000FC01EE5FFE4F5F019C012C5D3C4F3C8793
:1012F0002B87F12CE12C8E010F5F1F4FCF0102963F
:10130000988B8F873496FA8BE98B95012A5F3F4F34
:101310003C8B2B8B06969E8B8D8B8CE3482E512C11
:10132000612C712C95EDC92E91E0D92E2CE3822EE3
:10133000912CF501819191915F01EB85FC852191C3
:101340003191FC87EB878217930729F42D853E8521
:10135000232B09F450C033E0E316F10409F4AFC0C5
:101360000CF06AC0F1E0EF16F10409F47FC022E04E
:10137000E216F10409F492C0F5013297808191815F
:10138000EB85FC85329791838083EF85F8896081B6
:101390007181E989FA8980819181680F791FEB89D0
:1013A000FC8980819181680F791FED89FE89808198
:1013B0009181680F791F072E000C880B990BA301F0
:1013C00092010E9430187F936F933F932F93DF9287
:1013D000CF921F930F930E94C519B8018AE795E039
:1013E0000E942507B101C7010E94EC080FB6F894CE
:1013F000DEBF0FBECDBF3FEFE31AF30A87E0E8166A
:10140000F10409F096CF66960FB6F894DEBF0FBED2
:10141000CDBFDF91CF911F910F91FF90EF90DF90A3
:10142000CF90BF90AF909F908F907F906F905F9084
:101430004F903F902F90089535E0E316F10409F4A2
:1014400060C00CF44DC0F6E0EF16F10409F094CF43
:101450009F938F932DED31E03F932F931F930F9325
:101460000E94C519B80184EF95E058C0B4010E94EC
:10147000FA179F938F937F936F93DF92CF921F936F
:101480000F930E94C519B80184EA95E00E942507D0
:101490000FB6F894DEBF0FBECDBF6ECFB4010E9471
:1014A000FA179F938F937F936F93DF92CF921F933F
:1014B0000F930E94C519B80184ED95E0E7CFB40100
:1014C0000E94FA179F938F937F936F93DF92CF922F
:1014D0001F930F930E94C519B80184EB95E0D6CFF6
:1014E000B4010E94FA179F938F937F936F93DF92BB
:1014F000CF921F930F930E94C519B80184EC95E019
:10150000C5CF9F938F938DED91E09F938F931F9302
:101510000F930E94C519B80184EE95E00E9425073B
:101520000F900F900F900F900F900F9025CF019775
:10153000B9F480E492E00E941F068CE696E00E94D7
:10154000A3060E946D060E94CA0583E08093BC0337
:101550001092BB0363E070E081E090E00C944A09D4
:1015600008950197B9F487E492E00E941F068CE683
:1015700096E00E94A3060E946D060E94CA0582E0C2
:101580008093BC031092BB0362E070E081E090E0C6
:101590000C944A0908950197B9F481E592E00E94FC
:1015A0001F068CE696E00E94A3060E946D060E942C
:1015B000CA0581E08093BC031092BB0361E070E038
:1015C00081E090E00C944A0908951F920F920FB6A3
:1015D0000F9211242F933F938F939F93AF93BF93B9
:1015E0008091C0039091C103A091C203B091C30345
:1015F0003091BF0323E0230F2D3758F50196A11D2D
:10160000B11D2093BF038093C0039093C103A093A7
:10161000C203B093C3038091C4039091C503A0910A
:10162000C603B091C7030196A11DB11D8093C403E9
:101630009093C503A093C603B093C703BF91AF9126
:101640009F918F913F912F910F900FBE0F901F9000
:10165000189526E8230F0296A11DB11DD2CF1F9227
:101660000F920FB60F9211242F933F934F935F93D6
:101670006F937F938F939F93AF93BF93EF93FF935A
:1016800088EC93E00E94B502FF91EF91BF91AF917A
:101690009F918F917F916F915F914F913F912F918A
:1016A0000F900FBE0F901F9018951F920F920FB6BC
:1016B0000F9211242F938F939F93EF93FF93E091B9
:1016C000D803F091D9038081E091DE03F091DF032C
:1016D00082FD1BC090818091E1038F5F8F73209109
:1016E000E203821741F0E091E103F0E0E853FC4FA0
:1016F000958F8093E103FF91EF919F918F912F91AF
:101700000F900FBE0F901F9018958081F4CF1F92FD
:101710000F920FB60F9211248F9381E08093B8033C
:101720008F910F900FBE0F901F9018951F920F92E0
:101730000FB60F9211242F933F934F935F936F93A4
:101740007F938F939F93AF93BF93EF93FF93E0911A
:101750009003F0919103309749F0A685B785858570
:10176000968D91FF14C09C918923A1F4FF91EF9174
:10177000BF91AF919F918F917F916F915F914F91A9
:101780003F912F910F900FBE0F901F9018959C9135
:10179000892361F7A389B4899C91858980958923E0
:1017A0008C93868997890197F1F7608D718DA68555
:1017B000B785558538E020E0CB010197F1F7822FFE
:1017C00090E095958795282F4C91452309F0206846
:1017D000315091F7868D81FD209580918F0390E0A7
:1017E00001968F73992730918E03381799F0A09145
:1017F0008F03B0E0A25BBC4F2C9380938F03828D4C
:10180000938D0197F1F7A389B4898C919589892BE0
:101810008C93ACCF868D8160868FF1CF1F920F9213
:101820000FB60F9211240F931F932F933F934F9353
:101830005F936F937F938F939F93AF93BF93EF9338
:10184000FF9380916B040E94F400182F80916D0427
:101850000E94F400880F991F812BE0916F048E176E
:10186000C9F194E0E902F0011124282F082E000CA0
:10187000330BE22BF32BE159FE4F4081042E000C79
:10188000550B660B770B0091700410917104209139
:10189000720430917304400F511F621F731F4093F5
:1018A00070045093710460937204709373048330D6
:1018B00079F492E075956795579547959A95D1F784
:1018C0004093740450937504609376047093770486
:1018D00080936F04FF91EF91BF91AF919F918F9192
:1018E0007F916F915F914F913F912F911F910F9138
:1018F0000F900FBE0F901F9018950F931F93CF93CB
:10190000DF93EC0188E796E09987888782E08A87F1
:101910002B871D870C878FE391E0998388831B8237
:101920001A82CE010E94FD0483E691E099838883A8
:1019300089E691E09D838C838FE691E09F838E837F
:10194000DF91CF911F910F9108950F931F93CF9324
:10195000DF93EC0188E796E09B878A874C872D8789
:101960001F870E8789E391E0998388831B821A82FF
:10197000CE010E94FD048BE491E09983888381E588
:1019800091E09D838C8387E591E09F838E838DE535
:1019900091E099878887DF91CF911F910F910895EA
:1019A0000F931F93CF93DF93EC0188E796E09B871B
:1019B0008A874C872D871F870E8789E391E099835B
:1019C00088831B821A82CE010E94FD048BE491E081
:1019D0009983888381E591E09D838C8387E591E0FD
:1019E0009F838E838DE591E099878887DF91CF91E2
:1019F0001F910F910895CF92DF92EF92FF920F9374
:101A00001F93CF93DF931092CB031092CA0328EE5B
:101A1000C22E23E0D22EE12CF12CC092CC03D09226
:101A2000CD03E092CE03F092CF038FE891E0909344
:101A3000C9038093C80385EC90E09093D50380930D
:101A4000D40384EC90E09093D7038093D60380EC8A
:101A500090E09093D9038093D80381EC90E0909329
:101A6000DB038093DA0382EC90E09093DD038093B4
:101A7000DC0386EC90E09093DF038093DE0310920A
:101A8000E1031092E2031092E3031092E4038DE06D
:101A90008093650488E0809368048CE080936604FA
:101AA00089E08093670486E580936904C1E0C09370
:101AB0006A0480E190E090936C0480936B0481E170
:101AC00090E090936E0480936D0460E080E10E944A
:101AD0008B0161E080E10E941D0160E081E10E94D4
:101AE0008B0161E081E10E941D0183E080936F041E
:101AF0001092700410927104109272041092730488
:101B00001092740410927504109276041092770467
:101B10001092840610928306C0928506D0928606A3
:101B2000E0928706F092880681EA91E0909382061F
:101B300080938106109298061092970610929A064A
:101B40001092990610929C0610929B0610929E0687
:101B500010929D0680919F068E7F8D7F80939F06B9
:101B600081FB662760F96C278BE00E941D0161E014
:101B70008BE00E948B01E5E3F1E0E491E0939106B4
:101B8000E1E2F1E0E491F0E0EE0FFF1FE45FFE4FD1
:101B900085919491909393068093920660E08AE0F9
:101BA0000E948B0180919F0681FD04C061E08AE064
:101BB0000E941D018AE0E82EE0928D06E4E3F1E048
:101BC000E491E0938E06E0E2F1E0E491F0E0EE0FC4
:101BD000FF1FEE5FFE4F8591949190939006809346
:101BE0008F06C8E7D6E081E896E090937906809367
:101BF000780684EF91E0A0E0B0E080937A069093BD
:101C00007B06A0937C06B0937D06FF24F394F092AC
:101C10007E061092800610927F06D0937306C093C2
:101C2000720610927406109275068BE592E09093FE
:101C3000770680937606D0936D06C0936C06F0927B
:101C40006E0610926F0683E692E090937106809381
:101C50007006D0936706C093660682E0809368069C
:101C6000109269068FE692E090936B0680936A0665
:101C7000D0936106C093600683E080936206109261
:101C8000630686E792E09093650680936406D0939E
:101C90005B06C0935A0684E080935C0610925D0652
:101CA00083E892E090935F0680935E06D09355069A
:101CB000C093540685E080935606109257068AE832
:101CC00092E09093590680935806D0934F06C093A4
:101CD0004E0686E0809350061092510687E992E006
:101CE00090935306809352060CEA12E022E040E003
:101CF000BE018EE396E00E94A50C00EB12E023E00B
:101D000040E0BE018EE296E00E94A50C04EB12E0DA
:101D100024E040E0BE018EE196E00E94A50C0CEBB1
:101D200012E026E040E0BE018EE096E00E94D00C7A
:101D30000EE912E022E041E0BE018EEF95E00E9444
:101D4000A50C0BEA12E024E041E0BE018EEE95E026
:101D50000E94A50C0FEA12E025E041E0BE018EEDE5
:101D600095E00E94A50C03EB12E026E041E0BE01E5
:101D70008EEC95E00E94A50C07EB12E027E041E015
:101D8000BE018EEB95E00E94A50C0BEB12E028E063
:101D900041E0BE018EEA95E00E94A50C0FEB12E037
:101DA00029E041E0BE018EE995E00E94A50CD093A8
:101DB0009905C0939805F0929A05E0929B0583ECF3
:101DC00092E090939D0580939C0585E491E090932B
:101DD000950580939405109297051092960584E9D5
:101DE00095E00E94FD0485E491E090939505809331
:101DF00094050CEB12E02BE041E0BE0184E895E095
:101E00000E94D00C00EB12E02DE041E0BE0184E71F
:101E100095E00E94D00C0CEA12E021E042E0BE0105
:101E200084E695E00E94D00C00EB12E022E042E054
:101E3000BE0184E595E00E94D00C04EB12E023E0A3
:101E400042E0BE0184E495E00E94D00C08EB12E071
:101E500024E042E0BE0184E395E00E94D00C0CEB4C
:101E600012E025E042E0BE0184E295E00E94D00C41
:101E700000EC12E026E042E0BE0184E195E00E9421
:101E8000D00C01ED12E027E042E0BE0184E095E0D5
:101E90000E94A50C04ED12E028E042E0BE0184EFB0
:101EA00094E00E94D00C07ED12E029E042E0BE0170
:101EB00084EE94E00E94D00C0AED12E02BE042E0A8
:101EC000BE0186ED94E00E947D0C0FED12E02AE049
:101ED00042E0BE0188EC94E00E947D0C01ED12E02E
:101EE00027E043E0BE0188EB94E00E94A50C27E0C8
:101EF00044E0BE0188EA94E00E94A50C27E045E09A
:101F0000BE0188E994E00E94A50C0CEB12E021E0F0
:101F100046E0BE0188E894E00E94D00C00EB12E09D
:101F200022E046E0BE0188E794E00E94D00CDF91F9
:101F3000CF911F910F91FF90EF90DF90CF90089578
:101F4000CF93DF93CDB7DEB7A1970FB6F894DEBF7E
:101F50000FBECDBF789484B5826084BD84B58160A6
:101F600084BD85B5826085BD85B5816085BD809164
:101F70006E00816080936E001092810080918100DC
:101F800082608093810080918100816080938100D4
:101F9000809180008160809380008091B100846096
:101FA0008093B1008091B00081608093B0008091F7
:101FB0007A00846080937A0080917A0082608093B6
:101FC0007A0080917A00816080937A0080917A0013
:101FD000806880937A001092C100E091D803F0915C
:101FE000D90382E08083E091D403F091D50310827D
:101FF000E091D603F091D70380E180831092E00353
:10200000E091DC03F091DD0386E08083E091DA0368
:10201000F091DB03808180618083E091DA03F091AD
:10202000DB03808188608083E091DA03F091DB0339
:10203000808180688083E091DA03F091DB03808106
:102040008F7D808386E890E00E940F0690E080E01C
:102050000E94F61610E000E0853A09F09CC2912C2F
:10206000812C10E000E035EE432E32E0532E9E012D
:102070002F5F3F4F3901A4014E5F5E4F5A0164014B
:10208000F12CE12CF894C6010E94F61689A3C60132
:1020900001960E94F61690E0982F882759A1850F87
:1020A000911DD5018D939C937894F50181818F9337
:1020B00080818F93DF92CF92FF92EF921F930F93C5
:1020C0005F924F927F926F920E94C519C3010E9446
:1020D0001F06B801C7010E94AA04FFEFEF1AFF0A0A
:1020E00022E0C20ED11C32E0A30EB11C4DB75EB788
:1020F000445F5F4F0FB6F8945EBF0FBE4DBF57E011
:10210000E516F10409F0BECF0F5F1F4F6EE0860E9B
:10211000911C0330110509F0AECF10929C0610926D
:102120009B0610929A0610929906109298061092A9
:1021300097068DE991E090939E0680939D0690917D
:102140008D06963108F047C02DEB30E030939806AD
:10215000209397062BE931E030939A062093990655
:102160002CE231E030939C0620939B06209168007E
:1021700084E0983048F031E09E3008F430E081E0AF
:1021800001C0880F3A95EAF7822B809368002DE60C
:1021900030E0983050F02BE630E09E3030F02CE606
:1021A00030E0963110F030E020E030939506209337
:1021B0009406292F30E0983008F005C281E001C074
:1021C000880F9A95EAF78093960680919D069091E4
:1021D0009E060197F1F780919B0690919C06892BB2
:1021E00049F1E0919003F0919103A6E0E138FA07FC
:1021F00009F1309739F0A389B4899C91858980953C
:1022000089238C9380919F068E7F80939F061092E6
:102210008F0310928E0381E896E090939103809350
:102220009003E0919406F091950680819091960636
:10223000892B808361EB71E088E796E00E94340689
:1022400066EF72E088E796E00E94340688E796E041
:102250000E9476046EEF72E088E796E00E943406F2
:1022600088E796E00E9476046BEC7AE08EE396E0D5
:102270000E94E40461EB7AE08EE296E00E94E404BE
:1022800067E97AE08EE196E00E94E40467E076E098
:102290008EE995E00E94E4046FEF75E08EEC95E026
:1022A0000E94E40467EF75E08EEA95E00E94E40482
:1022B0006FEE75E08EEB95E00E94E40467EE75E04A
:1022C0008EED95E00E94E4046FED75E08EEE95E0F2
:1022D0000E94E40468E378E08EEF95E00E94E40455
:1022E00060E177E084E995E00E94E4046BEF76E03A
:1022F00084E095E00E94E4046BEF76E088EB94E0E4
:102300000E94E4046BEF76E088EA94E00E94E40423
:102310006BEF76E088E994E00E94E40485E790E0C2
:102320000E940F068091680082608093680080910F
:102330006C008C6080936C0061E0809168040E9466
:102340008B0161E0809168040E941D018091650409
:102350008F3F09F445C161E00E948B0161E08091EB
:1023600067040E948B0160E0809166040E948B01EB
:1023700060E082E00E94140460E180E00E941404A6
:102380000E9460040E9460041982FE0131966F0170
:10239000BF0180E00E9439046981616080E00E9491
:1023A0001404F8941092800010928100109285001D
:1023B0001092840088E09DE39093890080938800C8
:1023C0008091810088608093810080918100856088
:1023D0008093810080916F00826080936F00789479
:1023E00061E087E00E948B0161E085E00E948B0143
:1023F0009E012B5E3F4F38A32F8F809178069091DE
:102400007906DC01ED91FC910084F185E02D0995C0
:10241000181619060CF027C180917806909179065C
:10242000DC01ED91FC910284F385E02D0995182FD4
:10243000853619F70E94BC012B013C01BAE08B2EB6
:10244000912CA12CB12C0E94BC016419750986093C
:102450009709683E734081059105A8F3B1E08B1A96
:102460009108A108B108E8EE4E0EE3E05E1E611C83
:10247000711C81149104A104B10429F7809178069C
:1024800090917906DC01ED91FC910084F185E02DBD
:10249000099506970CF4B1CF1093930304E913E068
:1024A0008091780690917906DC01ED91FC9102848F
:1024B000F385E02D0995F80181938F012AE933E036
:1024C0002E173F0769F710929A03809197038F3F69
:1024D00009F093CF809198038F3F09F08ECF8091C0
:1024E00099038F3F09F089CF809196031F928F93B4
:1024F000809195031F928F93809194031F928F93E5
:1025000045E053E05F934F93DF92CF920E94C5194D
:10251000C6010E941F0600917F06109180068DB7AC
:102520009EB70A960FB6F8949EBF0FBE8DBF0115D9
:10253000110509F462CFD8014D915C9190919503FA
:10254000DA01ED91FC91119736970190F081E02D21
:10255000E40FF51F209194038281281318C0838112
:10256000981315C080919603882309F46DC08130BB
:1025700071F412968D919C91009749F0DC01ED91D8
:10258000FC910190F081E02D61E070E00995F80187
:1025900002811381CCCFF12CE12CB801C7010E943C
:1025A000EC088FEFE81AF80A97E0E916F104A9F7AA
:1025B0000F5F1F4F0330110571F765EA90E080E06F
:1025C0000E94FE16AACD9E3040F42850310981E0C9
:1025D00001C0880F2A95EAF7F6CD2E503109F7CFC2
:1025E0001FB7F89480919203811127C0E0E2F1E0D7
:1025F0008491E4E3F1E09491E82FF0E0EE0FFF1F07
:10260000EC51FF4FA591B491EC91E92321F461E0E5
:102610008AE00E941D0161E08AE00E948B018CB576
:1026200080618CBD8CB580648CBD61E08DE00E94C2
:102630008B0161E08BE00E948B01809192038F5FA0
:10264000809392031FBF94CEFA01828193810097F9
:1026500009F49DCFDC01ED91FC910190F081E02D1A
:1026600070E060E093CF6091BE0381E068276093E3
:10267000BE0387E00E941D018091BD03882309F4F9
:1026800047C28091B803882309F401C10091000179
:10269000109101010F5F1F4F109301010093000182
:1026A0000E94E1018090B4039090B503A090B6031E
:1026B000B090B703681979098A099B096093B00340
:1026C0007093B1038093B2039093B303A090AE03D1
:1026D000B090AF0320E63AEE40E050E00E940E18C2
:1026E00079011F930F932DED31E03F932F9358A164
:1026F0005F936F8D6F930E94C519C7016CE370E003
:102700000E94FA179F938F937F936F9385ED91E0CB
:102710009F938F93DF92CF920E94C519EDB7FEB7BA
:102720003E960FB6F894FEBF0FBEEDBFBE016B5EC6
:102730007F4F8EE894E0F4E0AF16B1043CF48AE2F7
:1027400095E00E942507B6018AE195E00E942507E1
:102750008090B0039090B103A090B203B090B30307
:102760008091AE039091AF038230910509F43BC193
:102770000CF09AC0009709F4A1C0019709F406C1B2
:102780008091000190910101281639060CF0B8C122
:1027900010929B0386EA90E00E9424036091B003AC
:1027A0007091B1038091B2039091B3034AE00E940B
:1027B0002E058EE990E00E94240380919B0390E017
:1027C0000E94950589E990E00E9424038091000110
:1027D000909101010E94950583E990E00E942403F5
:1027E000C1010E949F0590909B03692D85E00E9486
:1027F0001D01E091CE04F091CF0436970081118144
:1028000002531B4FADB6BEB6D80114962C91149747
:1028100015963C91F901DF010D900020E9F7CD01FB
:102820008E1B9F0B0A96EDB7FEB7E81BF90B0FB690
:10283000F894FEBF0FBEEDBF4DB75EB74F5F5F4F61
:102840007A011F921F921F929F92A4E1B3E0BF935F
:10285000AF933F932F9328E133E03F932F939F93C0
:102860008F93FF92EF920E949519B701D8018D9135
:102870009C910E943406F801808191810E94760427
:102880000FB6F894BEBE0FBEADBE1092B80380E086
:1028900090E0892B09F4B1CD0E94A102882309F4AC
:1028A000ACCD0E940000A9CD8330910509F407C189
:1028B000049709F065CF10929B0362CF0091AC039F
:1028C0001091AD03B801012E000C880B990B0E94EA
:1028D000FD152B013C01C501B4010E94FB159B01B4
:1028E000AC01C301B2010E9438162B013C0160917A
:1028F000AA037091AB03072E000C880B990B0E9462
:10290000FD1520E030E64AE657E40E9438169B01A8
:10291000AC01C301B2010E9452170E94C4171B01EF
:102920002EE1220E311C80910001909101010817C7
:1029300019070CF025CFA091A803B091A90320E6B8
:102940003AEE0E944F18860E971EA81EB91E80925E
:10295000A4039092A503A092A603B092A70381E0DE
:1029600090E09093AF038093AE030E941A0888ED25
:1029700090E00E9424036091A4037091A5038091CC
:10298000A6039091A7030E94B905FACE2090AC034C
:102990003090AD038091A4039091A503A091A6036C
:1029A000B091A70388159905AA05BB0508F0E8CEE4
:1029B00082E090E09093AF038093AE038AEC90E0C6
:1029C0000E940F060E94E1016093B4037093B50367
:1029D0008093B6039093B7038091AE039091AF03B9
:1029E0000E941A08CDCE0091A2031091A30320905B
:1029F000AC033090AD03B80162197309072E000CC7
:102A0000880B990B0E94FD152B013C01C501B401F7
:102A10000E94FB159B01AC01C301B2010E94381654
:102A20002B013C016091AA037091AB03072E000CAF
:102A3000880B990B0E94FD1520E030E64AE657E42A
:102A40000E9438169B01AC01C301B2010E945217CB
:102A50000E94C417260E371E80910001909101013B
:102A6000081719070CF08CCEA091A003B091A10318
:102A700020E63AEE0E944F18860E971EA81EB91E39
:102A800080929C0390929D03A0929E03B0929F031C
:102A900043E050E05093AF034093AE0383E090E0F7
:102AA0000E941A088DEB90E00E94240360919C0321
:102AB00070919D0380919E0390919F0364CF20901D
:102AC000A2033090A30380919C0390919D03A09159
:102AD0009E03B0919F0388159905AA05BB0508F0D0
:102AE0004FCE84E090E09093AF038093AE038EE4EA
:102AF00096E00E94A30680EB90E00E940F0640CE75
:102B0000821593050CF046CE81E080939B0342CE64
:102B10000091BC0310E00115110509F4B8CE8091B5
:102B2000BB03B80161507109409174045091750460
:102B300090912C01992331F05093BA034093B9033B
:102B400010922C0190E09C01215031092630310572
:102B500098F52B573E4FD9012C91022E000C330BC8
:102B6000A7E0A69FF001A79FF00D1124E80FF91F21
:102B7000EE0FFF1FEE5FFE4FA091B903B091BA03B5
:102B80007A01EA1AFB0AE29ED001E39EB00DF29EA2
:102B9000B00D112420813181A20FB31FB183A08316
:102BA0005093BA034093B9030E94AA04B80190E07D
:102BB00080E00E944A096BCE30E020E0D1CF81EA6C
:102BC00091E090938206809381068091900390918A
:102BD00091038158964071F4E0919406F091950626
:102BE000908180919606809589238083109291032D
:102BF000109290030895E89409C097FB3EF49095D5
:102C00008095709561957F4F8F4F9F4F9923A9F0C5
:102C1000F92F96E9BB279395F69587957795679554
:102C2000B795F111F8CFFAF4BB0F11F460FF1BC098
:102C30006F5F7F4F8F4F9F4F16C0882311F096E92B
:102C400011C0772321F09EE8872F762F05C06623D9
:102C500071F096E8862F70E060E02AF09A95660F92
:102C6000771F881FDAF7880F9695879597F908954B
:102C70000E944B160C94BC160E94AE1638F00E94AF
:102C8000B51620F0952311F00C94A5160C94AB16F4
:102C900011240C94F0160E94CD1670F3959FC1F389
:102CA000950F50E0551F629FF001729FBB27F00DFA
:102CB000B11D639FAA27F00DB11DAA1F649F66274F
:102CC000B00DA11D661F829F2227B00DA11D621F9E
:102CD000739FB00DA11D621F839FA00D611D221F58
:102CE000749F3327A00D611D231F849F600D211D3C
:102CF000822F762F6A2F11249F5750409AF0F1F0BF
:102D000088234AF0EE0FFF1FBB1F661F771F881F27
:102D100091505040A9F79E3F510580F00C94A516A4
:102D20000C94F0165F3FE4F3983ED4F386957795C4
:102D30006795B795F795E7959F5FC1F7FE2B880FCD
:102D4000911D9695879597F9089597F99F6780E863
:102D500070E060E008959FEF80EC089500240A94ED
:102D60001616170618060906089500240A94121666
:102D70001306140605060895092E0394000C11F499
:102D8000882352F0BB0F40F4BF2B11F460FF04C046
:102D90006F5F7F4F8F4F9F4F089557FD9058440F9F
:102DA000551F59F05F3F71F04795880F97FB991FAA
:102DB00061F09F3F79F08795089512161306140667
:102DC000551FF2CF4695F1DF08C0161617061806F4
:102DD000991FF1CF86957105610508940895E894CF
:102DE000BB2766277727CB0197F90895F999FECF7E
:102DF00092BD81BDF89A992780B50895262FF9993B
:102E0000FECF1FBA92BD81BD20BD0FB6F894FA9ACD
:102E1000F99A0FBE019608952F923F924F925F92BA
:102E20006F927F928F929F92AF92BF92CF92DF92DA
:102E3000EF92FF920F931F93CF93DF93CDB7DEB73F
:102E4000CA1BDB0B0FB6F894DEBF0FBECDBF0994D3
:102E50002A88398848885F846E847D848C849B842A
:102E6000AA84B984C884DF80EE80FD800C811B8138
:102E7000AA81B981CE0FD11D0FB6F894DEBF0FBE67
:102E8000CDBFED010895A29FB001B39FC001A39FE4
:102E9000700D811D1124911DB29F700D811D112493
:102EA000911D08950E9466170C94BC160E94B516D9
:102EB00058F00E94AE1640F029F45F3F29F00C94C0
:102EC000A51651110C94F0160C94AB160E94CD1659
:102ED00068F39923B1F3552391F3951B550BBB2749
:102EE000AA2762177307840738F09F5F5F4F220F8E
:102EF000331F441FAA1FA9F335D00E2E3AF0E0E885
:102F000032D091505040E695001CCAF72BD0FE2FCE
:102F100029D0660F771F881FBB1F26173707480762
:102F2000AB07B0E809F0BB0B802DBF01FF2793581A
:102F30005F4F3AF09E3F510578F00C94A5160C9423
:102F4000F0165F3FE4F3983ED4F386957795679546
:102F5000B795F7959F5FC9F7880F911D969587954F
:102F600097F90895E1E0660F771F881FBB1F62176E
:102F700073078407BA0720F0621B730B840BBA0B2C
:102F8000EE1F88F7E09508950E94CB176894B11161
:102F90000C94F01608950E94D51688F09F5798F06B
:102FA000B92F9927B751B0F0E1F0660F771F881F4E
:102FB000991F1AF0BA95C9F714C0B13091F00E9468
:102FC000EF16B1E008950C94EF16672F782F88273D
:102FD000B85F39F0B93FCCF3869577956795B3958F
:102FE000D9F73EF490958095709561957F4F8F4FFE
:102FF0009F4F089597FB072E16F4009407D077FD96
:1030000009D00E94561807FC05D03EF49095819592
:103010009F4F0895709561957F4F0895A1E21A2EF4
:10302000AA1BBB1BFD010DC0AA1FBB1FEE1FFF1F6C
:10303000A217B307E407F50720F0A21BB30BE40BBC
:10304000F50B661F771F881F991F1A9469F7609503
:103050007095809590959B01AC01BD01CF010895BD
:10306000052E97FB1EF400940E94471857FD07D0C9
:103070000E940E1807FC03D04EF40C94471850958C
:103080004095309521953F4F4F4F5F4F0895909554
:103090008095709561957F4F8F4F9F4F08950E9447
:1030A0004317B7FF0895821B930B0895AA1BBB1B00
:1030B00051E107C0AA1FBB1FA617B70710F0A61B38
:1030C000B70B881F991F5A95A9F780959095BC0159
:1030D000CD010895EE0FFF1F0590F491E02D0994A6
:1030E0000F931F93CF93DF938230910510F482E00A
:1030F00090E0E091A206F091A30630E020E0B0E07D
:10310000A0E0309799F42115310509F44AC0281B35
:10311000390B24303105D8F58A819B816115710501
:1031200089F1FB0193838283FE0111C040815181AB
:103130000281138148175907E0F04817590799F49D
:10314000109761F012960C93129713961C93329677
:10315000CF01DF91CF911F910F9108950093A206A7
:103160001093A306F4CF2115310551F042175307F0
:1031700038F0A901DB019A01BD01DF01F801C1CFDF
:10318000EF01F9CF9093A3068093A206CDCFFE0165
:10319000E20FF31F819391932250310939832883E1
:1031A000D7CF2091A0063091A106232B41F4209186
:1031B0002F01309130013093A1062093A006209179
:1031C0002D0130912E012115310541F42DB73EB767
:1031D0004091310150913201241B350BE091A00642
:1031E000F091A106E217F307A0F42E1B3F0B28175E
:1031F000390778F0AC014E5F5F4F2417350748F070
:103200004E0F5F1F5093A1064093A00681939193A8
:103210009FCFF0E0E0E09CCFCF93DF930097E9F001
:10322000FC01329713821282A091A206B091A306EC
:10323000ED0130E020E01097A1F420813181820F70
:10324000931F2091A0063091A1062817390709F095
:1032500061C0F093A106E093A006DF91CF9108959D
:10326000EA01CE17DF07E8F54A815B819E0141152F
:103270005105B1F7E901FB83EA8349915991C40FE4
:10328000D51FEC17FD0761F4808191810296840FB0
:10329000951FE90199838883828193819B838A8327
:1032A000F0E0E0E012968D919C9113970097B9F5AC
:1032B0002D913C911197CD010296820F931F209181
:1032C000A0063091A1062817390739F6309751F535
:1032D0001092A3061092A206B093A106A093A00696
:1032E000BCCFD383C28340815181840F951FC817FF
:1032F000D90761F44E5F5F4F88819981480F591F4C
:10330000518340838A819B81938382832115310578
:1033100009F0B0CFF093A306E093A2069ECFFD0183
:10332000DC01C0CF13821282D7CFAEE0B0E0EBE970
:10333000F9E10C941A170D891E898F89988D26E062
:103340002C831A83098397FF02C080E090E80197DD
:103350009E838D83AE01455E5F4F698D7A8DCE0170
:1033600001960E94E8194D815E8157FD0AC02F81A8
:103370003885421753070CF49A01020F131FF80106
:1033800010822E96E4E00C943617AEE0B0E0EBEC41
:10339000F9E10C941A170D891E8986E08C831A8333
:1033A00009838FEF9FE79E838D83AE01475E5F4F5A
:1033B0006F89788DCE0101960E94E8192F8138859A
:1033C000020F131FF80110822E96E4E00C943617BA
:1033D000ABE0B0E0EEEEF9E10C940C177C013B01A0
:1033E0008A01FC0117821682838181FFC8C1CE0148
:1033F00001965C01F7019381F30193FD859193FFA1
:1034000081913F01882309F453C1853239F493FD3A
:10341000859193FF81913F01853229F4B70190E0B6
:103420000E94D81BE7CF912C212C312CFFE1F31502
:1034300038F08B3211F190F4803209F1833229F1A6
:1034400037FC3CC020ED280F2A3050F536FE20C056
:103450008AE0989E200D1124922E06C08D3291F0A4
:10346000803371F7689430F8F30193FD859193FFF1
:1034700081913F018111DACF21C0689431F86894BD
:1034800032F8F2CF689433F8EFCF689434F8ECCF89
:10349000EAE02E9E200D1124222E689435F8E4CF08
:1034A0008E3229F436FC04C1689436F8DDCF8C36B0
:1034B00019F4689437F8D8CF8836B1F2982F9F7DE9
:1034C00095549330E0F08336A1F18337C1F1833511
:1034D00009F063C02801F2E04F0E511CF801C080D2
:1034E000D180692D70E036FC02C06FEF7FEFC6011E
:1034F0000E94C21B4C01689437F882010AC00C5F1D
:103500001F4FFFE3F98388248394912C6501E8948D
:1035100037F833FE2DC0522C8114910471F55520DB
:1035200009F468CFB70180E290E00E94D81B5A945A
:10353000F6CFF801808189830E5F1F4FE4CF280109
:10354000F2E04F0E511CF801C080D180692D70E06F
:1035500036FC02C06FEF7FEFC6010E94CD1B4C010D
:103560008201D5CFB70180E290E00E94D81B2A9457
:103570002814190409F0B0F7CECFF60137FC859175
:1035800037FE81916F01B70190E00E94D81B511066
:103590005A94F1E08F1A9108BFCF843619F089361A
:1035A00009F077C0F80137FE6BC0608171818281BC
:1035B00093810C5F1F4FF32DFF763F2E97FF09C0BD
:1035C00090958095709561957F4F8F4F9F4F689430
:1035D00037F82AE030E0A5010E94081CC82ECA185E
:1035E0008C2C432C36FE0CC0E89440F8C91440F4EF
:1035F00034FE05C032FC03C0F32DFE7E4F2E892C15
:1036000044FE95C0FE01EC0DF11D8081803309F070
:1036100087C0242D297E422E842D8870582E43FC8D
:1036200095C040FE8FC09C2C821418F42C0C922C58
:10363000981844FE91C0B70180E390E00E94D81B27
:1036400042FE09C088E790E041FE02C088E590E0B4
:10365000B7010E94D81BC91408F48AC0CA94D12C9F
:103660009FEFC91AD90ACA0CDB1CF60182916F01BF
:10367000B70190E00E94D81BAC14BD04B1F74FCF46
:1036800060817181072E000C880B990B0E5F1F4F14
:1036900092CFD32CE894D4F82AE030E0853739F182
:1036A000232D297FD22E8F3601F148F48835A9F0D9
:1036B000F701868197812B96E2E10C9428178037D9
:1036C00049F08837A9F7D4FE02C06894D2F820E107
:1036D00030E00DC06894D4F8F6CF34FE03C0822FDA
:1036E0008660D82E20E132E002C028E030E0F80108
:1036F000D7FE0FC060817181828193810C5F1F4F63
:10370000A5010E94081CC82ECA183D2CE89437F861
:1037100067CF6081718190E080E00E5F1F4FF0CF36
:1037200042FC02C0839478CF8394839475CF842D18
:10373000867809F471CFF6CFB70180E290E00E945D
:10374000D81B83948214C0F3512C73CF522C581879
:10375000821408F46ECFF8CF842D867809F47BCFDD
:103760008BE241FE80E247FC8DE2B70190E071CF31
:10377000B70180E390E00E94D81B9A946CCF8FEF42
:103780009FEF99CFFC010590615070400110D8F770
:10379000809590958E0F9F1F0895FC016150704099
:1037A00001900110D8F7809590958E0F9F1F089576
:1037B0000F931F93CF93DF93182F092FEB018B816A
:1037C00081FD09C01FEF0FEF812F902FDF91CF9167
:1037D0001F910F91089582FF14C02E813F818C812B
:1037E0009D81281739073CF4E881F981CF010196C2
:1037F0009983888310838E819F8101969F838E8316
:10380000E3CFE885F985812F0995892BA1F3DACFDC
:10381000FA01AA27283051F1203181F1E8946F9301
:103820006E7F6E5F7F4F8F4F9F4FAF4FB1E03ED0A7
:10383000B4E03CD0670F781F891F9A1FA11D680F45
:10384000791F8A1F911DA11D6A0F711D811D911D78
:10385000A11D20D009F468943F912AE0269F1124ED
:103860003019305D3193DEF6CF010895462F477051
:10387000405D4193B3E00FD0C9F7F6CF462F4F70AC
:10388000405D4A3318F0495D31FD4052419302D00A
:10389000A9F7EACFB4E0A6959795879577956795B0
:1038A000BA95C9F700976105710508959B01AC01B0
:1038B0000A2E06945795479537952795BA95C9F7D7
:1038C000620F731F841F951FA01D089510E0C0EAAA
:1038D000D0E004C0FE010E946A182196C13AD107C7
:0638E000C9F7F894FFCFC8
:1038E6001400000014005A001E003C00C80020030B
:1038F600000005005A003C0078009001B00400006A
:103906003C0078000A003200C800F401010000A45F
:103916000680000A00000000000800000000000405
:1039260000000000000A00000000000600FCFF0086
:10393600000400FAFF00000200F8FF000008000083
:103946000000000400FCFF00000200FAFF00000077
:10395600FF0100010000FFFF0000010001FF000061
:103966000000009F0401010101050500000000D7C9
:1039760002370264023F03950273028702000000C9
:1039860000780337020D047703D403EC035F030DBD
:103996000A0073656E646D65007061676520257346
:1039A6000073746F70007478740025732E25733D50
:1039B60022257322002564682530326400256420A0
:1039C600B0430053746172742074696D65203A20A7
:1039D6000054656D702031203A200050656E746584
:1039E6002031203A200054696D652031203A2000AC
:1039F60054656D702032203A200050656E74652043
:103A060032203A200054696D652032203A20007336
:103A160061766520256420256420256420256400C0
:103A2600726563756974006772616E642066657598
:103A360000706574697420666575006163637565F9
:103A4600696C00707265706172655F66657500709D
:103A56006861736531007068617365315F706175A7
:103A660073650070686173653200706861736532F2
:103A76005F706175736500636F6F6B656400627577
:103A860074746F6E5F737461727400627430006276
:103A960074310062743200627433006274340062FE
:103AA600743500627574746F6E5F72657475726ECC
:103AB6000074360074370074380062743230006265
:103AC60074363636007265616420256420256420CC
:103AD600256420256400626B636D643D310070616E
:103AE6006765203000253032582025303258202591
:103AF6003032580076616C0025732E25733D256C97
:023B0600640059
:00000001FF
