:100000000C9463000C948B000C948B000C94CD0525
:100010000C9405070C948B000C948B000C948B00B3
:100020000C948B000C948B000C948B000C948B0024
:100030000C948B000C948B000C948B000C948B0014
:100040000C94D0080C948B000C949B050C947505B3
:100050000C948B000C948B000C948B000C948B00F4
:100060000C948B000C948B000000000025002800ED
:100070002B000000000023002600290004040404D3
:100080000404040402020202020203030303030342
:10009000010204081020408001020408102001021F
:1000A0000408102000000000240027002A0000009F
:1000B0000008000201000003040700000000000027
:1000C0000000250A1B0A11241FBECFEFD8E0DEBFB7
:1000D000CDBF24E0A0E7B2E001C01D92AF3DB20762
:1000E000E1F712E0A0E0B1E0ECE1F6E202C0059039
:1000F0000D92A037B107D9F710E0C2E6D0E004C0F6
:100100002197FE010E94F80EC136D107C9F70E945F
:10011000630C0C9401130C940000BF92CF92DF92F9
:10012000EF92FF920F931F93CF93DF93CDB7DEB77C
:10013000EDB6FEB6DC01ED91FC91369700811181A0
:10014000080F191FF80184819581DC01FD010190E0
:100150000020E9F731979F012A1B3B0BFB0101901F
:100160000020E9F73197E61BF70B2E0F3F1F265FA4
:100170003F4F4DB75EB7421B530B0FB6F8945EBFAF
:100180000FBE4DBFADB7BEB711966D017F936F9394
:1001900043EF51E05F934F939F938F9387EF91E0ED
:1001A0009F938F933F932F93DF92AF930E943010D2
:1001B000F801B280808191810E94CD062DB73EB7B3
:1001C000245F3F4F0FB6F8943EBF0FBE2DBFB8124D
:1001D0000CC0B601D8018D919C910E948606F80151
:1001E000808191810E945D0601C080E00FB6F89485
:1001F000FEBE0FBEEDBEDF91CF911F910F91FF901C
:10020000EF90DF90CF90BF9008950F931F93CF93FF
:10021000DF93EC018B0180914801209160033091C4
:100220006103882331F03093B9022093B802109211
:100230004801C630D10540F4FE01E15BFE4F40812C
:10024000042E000C550B02C040E050E086E0809F79
:10025000F001819FF00D1124EC0FFD1FEE0FFF1F29
:10026000EE0FFF1FE050FF4F8091B8029091B9024E
:10027000B901681B790B649FC001659F900D749F45
:10028000900D1124092E000CAA0BBB0B408151814B
:1002900062817381840F951FA61FB71F808391838E
:1002A000A283B3833093B9022093B80288E1809F80
:1002B000F001819FF00D1124E050FF4F8489958952
:1002C000A689B789408951896289738984179507FE
:1002D000A607B7073CF4C430D10521F4808B918B7D
:1002E000A28BB38B88E1809FF001819FF00D1124D8
:1002F000E050FF4F80899189A289B389448955894B
:1003000066897789481759076A077B073CF4C53027
:10031000D10521F4848B958BA68BB78B82E092E07C
:100320000E948409CE010E94010AC8010E94010AAC
:1003300026E0209FC001219F900D1124C80FD91FD6
:10034000CC0FDD1FCC0FDD1FC050DF4F68817981DE
:100350008A819B8197FF03C00E94DA0903C04AE0AB
:100360000E94970969E072E08AEB92E00E946F09AF
:100370008CE092E0DF91CF911F910F910C94840952
:100380002F923F924F925F926F927F928F929F92A5
:10039000AF92BF92CF92DF92EF92FF920F931F9393
:1003A000CF93DF93CDB7DEB76E970FB6F894DEBF6D
:1003B0000FBECDBF9A8B898B88E1869F9001879F66
:1003C000300D1124388B2F87212C312CE12CF12C6E
:1003D0008E010F5F1F4F20503F4F6901A901405F01
:1003E0005F4F5C8B4B8BC90104969E8B8D8BD90123
:1003F0001896B88FAF8BF9017496FA8FE98F8CE35A
:10040000882E912CA12CB12C94E0660F771F9A9521
:10041000E1F76A5F7F4F9B01245E3B4F3C8F2B8F40
:10042000AB014C525C4F5E8F4D8F2F853889220D6A
:10043000331DC90180509F4F2C01DC016D917D91CE
:100440008D919C91F901E059FD4F3F01208131814F
:1004500042815381621773078407950729F429891C
:100460003A89232B09F4F9C033E0E316F10409F4C7
:100470004CC04CF451E0E516F10419F1A2E0EA1683
:10048000F10499F10AC0B4E0EB16F10409F44DC08F
:10049000E5E0EE16F10409F458C0A50194010E94AC
:1004A000C50E7F936F933F932F9380E192E09F93CC
:1004B0008F931F930F930E946010B8018B8D9C8DBA
:1004C00053C0A50194010E94C50E7F936F933F9383
:1004D0002F9380E192E09F938F931F930F930E943D
:1004E0006010B8018D8D9E8D3FC09F938F937F9339
:1004F0006F9388E192E09F938F931F930F930E94D5
:100500006010B80182EC93E02FC09F938F937F938C
:100510006F9388E192E09F938F931F930F930E94B4
:100520006010B8018AEA93E01FC09F938F937F9376
:100530006F9380E292E09F938F931F930F930E949B
:100540006010B80182E993E00FC09F938F937F936F
:100550006F9380E292E09F938F931F930F930E947B
:100560006010B8018AE793E00E948D000FB6F894FE
:10057000DEBF0FBECDBFF20180819181A281B38128
:10058000F30180839183A283B383AB89BC892D91CE
:100590003D914D915C912B873C874D875E87F6019D
:1005A0004080518062807380ED89FE8980819181D5
:1005B000A281B381480E591E6A1E7B1EAF89B88D79
:1005C0002D913D914D915C916B857C858D859E85AE
:1005D0000E94C50EACE3B0E00E943E0E460E571ED0
:1005E000681E791EE98DFA8D80819181A281B38187
:1005F000BC01CD012B853C854D855E85621B730B4F
:10060000840B950BD6011C962D913D914D915C91DB
:100610001F970E94C50EACE3B0E00E943E0E640D31
:10062000751D861D971DA50194010E94C50E7F931F
:100630006F933F932F9380E192E09F938F931F934B
:100640000F930E946010B8018AE693E00E948D002B
:100650000FB6F894DEBF0FBECDBFFFEFEF1AFF0A53
:1006600024E0220E311C38E12316310409F0DDCEDE
:100670006E960FB6F894DEBF0FBECDBFDF91CF915F
:100680001F910F91FF90EF90DF90CF90BF90AF90B0
:100690009F908F907F906F905F904F903F902F90A2
:1006A0000895BF92CF92DF92EF92FF920F931F9324
:1006B000CF93DF93CDB7DEB728970FB6F894DEBFA0
:1006C0000FBECDBF0DB71EB7DC01ED91FC91369783
:1006D000E080F180E80EF91EF70124813581F901EF
:1006E000DF010D900020E9F7CD018E1B9F0B0996CD
:1006F0004DB75EB7481B590B0FB6F8945EBF0FBEDF
:100700004DBFADB7BEB711966D0146E252E05F93A3
:100710004F933F932F932AE232E03F932F939F937F
:100720008F93DF92AF930E943010F701B2808081E7
:1007300091810E94CD062DB73EB7265F3F4F0FB681
:10074000F8943EBF0FBE2DBFB81206C0B601D70148
:100750008D919C910E948606D701ED91FC91BE017E
:100760006F5F7F4F88E0DB011D928A95E9F748E0D3
:1007700050E0808191810E941A090897B9F489811B
:100780008137A1F48E818F3F89F48F818F3F71F47F
:1007900088858F3F59F46B8170E0762F66278A81B8
:1007A000682B072E000C880B990B03C060E070E0EB
:1007B000CB010FB6F8941EBF0FBE0DBF28960FB623
:1007C000F894DEBF0FBECDBFDF91CF911F910F9187
:1007D000FF90EF90DF90CF90BF900895FC01538D74
:1007E000448D252F30E0842F90E0821B930B54170B
:1007F00010F0CF96089501970895FC01918D828D98
:10080000981761F0828DDF01A80FB11D5D968C9164
:10081000928D9F5F9F73928F90E008958FEF9FEF6F
:100820000895FC01918D828D981731F0828DE80F2B
:10083000F11D858D90E008958FEF9FEF0895FC01E5
:10084000918D228D892F90E0805C9F4F821B9109B2
:100850008F73992708958AEB92E00E941F0421E08C
:10086000892B09F420E0822F0895FC01848DDF019B
:10087000A80FB11DA35ABF4F2C91848D90E0019613
:100880008F739927848FA689B7892C93A089B18902
:100890008C9180648C93938D848D981306C002880C
:1008A000F389E02D80818F7D80830895EF92FF9200
:1008B0000F931F93CF93DF93EC0181E0888F9B8D83
:1008C0008C8D981305C0E889F989808185FD24C045
:1008D000F62E0B8D10E00F5F1F4F0F731127E02EC8
:1008E0008C8DE8120CC00FB607FCFACFE889F989A5
:1008F000808185FFF5CFCE010E943504F1CF8B8D2D
:10090000FE01E80FF11DE35AFF4FF0820B8FEA89D9
:10091000FB898081806207C0EE89FF896083E88956
:10092000F98980818064808381E090E0DF91CF91BC
:100930001F910F91FF90EF900895CF93DF93EC01FB
:10094000888D8823C9F0EA89FB89808185FD05C0EF
:10095000A889B9898C9186FD0FC00FB607FCF5CF29
:10096000808185FFF2CFA889B9898C9185FFEDCF71
:10097000CE010E943504E7CFDF91CF91089580E04A
:1009800090E0892B29F00E942B0481110C94000027
:1009900008952091CE043091CF042817390771F4BF
:1009A0009091CC048091CD04981741F0E091CC0453
:1009B000F0E0E457FB4F808190E008958FEF9FEFC8
:1009C000089508951F93CF93DF93DC015C962D91DA
:1009D0003C915D972115310539F481E090E0139643
:1009E0009C938E9312973DC05196ED91FC91529736
:1009F00050969C915097892F80951FB75E964C9189
:100A00005E9741FB772770F941FD6095F89440812E
:100A1000772311F0492B01C048234083E901219736
:100A2000F1F748E0508160FF02C0592B01C0582304
:100A30005083E9012197F1F76695415099F77723A3
:100A400021F090818923808303C08081982B90833B
:100A50001FBF5C968D919C915D970197F1F721E006
:100A600030E0C901DF91CF911F9108952091CE040C
:100A70003091CF042817390771F48091CD0420916B
:100A8000CC0490E0805C9F4F821B910960E470E091
:100A90000E948F0E089580E090E008952091CE048A
:100AA0003091CF0428173907B9F49091CC04809184
:100AB000CD04981789F0E091CC04F0E0E457FB4FA7
:100AC00080812091CC0430E02F5F3F4F2F7333277C
:100AD0002093CC0490E008958FEF9FEF089580E07D
:100AE00090E0089508950E942B101F920F920FB668
:100AF0000F9211242F933F934F935F936F937F93A4
:100B00008F939F93AF93BF93EF93FF938AEB92E002
:100B10000E943504FF91EF91BF91AF919F918F910A
:100B20007F916F915F914F913F912F910F900FBEE9
:100B30000F901F9018951F920F920FB60F921124CD
:100B40002F938F939F93EF93FF93E091CA02F091BD
:100B5000CB028081E091D002F091D10282FD12C0DF
:100B600090818091D3028F5F8F732091D40282177E
:100B700051F0E091D302F0E0E654FD4F958F809361
:100B8000D30201C08081FF91EF919F918F912F91AE
:100B90000F900FBE0F901F9018951F920F920FB6D7
:100BA0000F9211242F933F934F935F936F937F93F3
:100BB0008F939F93AF93BF93EF93FF93E091CE04F6
:100BC000F091CF04309709F451C0968DA685B78572
:100BD000858591FF04C09C91892329F447C09C918D
:100BE000892309F043C0A389B4899C9185898095A4
:100BF00089238C93868997890197F1F7608D718D90
:100C0000A685B785558538E020E0CB010197F1F73F
:100C1000822F90E095958795282F4C91452309F0D8
:100C20002068315091F7868D81FD20958091CD040B
:100C300090E001968F7399273091CC04381749F0D2
:100C4000A091CD04B0E0A457BB4F2C938093CD046A
:100C500003C0868D8160868F828D938D0197F1F719
:100C6000A389B4899C918589892B8C93FF91EF91FD
:100C7000BF91AF919F918F917F916F915F914F91B4
:100C80003F912F910F900FBE0F901F901895E091FC
:100C9000CE04F091CF04E817F90769F4A389B48969
:100CA0009C918589809589238C931092CF04109212
:100CB000CE0481E0089580E00895CF93DF9300D0C3
:100CC00000D0CDB7DEB719821A821B821C8244E0A5
:100CD00050E0BE016F5F7F4FFC01808191810E94D7
:100CE0001A098981813051F48A818F3F39F48B81CF
:100CF0008F3F21F481E09C819F3F09F080E00F90BD
:100D00000F900F900F90DF91CF9108950F931F9345
:100D1000CF93DF9300D0CDB7DEB78C01DC01169600
:100D20008C911697882369F08D919C91DC01ED914F
:100D3000FC910680F781E02D69837A8309957A8199
:100D40006981F801808191810E946F09D8018D919C
:100D50009C91DC01ED91FC910190F081E02D6FEF11
:100D60000995F80180819181DC01ED91FC91019060
:100D7000F081E02D6FEF0995F80180819181DC0110
:100D8000ED91FC910190F081E02D6FEF0F900F90AD
:100D9000DF91CF911F910F9109940F931F93CF93E0
:100DA000DF9300D000D01F92CDB7DEB78C016CE48A
:100DB00072E00E948606BE016F5F7F4F85E0FB01F7
:100DC00011928A95E9F745E050E0F8018081918120
:100DD0000E941A09059771F48981863659F48B812E
:100DE0008F3F41F48C818F3F29F48D818F3F11F427
:100DF0008A8101C080E00F900F900F900F900F90AC
:100E0000DF91CF911F910F9108951F920F920FB60E
:100E10000F9211240F931F932F933F934F935F9340
:100E20006F937F938F939F93AF93BF93CF93EF93E2
:100E3000FF93809157030E941608C82F8091590391
:100E40000E941608880F991F8C2BE0915B03E8170E
:100E5000C9F194E0E902F0011124282F082E000CBA
:100E6000330BE22BF32BEB53FE4F4081042E000C8F
:100E7000550B660B770B00915C0310915D0320917D
:100E80005E0330915F03400F511F621F731F409339
:100E90005C0350935D0360935E0370935F03833044
:100EA00079F492E075956795579547959A95D1F79E
:100EB00040936003509361036093620370936303F4
:100EC00080935B03FF91EF91CF91BF91AF919F9181
:100ED0008F917F916F915F914F913F912F911F91D2
:100EE0000F910F900FBE0F901F901895833081F0D7
:100EF00028F4813099F08230A1F008958730A9F06C
:100F00008830B9F08430D1F4809180008F7D03C0A7
:100F1000809180008F7780938000089584B58F77CB
:100F200002C084B58F7D84BD08958091B0008F7715
:100F300003C08091B0008F7D8093B0000895CF9260
:100F4000DF92EF92FF920F931F93CF93DF936C0189
:100F50007A018B01C0E0D0E0CE15DF0589F0D80121
:100F60006D918D01D601ED91FC910190F081E02D04
:100F7000C6010995892B11F47E0102C02196ECCFA0
:100F8000C701DF91CF911F910F91FF90EF90DF90FC
:100F9000CF900895CF93DF93EC0184E090E00E941E
:100FA000FE0EDC011196DC93CE9313961C921E92DA
:100FB0001297E0916B04F0916C04309729F49093B0
:100FC0006C0480936B0408C082819381009711F0B8
:100FD000FC01FACFB383A283DF91CF910895CF9321
:100FE000DF93EC0184E694E09B878A876C874D87CA
:100FF0003F872E878BED91E0998388831B821A822D
:10100000CE010E94CA0781EE91E09983888387EE22
:1010100091E09D838C838DEE91E09F838E8383EF9F
:1010200091E099878887DF91CF910895CF93DF93DF
:10103000282F30E0F901E255FF4F8491F901E05784
:10104000FF4FD491F901E458FF4FC491CC2391F0A4
:1010500081110E947607EC2FF0E0EE0FFF1FEE5893
:10106000FF4FA591B491EC91ED2381E090E021F444
:1010700080E002C080E090E0DF91CF9108951F935F
:10108000CF93DF93282F30E0F901E255FF4F849191
:10109000F901E057FF4FD491F901E458FF4FC49193
:1010A000CC23C9F0162F81110E947607EC2FF0E0B7
:1010B000EE0FFF1FE859FF4FA591B4918FB7F89439
:1010C000111105C09C91ED2FE095E92302C0EC9130
:1010D000ED2BEC938FBFDF91CF911F910895CF93AC
:1010E000DF9390E0FC01E057FF4F2491FC01E458AE
:1010F000FF4F8491882361F190E0880F991FFC01D4
:10110000EC55FF4FC591D491FC01E859FF4FA591D3
:10111000B491611109C09FB7F8948881209582230A
:101120008883EC912E230BC0623061F49FB7F89452
:101130003881822F809583238883EC912E2B2C93EA
:101140009FBF06C08FB7F894E8812E2B28838FBFEE
:10115000DF91CF9108953FB7F8948091D704909193
:10116000D804A091D904B091DA0426B5A89B05C093
:101170002F3F19F00196A11DB11D3FBFBA2FA92F16
:10118000982F8827820F911DA11DB11DBC01CD0193
:1011900042E0660F771F881F991F4A95D1F708957F
:1011A0001F920F920FB60F9211242F933F938F939C
:1011B0009F93AF93BF938091D3049091D404A09157
:1011C000D504B091D6043091D20423E0230F2D37FB
:1011D00020F40196A11DB11D05C026E8230F02963B
:1011E000A11DB11D2093D2048093D3049093D40405
:1011F000A093D504B093D6048091D7049091D804DD
:10120000A091D904B091DA040196A11DB11D80937B
:10121000D7049093D804A093D904B093DA04BF9173
:10122000AF919F918F913F912F910F900FBE0F9093
:101230001F901895CF92DF92EF92FF920F931F931A
:10124000CF93DF93EC016A017B0100E010E00C1505
:101250001D05D9F12FB7F8948091D3049091D4044F
:10126000A091D504B091D6042FBF88879987AA870B
:10127000BB87E881F9810284F385E02DCE010995D1
:1012800097FF1DC02FB7F8948091D3049091D40498
:10129000A091D504B091D6042FBF488559856A85A1
:1012A0007B85841B950BA60BB70B4C815D816E81F2
:1012B0007F8184179507A607B707D8F206C0F70104
:1012C00081937F010F5F1F4FC2CFC801DF91CF9184
:1012D0001F910F91FF90EF90DF90CF9008956115CF
:1012E000710579F0FB0101900020E9F73197AF011A
:1012F000461B570BDC01ED91FC910280F381E02D40
:10130000099480E090E00895CF93DF93BC018AEBCD
:1013100092E00E946F09EC0169E072E08AEB92E0D2
:101320000E946F098C0F9D1FDF91CF9108958F92BE
:101330009F92AF92BF920F931F93CF93DF93CDB73E
:10134000DEB7A1970FB6F894DEBF0FBECDBF19A2CE
:10135000423008F44AE08E010F5D1F4F842E912C1D
:10136000A12CB12CA50194010E94A30EE62FB90176
:10137000CA0101501109EA3014F4E05D01C0E95CD2
:10138000D801EC93232B242B252B61F7B8018AEB92
:1013900092E00E946F09A1960FB6F894DEBF0FBECF
:1013A000CDBFDF91CF911F910F91BF90AF909F90D4
:1013B0008F900895CF92DF92EF92FF92CF93DF93B9
:1013C0006B017C01E091BA02F091BB020190F081C7
:1013D000E02D6DE28AEB92E00995EC016627772714
:1013E000CB016C197D098E099F094AE00E9497097B
:1013F0008C0F9D1FDF91CF91FF90EF90DF90CF90EA
:101400000895CF93DF93BC01990F880B990B97FF39
:1014100003C00E94DA0903C04AE00E949709EC0168
:1014200069E072E08AEB92E00E946F098C0F9D1FC9
:10143000DF91CF91089587EB91E090936E048093B4
:101440006D048DE694E00C944706CF92DF92EF9204
:10145000FF920F931F93CF93DF931092BD021092D0
:10146000BC0258EEC52E53E0D52EE12CF12CC092D3
:10147000BE02D092BF02E092C002F092C10285E6A5
:1014800091E09093BB028093BA0285EC90E0909338
:10149000C7028093C60284EC90E09093C9028093C7
:1014A000C80280EC90E09093CB028093CA0281EC5A
:1014B00090E09093CD028093CC0282EC90E09093E8
:1014C000CF028093CE0286EC90E09093D10280937D
:1014D000D0021092D3021092D4021092D502109230
:1014E000D60280E190E0909358038093570381E106
:1014F00090E090935A038093590360E080E10E944A
:101500006F0861E080E10E943F0860E081E10E9495
:101510006F0861E081E10E943F0883E080935B03F4
:1015200010925C0310925D0310925E0310925F03B1
:101530001092600310926103109262031092630391
:101540001092700410926F04C0927104D0927204D1
:10155000E0927304F092740487EB91E090936E0430
:1015600080936D0410928404109283041092860478
:1015700010928504109288041092870410928A04B5
:101580001092890460918B046E7F6D7F60938B0451
:101590006695617081E068278BE00E943F0861E0FA
:1015A0008BE00E946F08EBE9F0E0E491E0937D04AA
:1015B000E7E8F0E0E491F0E0EE0FFF1FE859FF4F9D
:1015C0008591949190937F0480937E0460E08AE0FB
:1015D0000E946F0880918B0481FD04C061E08AE065
:1015E0000E943F088AE0E82EE0927904EAE9F0E000
:1015F000E491E0937A04E6E8F0E0E491F0E0EE0FA5
:10160000FF1FEE58FF4F8591949190937C04809337
:101610007B04C4E6D4E08DE694E090936504809367
:10162000640484EF91E0A0E0B0E0809366049093BE
:101630006704A0936804B0936904DD24D394D09226
:101640006A0410926C0410926B04D0934F04C09300
:101650004E04D092500427E02093510484E392E09A
:1016600090935304809352040FEA11E010934D04B9
:1016700000934C04D0935704C093560432E0F32EE9
:10168000F09258042093590490935B0480935A0479
:101690001093550400935404D0935F04C0935E04E8
:1016A00043E0C42EC09260042093610490936304CD
:1016B0008093620410935D0400935C049C0147E0F6
:1016C00061E08CE194E00E94EF0724E332E047E020
:1016D00062E08CE294E00E94EF0724E332E047E00E
:1016E00063E08CE394E00E94EF07D0930704C0937B
:1016F0000604D0920804E092090488E392E09093F3
:101700000B0480930A041093050400930404D093FF
:101710000F04C0930E04F0921004E0921104909311
:1017200013048093120410930D0400930C04D093BF
:101730001704C0931604C0921804E0921904909301
:101740001B0480931A0410931504009314049C0145
:101750004AE061E084ED93E00E94EF0728E332E085
:101760004AE062E084EE93E00E94EF0728E332E073
:101770004AE063E084EF93E00E94EF07D093CF0349
:10178000C093CE03F092D00389E08093D1038CE321
:1017900092E09093D3038093D2031093CD030093F0
:1017A000CC039C0149E062E08CEB93E00E94EF07E0
:1017B000D093B703C093B603F092B80388E0809348
:1017C000B90380E492E09093BB038093BA03109333
:1017D000B5030093B4039C0148E062E084EA93E01F
:1017E0000E94EF07D0939F03C0939E03F092A00343
:1017F00086E08093A10384E492E09093A303809316
:10180000A20310939D0300939C039C0146E062E0B9
:101810008CE893E00E94EF07D0938703C093860380
:10182000F092880385E08093890388E492E09093A6
:101830008B0380938A0310938503009384039C0198
:1018400045E062E084E793E00E94EF07D0936F03E6
:10185000C0936E03F0927003F09271038DE392E0F7
:1018600090937303809372038BE591E090936503EB
:1018700080936403109267031092660384E693E0FA
:101880000E94CA0781E991E0909365038093640305
:1018900087E991E090936903809368038DE991E073
:1018A00090936B0380936A0383EA91E090936D03B6
:1018B00080936C03DF91CF911F910F91FF90EF9078
:1018C000DF90CF900895789484B5826084BD84B50C
:1018D000816084BD85B5826085BD85B5816085BD2B
:1018E00080916E00816080936E00109281008091E3
:1018F000810082608093810080918100816080936B
:101900008100809180008160809380008091B1008F
:1019100084608093B1008091B00081608093B000BA
:1019200080917A00846080937A0080917A0082604E
:1019300080937A0080917A00816080937A00809110
:101940007A00806880937A001092C100E091CA0208
:10195000F091CB0282E08083E091C602F091C70251
:101960001082E091C802F091C9028FEC808310923E
:10197000D202E091CE02F091CF0286E08083E09126
:10198000CC02F091CD02808180618083E091CC0215
:10199000F091CD02808188608083E091CC02F0914B
:1019A000CD02808180688083E091CC02F091CD02ED
:1019B00080818F7D808383E592E00E94840910926C
:1019C0008804109287041092860410928504109265
:1019D0008404109283048DE991E090938A048093AB
:1019E000890490917904963108F057C02DEB30E0CE
:1019F00030938404209383042BE931E030938604F0
:101A0000209385042CE231E03093880420938704EE
:101A100020916800983050F031E09E3008F430E0BA
:101A200081E001C0880F3A95EAF701C084E0822B7B
:101A300080936800983038F09E3040F0963148F03E
:101A400020E030E008C02DE630E005C02BE630E0B5
:101A500002C02CE630E0309381042093800498305B
:101A600030F481E001C0880F9A95EAF70EC0292F63
:101A700030E09E3018F42850310902C02E50310950
:101A800081E001C0880F2A95EAF780938204809153
:101A9000890490918A040197F1F7809187049091CD
:101AA0008804892B21F18091CE049091CF0424E009
:101AB0008D369207E1F0009711F00E944706809161
:101AC0008B048E7F80938B041092CD041092CC04F3
:101AD0008DE694E09093CF048093CE04E09180044F
:101AE000F0918104908180918204892B80836BE046
:101AF00072E084E694E00E94860660E672E084E686
:101B000094E00E94860684E694E00E945D0668E602
:101B100072E084E694E00E94860684E694E00E94E7
:101B20005D060E94AB084B015C0190EDC92E97E069
:101B3000D92EE12CF12C0E94AB08DC01CB018819D5
:101B40009909AA09BB09883E9340A105B10558F03F
:101B500081E0C81AD108E108F10828EE820E23E0DE
:101B6000921EA11CB11CC114D104E104F10419F7A7
:101B70008091680082608093680080916C008C6026
:101B800080936C0084E694E00E94CD06C82FD0E0DC
:101B9000CE010E94010ACE010197029708F066C0AB
:101BA0008091D0049091D104C817D90749F0D093FF
:101BB000D104C093D004BE0181E090E00E94C00136
:101BC0008E0183E0000F111F8A95E1F7C801845B45
:101BD0009B4F0E945103672B682B692B29F0BE0194
:101BE00080E090E00E940501C8018C5F9B4F0E943D
:101BF0005103672B682B692B29F0BE0181E090E02F
:101C00000E9405018CEC93E00E945103672B682B26
:101C1000692B29F0BE0182E090E00E94050184EB6F
:101C200093E00E945103672B682B692B29F0BE01BA
:101C300083E090E00E9405018CE993E00E9451034B
:101C4000672B682B692B29F0BE0184E090E00E948D
:101C5000050184E893E00E945103672B682B692BF0
:101C600029F0BE0185E090E00E940501BE0180E000
:101C700090E00E94C0010E94BF0484CF0E94800EA9
:101C8000A59F900DB49F900DA49F800D911D1124D0
:101C900008952F923F924F925F926F927F928F9210
:101CA0009F92AF92BF92CF92DF92EF92FF920F93EB
:101CB0001F93CF93DF93CDB7DEB7CA1BDB0B0FB6F5
:101CC000F894DEBF0FBECDBF09942A8839884888B2
:101CD0005F846E847D848C849B84AA84B984C88448
:101CE000DF80EE80FD800C811B81AA81B981CE0F3F
:101CF000D11D0FB6F894DEBF0FBECDBFED01089524
:101D0000A29FB001B39FC001A39F700D811D11243C
:101D1000911DB29F700D811D1124911D089597FB97
:101D2000072E16F4009407D077FD09D00E94E40E28
:101D300007FC05D03EF4909581959F4F08957095CE
:101D400061957F4F0895A1E21A2EAA1BBB1BFD01CE
:101D50000DC0AA1FBB1FEE1FFF1FA217B307E4078A
:101D6000F50720F0A21BB30BE40BF50B661F771FE2
:101D7000881F991F1A9469F76095709580959095C2
:101D80009B01AC01BD01CF010895052E97FB1EF408
:101D900000940E94DC0E57FD07D00E94A30E07FCA2
:101DA00003D04EF40C94DC0E50954095309521955F
:101DB0003F4F4F4F5F4F0895909580957095619577
:101DC0007F4F8F4F9F4F0895AA1BBB1B51E107C048
:101DD000AA1FBB1FA617B70710F0A61BB70B881FBB
:101DE000991F5A95A9F780959095BC01CD0108954A
:101DF000EE0FFF1F0590F491E02D0994CF93DF9330
:101E00008230910510F482E090E0E091DD04F091E1
:101E1000DE0420E030E0C0E0D0E0309711F14081F6
:101E2000518148175907C0F04817590761F482815A
:101E30009381209719F09B838A832BC09093DE04B3
:101E40008093DD0426C02115310519F04217530790
:101E500018F49A01BE01DF01EF010280F381E02D49
:101E6000DCCF2115310509F1281B390B2430310550
:101E700090F412968D919C9113976115710521F044
:101E8000FB019383828304C09093DE048093DD047E
:101E9000FD01329644C0FD01E20FF31F819391933F
:101EA000225031092D933C933AC02091DB043091AC
:101EB000DC04232B41F420914B0130914C013093F1
:101EC000DC042093DB042091490130914A01211563
:101ED000310541F42DB73EB740914D0150914E016F
:101EE000241B350BE091DB04F091DC04E217F307CF
:101EF000A0F42E1B3F0B2817390778F0AC014E5F7A
:101F00005F4F2417350748F04E0F5F1F5093DC04D6
:101F10004093DB048193919302C0E0E0F0E0CF01B5
:101F2000DF91CF9108950F931F93CF93DF93009785
:101F300009F48CC0FC013297138212820091DD04F7
:101F40001091DE040115110581F420813181820F89
:101F5000931F2091DB043091DC042817390779F5B1
:101F6000F093DC04E093DB0471C0D80140E050E062
:101F7000AE17BF0750F412962D913C911397AD0107
:101F80002115310509F1D901F3CF9D01DA01338320
:101F9000228360817181860F971F8217930769F4EE
:101FA000EC0128813981260F371F2E5F3F4F318387
:101FB00020838A819B8193838283452B29F4F0932C
:101FC000DE04E093DD0442C01396FC93EE93129777
:101FD000ED01499159919E01240F351FE217F30736
:101FE00071F480819181840F951F029611969C93C4
:101FF0008E938281938113969C938E931297E0E047
:10200000F0E0D80112968D919C911397009719F0EA
:10201000F8018C01F6CF8D919C9198012E5F3F4F76
:10202000820F931F2091DB043091DC0428173907BD
:1020300069F4309729F41092DE041092DD0402C096
:10204000138212821093DC040093DB04DF91CF91A2
:102050001F910F91089581E090E0F8940C94011382
:10206000AEE0B0E0E6E3F0E10C94570E0D891E8976
:102070008F89988D26E02C831A83098397FF02C0ED
:1020800080E090E801979E838D83AE01455E5F4FAF
:10209000698D7A8DCE0101960E9483104D815E81FB
:1020A00057FD0AC02F813885421753070CF49A0157
:1020B000F801E20FF31F10822E96E4E00C94730EE9
:1020C000AEE0B0E0E6E6F0E10C94570E0D891E8913
:1020D00086E08C831A8309838FEF9FE79E838D832D
:1020E000AE01475E5F4F6F89788DCE0101960E94E9
:1020F00083102F813885F801E20FF31F10822E968E
:10210000E4E00C94730EACE0B0E0E9E8F0E10C948C
:10211000490E7C016B018A01FC01178216828381C2
:1021200081FFBDC1CE0101964C01F7019381F601FB
:1021300093FD859193FF81916F01882309F4ABC1D1
:10214000853239F493FD859193FF81916F0185323A
:1021500029F4B70190E00E946B12E7CF512C312C8B
:1021600020E02032A0F48B3269F030F4803259F054
:10217000833269F420612CC08D3239F0803339F418
:10218000216026C02260246023C0286021C027FD72
:1021900027C030ED380F3A3078F426FF06C0FAE059
:1021A0005F9E300D1124532E13C08AE0389E300DEF
:1021B0001124332E20620CC08E3221F426FD6BC117
:1021C000206406C08C3611F4206802C0883641F4C1
:1021D000F60193FD859193FF81916F018111C1CF2C
:1021E000982F9F7D9554933028F40C5F1F4FFFE389
:1021F000F9830DC0833631F0833771F0833509F0F0
:102200005BC022C0F801808189830E5F1F4F442488
:102210004394512C540115C03801F2E06F0E711C2B
:10222000F801A080B18026FF03C0652D70E002C0D8
:102230006FEF7FEFC5012C870E9460122C01830194
:102240002C852F77222E17C03801F2E06F0E711CFB
:10225000F801A080B18026FF03C0652D70E002C0A8
:102260006FEF7FEFC5012C870E9455122C012C8542
:102270002068222E830123FC1BC0832D90E048168A
:102280005906B0F4B70180E290E00E946B123A94D4
:10229000F4CFF50127FC859127FE81915F01B701FD
:1022A00090E00E946B1231103A94F1E04F1A5108FD
:1022B0004114510471F7E5C0843611F0893639F5BF
:1022C000F80127FF07C060817181828193810C5FD3
:1022D0001F4F08C060817181072E000C880B990B7D
:1022E0000E5F1F4F2F76722E97FF09C09095809535
:1022F000709561957F4F8F4F9F4F2068722E2AE017
:1023000030E0A4010E94A312A82EA81844C085376B
:1023100029F42F7EB22E2AE030E025C0F22FF97F7B
:10232000BF2E8F36C1F018F4883579F0B4C08037ED
:1023300019F0883721F0AFC02F2F2061B22EB4FEE4
:102340000DC08B2D8460B82E09C024FF0AC09F2FBA
:102350009660B92E06C028E030E005C020E130E0EC
:1023600002C020E132E0F801B7FE07C06081718150
:10237000828193810C5F1F4F06C06081718180E074
:1023800090E00E5F1F4FA4010E94A312A82EA81870
:10239000FB2DFF777F2E76FE0BC0372D3E7FA514D9
:1023A00050F474FE0AC072FC08C0372D3E7E05C092
:1023B000BA2C372D03C0BA2C01C0B52C34FF0DC088
:1023C000FE01EA0DF11D8081803311F4397E09C0D0
:1023D00032FF06C0B394B39404C0832F867809F00B
:1023E000B39433FD13C030FF06C05A2CB31418F455
:1023F000530C5B18B32CB31468F4B70180E290E07F
:102400003C870E946B12B3943C85F5CFB31410F453
:102410003B1801C0312C34FF12C0B70180E390E0BB
:102420003C870E946B123C8532FF17C031FD03C010
:1024300088E790E002C088E590E0B7010CC0832FE8
:10244000867859F031FF02C08BE201C080E237FD8F
:102450008DE2B70190E00E946B12A51438F4B70129
:1024600080E390E00E946B125A94F7CFAA94F40193
:10247000EA0DF11D8081B70190E00E946B12A1105E
:10248000F5CF332009F451CEB70180E290E00E94ED
:102490006B123A94F6CFF7018681978102C08FEFD5
:1024A0009FEF2C96E2E10C94650EFC0105906150C3
:1024B00070400110D8F7809590958E0F9F1F08955A
:1024C000FC016150704001900110D8F78095909503
:1024D0008E0F9F1F08950F931F93CF93DF93FB01E0
:1024E000238121FD03C08FEF9FEF28C022FF16C07C
:1024F00046815781248135814217530744F4A081D6
:10250000B1819D012F5F3F4F318320838C932681C2
:1025100037812F5F3F4F3783268310C0EB01092F90
:10252000182F0084F185E02D0995892BE1F68E8125
:102530009F8101969F838E83812F902FDF91CF9172
:102540001F910F910895FA01AA27283051F12031E7
:1025500081F1E8946F936E7F6E5F7F4F8F4F9F4F37
:10256000AF4FB1E03ED0B4E03CD0670F781F891F79
:102570009A1FA11D680F791F8A1F911DA11D6A0F47
:10258000711D811D911DA11D20D009F468943F91FA
:102590002AE0269F11243019305D3193DEF6CF01F9
:1025A0000895462F4770405D4193B3E00FD0C9F7BF
:1025B000F6CF462F4F70405D4A3318F0495D31FD2C
:1025C0004052419302D0A9F7EACFB4E0A69597957F
:1025D000879577956795BA95C9F700976105710555
:1025E00008959B01AC010A2E06945795479537959F
:1025F0002795BA95C9F7620F731F841F951FA01DF9
:10260000089510E0C2E6D0E004C0FE010E94F80E7A
:0C2610002196C336D107C9F7F894FFCF1C
:10261C00140000005A00000064000000F4010000E7
:10262C009001000020030000050000005A0000008B
:10263C00C8000000F401000090010000B00400008C
:10264C003C000000780000000A000000320000008E
:10265C00C8000000F4010000010000DF048000014C
:10266C00010A0A32320A00000000000200000000D9
:10267C00000000000056049F07EE039D041F04FD9C
:10268C000311040200000000000200000000000220
:10269C0000000000000400000000000A0000000020
:1026AC00000600FCFF00000400FAFF00000200F826
:1026BC00FF0000020000000000020000000000AF5C
:1026CC0001610100000000E2049F076F05E1043680
:1026DC00054E05C90400FF0100010000FFFF0000CA
:1026EC00010001FF000A00000000000A00000000C9
:1026FC00000600FCFF00000400FAFF00000200F8D6
:10270C00FF00007478740025732E25733D22257309
:10271C002200636F75636F75000D0A00656E6400AF
:10272C002564682530326400256420B0432F68008E
:10273C00256420B0430076616C00676574202573B6
:10274C002E2573006274320062743500627434009A
:10275C0062743300627431006274300073656E64AD
:10276C006D65004C75636966657220696E697400ED
:10277C00626B636D643D31007061676520300000F1
:00000001FF
